{
	"struc.sol": {
		"demo": {
			"abi": [
				{
					"inputs": [
						{
							"internalType": "uint256",
							"name": "_roll",
							"type": "uint256"
						},
						{
							"internalType": "string",
							"name": "_name",
							"type": "string"
						}
					],
					"stateMutability": "nonpayable",
					"type": "constructor"
				},
				{
					"inputs": [
						{
							"internalType": "uint256",
							"name": "_roll",
							"type": "uint256"
						},
						{
							"internalType": "string",
							"name": "_name",
							"type": "string"
						}
					],
					"name": "change",
					"outputs": [],
					"stateMutability": "nonpayable",
					"type": "function"
				},
				{
					"inputs": [],
					"name": "s1",
					"outputs": [
						{
							"internalType": "uint256",
							"name": "roll",
							"type": "uint256"
						},
						{
							"internalType": "string",
							"name": "name",
							"type": "string"
						}
					],
					"stateMutability": "view",
					"type": "function"
				}
			],
			"devdoc": {
				"kind": "dev",
				"methods": {},
				"version": 1
			},
			"evm": {
				"assembly": "    /* \"struc.sol\":123:487  contract demo... */\n  mstore(0x40, 0x80)\n    /* \"struc.sol\":169:275  constructor(uint _roll, string memory _name)... */\n  callvalue\n  dup1\n  iszero\n  tag_1\n  jumpi\n  0x00\n  dup1\n  revert\ntag_1:\n  pop\n  mload(0x40)\n  sub(codesize, bytecodeSize)\n  dup1\n  bytecodeSize\n  dup4\n  codecopy\n  dup2\n  dup2\n  add\n  0x40\n  mstore\n  dup2\n  add\n  swap1\n  tag_2\n  swap2\n  swap1\n  tag_3\n  jump\t// in\ntag_2:\n    /* \"struc.sol\":238:243  _roll */\n  dup2\n    /* \"struc.sol\":230:232  s1 */\n  0x00\n    /* \"struc.sol\":230:237  s1.roll */\n  dup1\n  add\n    /* \"struc.sol\":230:243  s1.roll=_roll */\n  dup2\n  swap1\n  sstore\n  pop\n    /* \"struc.sol\":262:267  _name */\n  dup1\n    /* \"struc.sol\":254:256  s1 */\n  0x00\n    /* \"struc.sol\":254:261  s1.name */\n  0x01\n  add\n    /* \"struc.sol\":254:267  s1.name=_name */\n  swap1\n  dup2\n  tag_6\n  swap2\n  swap1\n  tag_7\n  jump\t// in\ntag_6:\n  pop\n    /* \"struc.sol\":169:275  constructor(uint _roll, string memory _name)... */\n  pop\n  pop\n    /* \"struc.sol\":123:487  contract demo... */\n  jump(tag_8)\n    /* \"#utility.yul\":7:82   */\ntag_9:\n    /* \"#utility.yul\":40:46   */\n  0x00\n    /* \"#utility.yul\":73:75   */\n  0x40\n    /* \"#utility.yul\":67:76   */\n  mload\n    /* \"#utility.yul\":57:76   */\n  swap1\n  pop\n    /* \"#utility.yul\":7:82   */\n  swap1\n  jump\t// out\n    /* \"#utility.yul\":88:205   */\ntag_10:\n    /* \"#utility.yul\":197:198   */\n  0x00\n    /* \"#utility.yul\":194:195   */\n  dup1\n    /* \"#utility.yul\":187:199   */\n  revert\n    /* \"#utility.yul\":211:328   */\ntag_11:\n    /* \"#utility.yul\":320:321   */\n  0x00\n    /* \"#utility.yul\":317:318   */\n  dup1\n    /* \"#utility.yul\":310:322   */\n  revert\n    /* \"#utility.yul\":334:411   */\ntag_12:\n    /* \"#utility.yul\":371:378   */\n  0x00\n    /* \"#utility.yul\":400:405   */\n  dup2\n    /* \"#utility.yul\":389:405   */\n  swap1\n  pop\n    /* \"#utility.yul\":334:411   */\n  swap2\n  swap1\n  pop\n  jump\t// out\n    /* \"#utility.yul\":417:539   */\ntag_13:\n    /* \"#utility.yul\":490:514   */\n  tag_49\n    /* \"#utility.yul\":508:513   */\n  dup2\n    /* \"#utility.yul\":490:514   */\n  tag_12\n  jump\t// in\ntag_49:\n    /* \"#utility.yul\":483:488   */\n  dup2\n    /* \"#utility.yul\":480:515   */\n  eq\n    /* \"#utility.yul\":470:533   */\n  tag_50\n  jumpi\n    /* \"#utility.yul\":529:530   */\n  0x00\n    /* \"#utility.yul\":526:527   */\n  dup1\n    /* \"#utility.yul\":519:531   */\n  revert\n    /* \"#utility.yul\":470:533   */\ntag_50:\n    /* \"#utility.yul\":417:539   */\n  pop\n  jump\t// out\n    /* \"#utility.yul\":545:688   */\ntag_14:\n    /* \"#utility.yul\":602:607   */\n  0x00\n    /* \"#utility.yul\":633:639   */\n  dup2\n    /* \"#utility.yul\":627:640   */\n  mload\n    /* \"#utility.yul\":618:640   */\n  swap1\n  pop\n    /* \"#utility.yul\":649:682   */\n  tag_52\n    /* \"#utility.yul\":676:681   */\n  dup2\n    /* \"#utility.yul\":649:682   */\n  tag_13\n  jump\t// in\ntag_52:\n    /* \"#utility.yul\":545:688   */\n  swap3\n  swap2\n  pop\n  pop\n  jump\t// out\n    /* \"#utility.yul\":694:811   */\ntag_15:\n    /* \"#utility.yul\":803:804   */\n  0x00\n    /* \"#utility.yul\":800:801   */\n  dup1\n    /* \"#utility.yul\":793:805   */\n  revert\n    /* \"#utility.yul\":817:934   */\ntag_16:\n    /* \"#utility.yul\":926:927   */\n  0x00\n    /* \"#utility.yul\":923:924   */\n  dup1\n    /* \"#utility.yul\":916:928   */\n  revert\n    /* \"#utility.yul\":940:1042   */\ntag_17:\n    /* \"#utility.yul\":981:987   */\n  0x00\n    /* \"#utility.yul\":1032:1034   */\n  0x1f\n    /* \"#utility.yul\":1028:1035   */\n  not\n    /* \"#utility.yul\":1023:1025   */\n  0x1f\n    /* \"#utility.yul\":1016:1021   */\n  dup4\n    /* \"#utility.yul\":1012:1026   */\n  add\n    /* \"#utility.yul\":1008:1036   */\n  and\n    /* \"#utility.yul\":998:1036   */\n  swap1\n  pop\n    /* \"#utility.yul\":940:1042   */\n  swap2\n  swap1\n  pop\n  jump\t// out\n    /* \"#utility.yul\":1048:1228   */\ntag_18:\n    /* \"#utility.yul\":1096:1173   */\n  0x4e487b7100000000000000000000000000000000000000000000000000000000\n    /* \"#utility.yul\":1093:1094   */\n  0x00\n    /* \"#utility.yul\":1086:1174   */\n  mstore\n    /* \"#utility.yul\":1193:1197   */\n  0x41\n    /* \"#utility.yul\":1190:1191   */\n  0x04\n    /* \"#utility.yul\":1183:1198   */\n  mstore\n    /* \"#utility.yul\":1217:1221   */\n  0x24\n    /* \"#utility.yul\":1214:1215   */\n  0x00\n    /* \"#utility.yul\":1207:1222   */\n  revert\n    /* \"#utility.yul\":1234:1515   */\ntag_19:\n    /* \"#utility.yul\":1317:1344   */\n  tag_58\n    /* \"#utility.yul\":1339:1343   */\n  dup3\n    /* \"#utility.yul\":1317:1344   */\n  tag_17\n  jump\t// in\ntag_58:\n    /* \"#utility.yul\":1309:1315   */\n  dup2\n    /* \"#utility.yul\":1305:1345   */\n  add\n    /* \"#utility.yul\":1447:1453   */\n  dup2\n    /* \"#utility.yul\":1435:1445   */\n  dup2\n    /* \"#utility.yul\":1432:1454   */\n  lt\n    /* \"#utility.yul\":1411:1429   */\n  0xffffffffffffffff\n    /* \"#utility.yul\":1399:1409   */\n  dup3\n    /* \"#utility.yul\":1396:1430   */\n  gt\n    /* \"#utility.yul\":1393:1455   */\n  or\n    /* \"#utility.yul\":1390:1478   */\n  iszero\n  tag_59\n  jumpi\n    /* \"#utility.yul\":1458:1476   */\n  tag_60\n  tag_18\n  jump\t// in\ntag_60:\n    /* \"#utility.yul\":1390:1478   */\ntag_59:\n    /* \"#utility.yul\":1498:1508   */\n  dup1\n    /* \"#utility.yul\":1494:1496   */\n  0x40\n    /* \"#utility.yul\":1487:1509   */\n  mstore\n    /* \"#utility.yul\":1277:1515   */\n  pop\n    /* \"#utility.yul\":1234:1515   */\n  pop\n  pop\n  jump\t// out\n    /* \"#utility.yul\":1521:1650   */\ntag_20:\n    /* \"#utility.yul\":1555:1561   */\n  0x00\n    /* \"#utility.yul\":1582:1602   */\n  tag_62\n  tag_9\n  jump\t// in\ntag_62:\n    /* \"#utility.yul\":1572:1602   */\n  swap1\n  pop\n    /* \"#utility.yul\":1611:1644   */\n  tag_63\n    /* \"#utility.yul\":1639:1643   */\n  dup3\n    /* \"#utility.yul\":1631:1637   */\n  dup3\n    /* \"#utility.yul\":1611:1644   */\n  tag_19\n  jump\t// in\ntag_63:\n    /* \"#utility.yul\":1521:1650   */\n  swap2\n  swap1\n  pop\n  jump\t// out\n    /* \"#utility.yul\":1656:1964   */\ntag_21:\n    /* \"#utility.yul\":1718:1722   */\n  0x00\n    /* \"#utility.yul\":1808:1826   */\n  0xffffffffffffffff\n    /* \"#utility.yul\":1800:1806   */\n  dup3\n    /* \"#utility.yul\":1797:1827   */\n  gt\n    /* \"#utility.yul\":1794:1850   */\n  iszero\n  tag_65\n  jumpi\n    /* \"#utility.yul\":1830:1848   */\n  tag_66\n  tag_18\n  jump\t// in\ntag_66:\n    /* \"#utility.yul\":1794:1850   */\ntag_65:\n    /* \"#utility.yul\":1868:1897   */\n  tag_67\n    /* \"#utility.yul\":1890:1896   */\n  dup3\n    /* \"#utility.yul\":1868:1897   */\n  tag_17\n  jump\t// in\ntag_67:\n    /* \"#utility.yul\":1860:1897   */\n  swap1\n  pop\n    /* \"#utility.yul\":1952:1956   */\n  0x20\n    /* \"#utility.yul\":1946:1950   */\n  dup2\n    /* \"#utility.yul\":1942:1957   */\n  add\n    /* \"#utility.yul\":1934:1957   */\n  swap1\n  pop\n    /* \"#utility.yul\":1656:1964   */\n  swap2\n  swap1\n  pop\n  jump\t// out\n    /* \"#utility.yul\":1970:2109   */\ntag_22:\n    /* \"#utility.yul\":2059:2065   */\n  dup3\n    /* \"#utility.yul\":2054:2057   */\n  dup2\n    /* \"#utility.yul\":2049:2052   */\n  dup4\n    /* \"#utility.yul\":2043:2066   */\n  mcopy\n    /* \"#utility.yul\":2100:2101   */\n  0x00\n    /* \"#utility.yul\":2091:2097   */\n  dup4\n    /* \"#utility.yul\":2086:2089   */\n  dup4\n    /* \"#utility.yul\":2082:2098   */\n  add\n    /* \"#utility.yul\":2075:2102   */\n  mstore\n    /* \"#utility.yul\":1970:2109   */\n  pop\n  pop\n  pop\n  jump\t// out\n    /* \"#utility.yul\":2115:2549   */\ntag_23:\n    /* \"#utility.yul\":2204:2209   */\n  0x00\n    /* \"#utility.yul\":2229:2295   */\n  tag_70\n    /* \"#utility.yul\":2245:2294   */\n  tag_71\n    /* \"#utility.yul\":2287:2293   */\n  dup5\n    /* \"#utility.yul\":2245:2294   */\n  tag_21\n  jump\t// in\ntag_71:\n    /* \"#utility.yul\":2229:2295   */\n  tag_20\n  jump\t// in\ntag_70:\n    /* \"#utility.yul\":2220:2295   */\n  swap1\n  pop\n    /* \"#utility.yul\":2318:2324   */\n  dup3\n    /* \"#utility.yul\":2311:2316   */\n  dup2\n    /* \"#utility.yul\":2304:2325   */\n  mstore\n    /* \"#utility.yul\":2356:2360   */\n  0x20\n    /* \"#utility.yul\":2349:2354   */\n  dup2\n    /* \"#utility.yul\":2345:2361   */\n  add\n    /* \"#utility.yul\":2394:2397   */\n  dup5\n    /* \"#utility.yul\":2385:2391   */\n  dup5\n    /* \"#utility.yul\":2380:2383   */\n  dup5\n    /* \"#utility.yul\":2376:2392   */\n  add\n    /* \"#utility.yul\":2373:2398   */\n  gt\n    /* \"#utility.yul\":2370:2482   */\n  iszero\n  tag_72\n  jumpi\n    /* \"#utility.yul\":2401:2480   */\n  tag_73\n  tag_16\n  jump\t// in\ntag_73:\n    /* \"#utility.yul\":2370:2482   */\ntag_72:\n    /* \"#utility.yul\":2491:2543   */\n  tag_74\n    /* \"#utility.yul\":2536:2542   */\n  dup5\n    /* \"#utility.yul\":2531:2534   */\n  dup3\n    /* \"#utility.yul\":2526:2529   */\n  dup6\n    /* \"#utility.yul\":2491:2543   */\n  tag_22\n  jump\t// in\ntag_74:\n    /* \"#utility.yul\":2210:2549   */\n  pop\n    /* \"#utility.yul\":2115:2549   */\n  swap4\n  swap3\n  pop\n  pop\n  pop\n  jump\t// out\n    /* \"#utility.yul\":2569:2924   */\ntag_24:\n    /* \"#utility.yul\":2636:2641   */\n  0x00\n    /* \"#utility.yul\":2685:2688   */\n  dup3\n    /* \"#utility.yul\":2678:2682   */\n  0x1f\n    /* \"#utility.yul\":2670:2676   */\n  dup4\n    /* \"#utility.yul\":2666:2683   */\n  add\n    /* \"#utility.yul\":2662:2689   */\n  slt\n    /* \"#utility.yul\":2652:2774   */\n  tag_76\n  jumpi\n    /* \"#utility.yul\":2693:2772   */\n  tag_77\n  tag_15\n  jump\t// in\ntag_77:\n    /* \"#utility.yul\":2652:2774   */\ntag_76:\n    /* \"#utility.yul\":2803:2809   */\n  dup2\n    /* \"#utility.yul\":2797:2810   */\n  mload\n    /* \"#utility.yul\":2828:2918   */\n  tag_78\n    /* \"#utility.yul\":2914:2917   */\n  dup5\n    /* \"#utility.yul\":2906:2912   */\n  dup3\n    /* \"#utility.yul\":2899:2903   */\n  0x20\n    /* \"#utility.yul\":2891:2897   */\n  dup7\n    /* \"#utility.yul\":2887:2904   */\n  add\n    /* \"#utility.yul\":2828:2918   */\n  tag_23\n  jump\t// in\ntag_78:\n    /* \"#utility.yul\":2819:2918   */\n  swap2\n  pop\n    /* \"#utility.yul\":2642:2924   */\n  pop\n    /* \"#utility.yul\":2569:2924   */\n  swap3\n  swap2\n  pop\n  pop\n  jump\t// out\n    /* \"#utility.yul\":2930:3610   */\ntag_3:\n    /* \"#utility.yul\":3019:3025   */\n  0x00\n    /* \"#utility.yul\":3027:3033   */\n  dup1\n    /* \"#utility.yul\":3076:3078   */\n  0x40\n    /* \"#utility.yul\":3064:3073   */\n  dup4\n    /* \"#utility.yul\":3055:3062   */\n  dup6\n    /* \"#utility.yul\":3051:3074   */\n  sub\n    /* \"#utility.yul\":3047:3079   */\n  slt\n    /* \"#utility.yul\":3044:3163   */\n  iszero\n  tag_80\n  jumpi\n    /* \"#utility.yul\":3082:3161   */\n  tag_81\n  tag_10\n  jump\t// in\ntag_81:\n    /* \"#utility.yul\":3044:3163   */\ntag_80:\n    /* \"#utility.yul\":3202:3203   */\n  0x00\n    /* \"#utility.yul\":3227:3291   */\n  tag_82\n    /* \"#utility.yul\":3283:3290   */\n  dup6\n    /* \"#utility.yul\":3274:3280   */\n  dup3\n    /* \"#utility.yul\":3263:3272   */\n  dup7\n    /* \"#utility.yul\":3259:3281   */\n  add\n    /* \"#utility.yul\":3227:3291   */\n  tag_14\n  jump\t// in\ntag_82:\n    /* \"#utility.yul\":3217:3291   */\n  swap3\n  pop\n    /* \"#utility.yul\":3173:3301   */\n  pop\n    /* \"#utility.yul\":3361:3363   */\n  0x20\n    /* \"#utility.yul\":3350:3359   */\n  dup4\n    /* \"#utility.yul\":3346:3364   */\n  add\n    /* \"#utility.yul\":3340:3365   */\n  mload\n    /* \"#utility.yul\":3392:3410   */\n  0xffffffffffffffff\n    /* \"#utility.yul\":3384:3390   */\n  dup2\n    /* \"#utility.yul\":3381:3411   */\n  gt\n    /* \"#utility.yul\":3378:3495   */\n  iszero\n  tag_83\n  jumpi\n    /* \"#utility.yul\":3414:3493   */\n  tag_84\n  tag_11\n  jump\t// in\ntag_84:\n    /* \"#utility.yul\":3378:3495   */\ntag_83:\n    /* \"#utility.yul\":3519:3593   */\n  tag_85\n    /* \"#utility.yul\":3585:3592   */\n  dup6\n    /* \"#utility.yul\":3576:3582   */\n  dup3\n    /* \"#utility.yul\":3565:3574   */\n  dup7\n    /* \"#utility.yul\":3561:3583   */\n  add\n    /* \"#utility.yul\":3519:3593   */\n  tag_24\n  jump\t// in\ntag_85:\n    /* \"#utility.yul\":3509:3593   */\n  swap2\n  pop\n    /* \"#utility.yul\":3311:3603   */\n  pop\n    /* \"#utility.yul\":2930:3610   */\n  swap3\n  pop\n  swap3\n  swap1\n  pop\n  jump\t// out\n    /* \"#utility.yul\":3616:3715   */\ntag_25:\n    /* \"#utility.yul\":3668:3674   */\n  0x00\n    /* \"#utility.yul\":3702:3707   */\n  dup2\n    /* \"#utility.yul\":3696:3708   */\n  mload\n    /* \"#utility.yul\":3686:3708   */\n  swap1\n  pop\n    /* \"#utility.yul\":3616:3715   */\n  swap2\n  swap1\n  pop\n  jump\t// out\n    /* \"#utility.yul\":3721:3901   */\ntag_26:\n    /* \"#utility.yul\":3769:3846   */\n  0x4e487b7100000000000000000000000000000000000000000000000000000000\n    /* \"#utility.yul\":3766:3767   */\n  0x00\n    /* \"#utility.yul\":3759:3847   */\n  mstore\n    /* \"#utility.yul\":3866:3870   */\n  0x22\n    /* \"#utility.yul\":3863:3864   */\n  0x04\n    /* \"#utility.yul\":3856:3871   */\n  mstore\n    /* \"#utility.yul\":3890:3894   */\n  0x24\n    /* \"#utility.yul\":3887:3888   */\n  0x00\n    /* \"#utility.yul\":3880:3895   */\n  revert\n    /* \"#utility.yul\":3907:4227   */\ntag_27:\n    /* \"#utility.yul\":3951:3957   */\n  0x00\n    /* \"#utility.yul\":3988:3989   */\n  0x02\n    /* \"#utility.yul\":3982:3986   */\n  dup3\n    /* \"#utility.yul\":3978:3990   */\n  div\n    /* \"#utility.yul\":3968:3990   */\n  swap1\n  pop\n    /* \"#utility.yul\":4035:4036   */\n  0x01\n    /* \"#utility.yul\":4029:4033   */\n  dup3\n    /* \"#utility.yul\":4025:4037   */\n  and\n    /* \"#utility.yul\":4056:4074   */\n  dup1\n    /* \"#utility.yul\":4046:4127   */\n  tag_89\n  jumpi\n    /* \"#utility.yul\":4112:4116   */\n  0x7f\n    /* \"#utility.yul\":4104:4110   */\n  dup3\n    /* \"#utility.yul\":4100:4117   */\n  and\n    /* \"#utility.yul\":4090:4117   */\n  swap2\n  pop\n    /* \"#utility.yul\":4046:4127   */\ntag_89:\n    /* \"#utility.yul\":4174:4176   */\n  0x20\n    /* \"#utility.yul\":4166:4172   */\n  dup3\n    /* \"#utility.yul\":4163:4177   */\n  lt\n    /* \"#utility.yul\":4143:4161   */\n  dup2\n    /* \"#utility.yul\":4140:4178   */\n  sub\n    /* \"#utility.yul\":4137:4221   */\n  tag_90\n  jumpi\n    /* \"#utility.yul\":4193:4211   */\n  tag_91\n  tag_26\n  jump\t// in\ntag_91:\n    /* \"#utility.yul\":4137:4221   */\ntag_90:\n    /* \"#utility.yul\":3958:4227   */\n  pop\n    /* \"#utility.yul\":3907:4227   */\n  swap2\n  swap1\n  pop\n  jump\t// out\n    /* \"#utility.yul\":4233:4374   */\ntag_28:\n    /* \"#utility.yul\":4282:4286   */\n  0x00\n    /* \"#utility.yul\":4305:4308   */\n  dup2\n    /* \"#utility.yul\":4297:4308   */\n  swap1\n  pop\n    /* \"#utility.yul\":4328:4331   */\n  dup2\n    /* \"#utility.yul\":4325:4326   */\n  0x00\n    /* \"#utility.yul\":4318:4332   */\n  mstore\n    /* \"#utility.yul\":4362:4366   */\n  0x20\n    /* \"#utility.yul\":4359:4360   */\n  0x00\n    /* \"#utility.yul\":4349:4367   */\n  keccak256\n    /* \"#utility.yul\":4341:4367   */\n  swap1\n  pop\n    /* \"#utility.yul\":4233:4374   */\n  swap2\n  swap1\n  pop\n  jump\t// out\n    /* \"#utility.yul\":4380:4473   */\ntag_29:\n    /* \"#utility.yul\":4417:4423   */\n  0x00\n    /* \"#utility.yul\":4464:4466   */\n  0x20\n    /* \"#utility.yul\":4459:4461   */\n  0x1f\n    /* \"#utility.yul\":4452:4457   */\n  dup4\n    /* \"#utility.yul\":4448:4462   */\n  add\n    /* \"#utility.yul\":4444:4467   */\n  div\n    /* \"#utility.yul\":4434:4467   */\n  swap1\n  pop\n    /* \"#utility.yul\":4380:4473   */\n  swap2\n  swap1\n  pop\n  jump\t// out\n    /* \"#utility.yul\":4479:4586   */\ntag_30:\n    /* \"#utility.yul\":4523:4531   */\n  0x00\n    /* \"#utility.yul\":4573:4578   */\n  dup3\n    /* \"#utility.yul\":4567:4571   */\n  dup3\n    /* \"#utility.yul\":4563:4579   */\n  shl\n    /* \"#utility.yul\":4542:4579   */\n  swap1\n  pop\n    /* \"#utility.yul\":4479:4586   */\n  swap3\n  swap2\n  pop\n  pop\n  jump\t// out\n    /* \"#utility.yul\":4592:4985   */\ntag_31:\n    /* \"#utility.yul\":4661:4667   */\n  0x00\n    /* \"#utility.yul\":4711:4712   */\n  0x08\n    /* \"#utility.yul\":4699:4709   */\n  dup4\n    /* \"#utility.yul\":4695:4713   */\n  mul\n    /* \"#utility.yul\":4734:4831   */\n  tag_96\n    /* \"#utility.yul\":4764:4830   */\n  0xffffffffffffffffffffffffffffffffffffffffffffffffffffffffffffffff\n    /* \"#utility.yul\":4753:4762   */\n  dup3\n    /* \"#utility.yul\":4734:4831   */\n  tag_30\n  jump\t// in\ntag_96:\n    /* \"#utility.yul\":4852:4891   */\n  tag_97\n    /* \"#utility.yul\":4882:4890   */\n  dup7\n    /* \"#utility.yul\":4871:4880   */\n  dup4\n    /* \"#utility.yul\":4852:4891   */\n  tag_30\n  jump\t// in\ntag_97:\n    /* \"#utility.yul\":4840:4891   */\n  swap6\n  pop\n    /* \"#utility.yul\":4924:4928   */\n  dup1\n    /* \"#utility.yul\":4920:4929   */\n  not\n    /* \"#utility.yul\":4913:4918   */\n  dup5\n    /* \"#utility.yul\":4909:4930   */\n  and\n    /* \"#utility.yul\":4900:4930   */\n  swap4\n  pop\n    /* \"#utility.yul\":4973:4977   */\n  dup1\n    /* \"#utility.yul\":4963:4971   */\n  dup7\n    /* \"#utility.yul\":4959:4978   */\n  and\n    /* \"#utility.yul\":4952:4957   */\n  dup5\n    /* \"#utility.yul\":4949:4979   */\n  or\n    /* \"#utility.yul\":4939:4979   */\n  swap3\n  pop\n    /* \"#utility.yul\":4668:4985   */\n  pop\n  pop\n    /* \"#utility.yul\":4592:4985   */\n  swap4\n  swap3\n  pop\n  pop\n  pop\n  jump\t// out\n    /* \"#utility.yul\":4991:5051   */\ntag_32:\n    /* \"#utility.yul\":5019:5022   */\n  0x00\n    /* \"#utility.yul\":5040:5045   */\n  dup2\n    /* \"#utility.yul\":5033:5045   */\n  swap1\n  pop\n    /* \"#utility.yul\":4991:5051   */\n  swap2\n  swap1\n  pop\n  jump\t// out\n    /* \"#utility.yul\":5057:5199   */\ntag_33:\n    /* \"#utility.yul\":5107:5116   */\n  0x00\n    /* \"#utility.yul\":5140:5193   */\n  tag_100\n    /* \"#utility.yul\":5158:5192   */\n  tag_101\n    /* \"#utility.yul\":5167:5191   */\n  tag_102\n    /* \"#utility.yul\":5185:5190   */\n  dup5\n    /* \"#utility.yul\":5167:5191   */\n  tag_12\n  jump\t// in\ntag_102:\n    /* \"#utility.yul\":5158:5192   */\n  tag_32\n  jump\t// in\ntag_101:\n    /* \"#utility.yul\":5140:5193   */\n  tag_12\n  jump\t// in\ntag_100:\n    /* \"#utility.yul\":5127:5193   */\n  swap1\n  pop\n    /* \"#utility.yul\":5057:5199   */\n  swap2\n  swap1\n  pop\n  jump\t// out\n    /* \"#utility.yul\":5205:5280   */\ntag_34:\n    /* \"#utility.yul\":5248:5251   */\n  0x00\n    /* \"#utility.yul\":5269:5274   */\n  dup2\n    /* \"#utility.yul\":5262:5274   */\n  swap1\n  pop\n    /* \"#utility.yul\":5205:5280   */\n  swap2\n  swap1\n  pop\n  jump\t// out\n    /* \"#utility.yul\":5286:5555   */\ntag_35:\n    /* \"#utility.yul\":5396:5435   */\n  tag_105\n    /* \"#utility.yul\":5427:5434   */\n  dup4\n    /* \"#utility.yul\":5396:5435   */\n  tag_33\n  jump\t// in\ntag_105:\n    /* \"#utility.yul\":5457:5548   */\n  tag_106\n    /* \"#utility.yul\":5506:5547   */\n  tag_107\n    /* \"#utility.yul\":5530:5546   */\n  dup3\n    /* \"#utility.yul\":5506:5547   */\n  tag_34\n  jump\t// in\ntag_107:\n    /* \"#utility.yul\":5498:5504   */\n  dup5\n    /* \"#utility.yul\":5491:5495   */\n  dup5\n    /* \"#utility.yul\":5485:5496   */\n  sload\n    /* \"#utility.yul\":5457:5548   */\n  tag_31\n  jump\t// in\ntag_106:\n    /* \"#utility.yul\":5451:5455   */\n  dup3\n    /* \"#utility.yul\":5444:5549   */\n  sstore\n    /* \"#utility.yul\":5362:5555   */\n  pop\n    /* \"#utility.yul\":5286:5555   */\n  pop\n  pop\n  pop\n  jump\t// out\n    /* \"#utility.yul\":5561:5634   */\ntag_36:\n    /* \"#utility.yul\":5606:5609   */\n  0x00\n    /* \"#utility.yul\":5561:5634   */\n  swap1\n  jump\t// out\n    /* \"#utility.yul\":5640:5829   */\ntag_37:\n    /* \"#utility.yul\":5717:5749   */\n  tag_110\n  tag_36\n  jump\t// in\ntag_110:\n    /* \"#utility.yul\":5758:5823   */\n  tag_111\n    /* \"#utility.yul\":5816:5822   */\n  dup2\n    /* \"#utility.yul\":5808:5814   */\n  dup5\n    /* \"#utility.yul\":5802:5806   */\n  dup5\n    /* \"#utility.yul\":5758:5823   */\n  tag_35\n  jump\t// in\ntag_111:\n    /* \"#utility.yul\":5693:5829   */\n  pop\n    /* \"#utility.yul\":5640:5829   */\n  pop\n  pop\n  jump\t// out\n    /* \"#utility.yul\":5835:6021   */\ntag_38:\n    /* \"#utility.yul\":5895:6015   */\ntag_113:\n    /* \"#utility.yul\":5912:5915   */\n  dup2\n    /* \"#utility.yul\":5905:5910   */\n  dup2\n    /* \"#utility.yul\":5902:5916   */\n  lt\n    /* \"#utility.yul\":5895:6015   */\n  iszero\n  tag_115\n  jumpi\n    /* \"#utility.yul\":5966:6005   */\n  tag_116\n    /* \"#utility.yul\":6003:6004   */\n  0x00\n    /* \"#utility.yul\":5996:6001   */\n  dup3\n    /* \"#utility.yul\":5966:6005   */\n  tag_37\n  jump\t// in\ntag_116:\n    /* \"#utility.yul\":5939:5940   */\n  0x01\n    /* \"#utility.yul\":5932:5937   */\n  dup2\n    /* \"#utility.yul\":5928:5941   */\n  add\n    /* \"#utility.yul\":5919:5941   */\n  swap1\n  pop\n    /* \"#utility.yul\":5895:6015   */\n  jump(tag_113)\ntag_115:\n    /* \"#utility.yul\":5835:6021   */\n  pop\n  pop\n  jump\t// out\n    /* \"#utility.yul\":6027:6570   */\ntag_39:\n    /* \"#utility.yul\":6128:6130   */\n  0x1f\n    /* \"#utility.yul\":6123:6126   */\n  dup3\n    /* \"#utility.yul\":6120:6131   */\n  gt\n    /* \"#utility.yul\":6117:6563   */\n  iszero\n  tag_118\n  jumpi\n    /* \"#utility.yul\":6162:6200   */\n  tag_119\n    /* \"#utility.yul\":6194:6199   */\n  dup2\n    /* \"#utility.yul\":6162:6200   */\n  tag_28\n  jump\t// in\ntag_119:\n    /* \"#utility.yul\":6246:6275   */\n  tag_120\n    /* \"#utility.yul\":6264:6274   */\n  dup5\n    /* \"#utility.yul\":6246:6275   */\n  tag_29\n  jump\t// in\ntag_120:\n    /* \"#utility.yul\":6236:6244   */\n  dup2\n    /* \"#utility.yul\":6232:6276   */\n  add\n    /* \"#utility.yul\":6429:6431   */\n  0x20\n    /* \"#utility.yul\":6417:6427   */\n  dup6\n    /* \"#utility.yul\":6414:6432   */\n  lt\n    /* \"#utility.yul\":6411:6460   */\n  iszero\n  tag_121\n  jumpi\n    /* \"#utility.yul\":6450:6458   */\n  dup2\n    /* \"#utility.yul\":6435:6458   */\n  swap1\n  pop\n    /* \"#utility.yul\":6411:6460   */\ntag_121:\n    /* \"#utility.yul\":6473:6553   */\n  tag_122\n    /* \"#utility.yul\":6529:6551   */\n  tag_123\n    /* \"#utility.yul\":6547:6550   */\n  dup6\n    /* \"#utility.yul\":6529:6551   */\n  tag_29\n  jump\t// in\ntag_123:\n    /* \"#utility.yul\":6519:6527   */\n  dup4\n    /* \"#utility.yul\":6515:6552   */\n  add\n    /* \"#utility.yul\":6502:6513   */\n  dup3\n    /* \"#utility.yul\":6473:6553   */\n  tag_38\n  jump\t// in\ntag_122:\n    /* \"#utility.yul\":6132:6563   */\n  pop\n  pop\n    /* \"#utility.yul\":6117:6563   */\ntag_118:\n    /* \"#utility.yul\":6027:6570   */\n  pop\n  pop\n  pop\n  jump\t// out\n    /* \"#utility.yul\":6576:6693   */\ntag_40:\n    /* \"#utility.yul\":6630:6638   */\n  0x00\n    /* \"#utility.yul\":6680:6685   */\n  dup3\n    /* \"#utility.yul\":6674:6678   */\n  dup3\n    /* \"#utility.yul\":6670:6686   */\n  shr\n    /* \"#utility.yul\":6649:6686   */\n  swap1\n  pop\n    /* \"#utility.yul\":6576:6693   */\n  swap3\n  swap2\n  pop\n  pop\n  jump\t// out\n    /* \"#utility.yul\":6699:6868   */\ntag_41:\n    /* \"#utility.yul\":6743:6749   */\n  0x00\n    /* \"#utility.yul\":6776:6827   */\n  tag_126\n    /* \"#utility.yul\":6824:6825   */\n  0x00\n    /* \"#utility.yul\":6820:6826   */\n  not\n    /* \"#utility.yul\":6812:6817   */\n  dup5\n    /* \"#utility.yul\":6809:6810   */\n  0x08\n    /* \"#utility.yul\":6805:6818   */\n  mul\n    /* \"#utility.yul\":6776:6827   */\n  tag_40\n  jump\t// in\ntag_126:\n    /* \"#utility.yul\":6772:6828   */\n  not\n    /* \"#utility.yul\":6857:6861   */\n  dup1\n    /* \"#utility.yul\":6851:6855   */\n  dup4\n    /* \"#utility.yul\":6847:6862   */\n  and\n    /* \"#utility.yul\":6837:6862   */\n  swap2\n  pop\n    /* \"#utility.yul\":6750:6868   */\n  pop\n    /* \"#utility.yul\":6699:6868   */\n  swap3\n  swap2\n  pop\n  pop\n  jump\t// out\n    /* \"#utility.yul\":6873:7168   */\ntag_42:\n    /* \"#utility.yul\":6949:6953   */\n  0x00\n    /* \"#utility.yul\":7095:7124   */\n  tag_128\n    /* \"#utility.yul\":7120:7123   */\n  dup4\n    /* \"#utility.yul\":7114:7118   */\n  dup4\n    /* \"#utility.yul\":7095:7124   */\n  tag_41\n  jump\t// in\ntag_128:\n    /* \"#utility.yul\":7087:7124   */\n  swap2\n  pop\n    /* \"#utility.yul\":7157:7160   */\n  dup3\n    /* \"#utility.yul\":7154:7155   */\n  0x02\n    /* \"#utility.yul\":7150:7161   */\n  mul\n    /* \"#utility.yul\":7144:7148   */\n  dup3\n    /* \"#utility.yul\":7141:7162   */\n  or\n    /* \"#utility.yul\":7133:7162   */\n  swap1\n  pop\n    /* \"#utility.yul\":6873:7168   */\n  swap3\n  swap2\n  pop\n  pop\n  jump\t// out\n    /* \"#utility.yul\":7173:8568   */\ntag_7:\n    /* \"#utility.yul\":7290:7327   */\n  tag_130\n    /* \"#utility.yul\":7323:7326   */\n  dup3\n    /* \"#utility.yul\":7290:7327   */\n  tag_25\n  jump\t// in\ntag_130:\n    /* \"#utility.yul\":7392:7410   */\n  0xffffffffffffffff\n    /* \"#utility.yul\":7384:7390   */\n  dup2\n    /* \"#utility.yul\":7381:7411   */\n  gt\n    /* \"#utility.yul\":7378:7434   */\n  iszero\n  tag_131\n  jumpi\n    /* \"#utility.yul\":7414:7432   */\n  tag_132\n  tag_18\n  jump\t// in\ntag_132:\n    /* \"#utility.yul\":7378:7434   */\ntag_131:\n    /* \"#utility.yul\":7458:7496   */\n  tag_133\n    /* \"#utility.yul\":7490:7494   */\n  dup3\n    /* \"#utility.yul\":7484:7495   */\n  sload\n    /* \"#utility.yul\":7458:7496   */\n  tag_27\n  jump\t// in\ntag_133:\n    /* \"#utility.yul\":7543:7610   */\n  tag_134\n    /* \"#utility.yul\":7603:7609   */\n  dup3\n    /* \"#utility.yul\":7595:7601   */\n  dup3\n    /* \"#utility.yul\":7589:7593   */\n  dup6\n    /* \"#utility.yul\":7543:7610   */\n  tag_39\n  jump\t// in\ntag_134:\n    /* \"#utility.yul\":7637:7638   */\n  0x00\n    /* \"#utility.yul\":7661:7665   */\n  0x20\n    /* \"#utility.yul\":7648:7665   */\n  swap1\n  pop\n    /* \"#utility.yul\":7693:7695   */\n  0x1f\n    /* \"#utility.yul\":7685:7691   */\n  dup4\n    /* \"#utility.yul\":7682:7696   */\n  gt\n    /* \"#utility.yul\":7710:7711   */\n  0x01\n    /* \"#utility.yul\":7705:8323   */\n  dup2\n  eq\n  tag_136\n  jumpi\n    /* \"#utility.yul\":8367:8368   */\n  0x00\n    /* \"#utility.yul\":8384:8390   */\n  dup5\n    /* \"#utility.yul\":8381:8458   */\n  iszero\n  tag_137\n  jumpi\n    /* \"#utility.yul\":8433:8442   */\n  dup3\n    /* \"#utility.yul\":8428:8431   */\n  dup8\n    /* \"#utility.yul\":8424:8443   */\n  add\n    /* \"#utility.yul\":8418:8444   */\n  mload\n    /* \"#utility.yul\":8409:8444   */\n  swap1\n  pop\n    /* \"#utility.yul\":8381:8458   */\ntag_137:\n    /* \"#utility.yul\":8484:8551   */\n  tag_138\n    /* \"#utility.yul\":8544:8550   */\n  dup6\n    /* \"#utility.yul\":8537:8542   */\n  dup3\n    /* \"#utility.yul\":8484:8551   */\n  tag_42\n  jump\t// in\ntag_138:\n    /* \"#utility.yul\":8478:8482   */\n  dup7\n    /* \"#utility.yul\":8471:8552   */\n  sstore\n    /* \"#utility.yul\":8340:8562   */\n  pop\n    /* \"#utility.yul\":7675:8562   */\n  jump(tag_135)\n    /* \"#utility.yul\":7705:8323   */\ntag_136:\n    /* \"#utility.yul\":7757:7761   */\n  0x1f\n    /* \"#utility.yul\":7753:7762   */\n  not\n    /* \"#utility.yul\":7745:7751   */\n  dup5\n    /* \"#utility.yul\":7741:7763   */\n  and\n    /* \"#utility.yul\":7791:7828   */\n  tag_139\n    /* \"#utility.yul\":7823:7827   */\n  dup7\n    /* \"#utility.yul\":7791:7828   */\n  tag_28\n  jump\t// in\ntag_139:\n    /* \"#utility.yul\":7850:7851   */\n  0x00\n    /* \"#utility.yul\":7864:8072   */\ntag_140:\n    /* \"#utility.yul\":7878:7885   */\n  dup3\n    /* \"#utility.yul\":7875:7876   */\n  dup2\n    /* \"#utility.yul\":7872:7886   */\n  lt\n    /* \"#utility.yul\":7864:8072   */\n  iszero\n  tag_142\n  jumpi\n    /* \"#utility.yul\":7957:7966   */\n  dup5\n    /* \"#utility.yul\":7952:7955   */\n  dup10\n    /* \"#utility.yul\":7948:7967   */\n  add\n    /* \"#utility.yul\":7942:7968   */\n  mload\n    /* \"#utility.yul\":7934:7940   */\n  dup3\n    /* \"#utility.yul\":7927:7969   */\n  sstore\n    /* \"#utility.yul\":8008:8009   */\n  0x01\n    /* \"#utility.yul\":8000:8006   */\n  dup3\n    /* \"#utility.yul\":7996:8010   */\n  add\n    /* \"#utility.yul\":7986:8010   */\n  swap2\n  pop\n    /* \"#utility.yul\":8055:8057   */\n  0x20\n    /* \"#utility.yul\":8044:8053   */\n  dup6\n    /* \"#utility.yul\":8040:8058   */\n  add\n    /* \"#utility.yul\":8027:8058   */\n  swap5\n  pop\n    /* \"#utility.yul\":7901:7905   */\n  0x20\n    /* \"#utility.yul\":7898:7899   */\n  dup2\n    /* \"#utility.yul\":7894:7906   */\n  add\n    /* \"#utility.yul\":7889:7906   */\n  swap1\n  pop\n    /* \"#utility.yul\":7864:8072   */\n  jump(tag_140)\ntag_142:\n    /* \"#utility.yul\":8100:8106   */\n  dup7\n    /* \"#utility.yul\":8091:8098   */\n  dup4\n    /* \"#utility.yul\":8088:8107   */\n  lt\n    /* \"#utility.yul\":8085:8264   */\n  iszero\n  tag_143\n  jumpi\n    /* \"#utility.yul\":8158:8167   */\n  dup5\n    /* \"#utility.yul\":8153:8156   */\n  dup10\n    /* \"#utility.yul\":8149:8168   */\n  add\n    /* \"#utility.yul\":8143:8169   */\n  mload\n    /* \"#utility.yul\":8201:8249   */\n  tag_144\n    /* \"#utility.yul\":8243:8247   */\n  0x1f\n    /* \"#utility.yul\":8235:8241   */\n  dup10\n    /* \"#utility.yul\":8231:8248   */\n  and\n    /* \"#utility.yul\":8220:8229   */\n  dup3\n    /* \"#utility.yul\":8201:8249   */\n  tag_41\n  jump\t// in\ntag_144:\n    /* \"#utility.yul\":8193:8199   */\n  dup4\n    /* \"#utility.yul\":8186:8250   */\n  sstore\n    /* \"#utility.yul\":8108:8264   */\n  pop\n    /* \"#utility.yul\":8085:8264   */\ntag_143:\n    /* \"#utility.yul\":8310:8311   */\n  0x01\n    /* \"#utility.yul\":8306:8307   */\n  0x02\n    /* \"#utility.yul\":8298:8304   */\n  dup9\n    /* \"#utility.yul\":8294:8308   */\n  mul\n    /* \"#utility.yul\":8290:8312   */\n  add\n    /* \"#utility.yul\":8284:8288   */\n  dup9\n    /* \"#utility.yul\":8277:8313   */\n  sstore\n    /* \"#utility.yul\":7712:8323   */\n  pop\n  pop\n  pop\n    /* \"#utility.yul\":7675:8562   */\ntag_135:\n  pop\n    /* \"#utility.yul\":7265:8568   */\n  pop\n  pop\n  pop\n    /* \"#utility.yul\":7173:8568   */\n  pop\n  pop\n  jump\t// out\n    /* \"struc.sol\":123:487  contract demo... */\ntag_8:\n  dataSize(sub_0)\n  dup1\n  dataOffset(sub_0)\n  0x00\n  codecopy\n  0x00\n  return\nstop\n\nsub_0: assembly {\n        /* \"struc.sol\":123:487  contract demo... */\n      mstore(0x40, 0x80)\n      callvalue\n      dup1\n      iszero\n      tag_1\n      jumpi\n      0x00\n      dup1\n      revert\n    tag_1:\n      pop\n      jumpi(tag_2, lt(calldatasize, 0x04))\n      shr(0xe0, calldataload(0x00))\n      dup1\n      0x6cc014de\n      eq\n      tag_3\n      jumpi\n      dup1\n      0xc75226ec\n      eq\n      tag_4\n      jumpi\n    tag_2:\n      0x00\n      dup1\n      revert\n        /* \"struc.sol\":145:162  student public s1 */\n    tag_3:\n      tag_5\n      tag_6\n      jump\t// in\n    tag_5:\n      mload(0x40)\n      tag_7\n      swap3\n      swap2\n      swap1\n      tag_8\n      jump\t// in\n    tag_7:\n      mload(0x40)\n      dup1\n      swap2\n      sub\n      swap1\n      return\n        /* \"struc.sol\":281:484  function change(uint _roll, string memory _name) public ... */\n    tag_4:\n      tag_9\n      0x04\n      dup1\n      calldatasize\n      sub\n      dup2\n      add\n      swap1\n      tag_10\n      swap2\n      swap1\n      tag_11\n      jump\t// in\n    tag_10:\n      tag_12\n      jump\t// in\n    tag_9:\n      stop\n        /* \"struc.sol\":145:162  student public s1 */\n    tag_6:\n      0x00\n      dup1\n      0x00\n      add\n      sload\n      swap1\n      dup1\n      0x01\n      add\n      dup1\n      sload\n      tag_13\n      swap1\n      tag_14\n      jump\t// in\n    tag_13:\n      dup1\n      0x1f\n      add\n      0x20\n      dup1\n      swap2\n      div\n      mul\n      0x20\n      add\n      mload(0x40)\n      swap1\n      dup2\n      add\n      0x40\n      mstore\n      dup1\n      swap3\n      swap2\n      swap1\n      dup2\n      dup2\n      mstore\n      0x20\n      add\n      dup3\n      dup1\n      sload\n      tag_15\n      swap1\n      tag_14\n      jump\t// in\n    tag_15:\n      dup1\n      iszero\n      tag_16\n      jumpi\n      dup1\n      0x1f\n      lt\n      tag_17\n      jumpi\n      0x0100\n      dup1\n      dup4\n      sload\n      div\n      mul\n      dup4\n      mstore\n      swap2\n      0x20\n      add\n      swap2\n      jump(tag_16)\n    tag_17:\n      dup3\n      add\n      swap2\n      swap1\n      0x00\n      mstore\n      keccak256(0x00, 0x20)\n      swap1\n    tag_18:\n      dup2\n      sload\n      dup2\n      mstore\n      swap1\n      0x01\n      add\n      swap1\n      0x20\n      add\n      dup1\n      dup4\n      gt\n      tag_18\n      jumpi\n      dup3\n      swap1\n      sub\n      0x1f\n      and\n      dup3\n      add\n      swap2\n    tag_16:\n      pop\n      pop\n      pop\n      pop\n      pop\n      swap1\n      pop\n      dup3\n      jump\t// out\n        /* \"struc.sol\":281:484  function change(uint _roll, string memory _name) public ... */\n    tag_12:\n        /* \"struc.sol\":354:380  student memory new_student */\n      0x00\n        /* \"struc.sol\":381:451  student({... */\n      mload(0x40)\n      dup1\n      0x40\n      add\n      0x40\n      mstore\n      dup1\n        /* \"struc.sol\":409:414  _roll */\n      dup5\n        /* \"struc.sol\":381:451  student({... */\n      dup2\n      mstore\n      0x20\n      add\n        /* \"struc.sol\":434:439  _name */\n      dup4\n        /* \"struc.sol\":381:451  student({... */\n      dup2\n      mstore\n      pop\n        /* \"struc.sol\":354:451  student memory new_student=student({... */\n      swap1\n      pop\n        /* \"struc.sol\":465:476  new_student */\n      dup1\n        /* \"struc.sol\":462:464  s1 */\n      0x00\n        /* \"struc.sol\":462:476  s1=new_student */\n      dup1\n      dup3\n      add\n      mload\n      dup2\n      0x00\n      add\n      sstore\n      0x20\n      dup3\n      add\n      mload\n      dup2\n      0x01\n      add\n      swap1\n      dup2\n      tag_20\n      swap2\n      swap1\n      tag_21\n      jump\t// in\n    tag_20:\n      pop\n      swap1\n      pop\n      pop\n        /* \"struc.sol\":343:484  {... */\n      pop\n        /* \"struc.sol\":281:484  function change(uint _roll, string memory _name) public ... */\n      pop\n      pop\n      jump\t// out\n        /* \"#utility.yul\":7:84   */\n    tag_22:\n        /* \"#utility.yul\":44:51   */\n      0x00\n        /* \"#utility.yul\":73:78   */\n      dup2\n        /* \"#utility.yul\":62:78   */\n      swap1\n      pop\n        /* \"#utility.yul\":7:84   */\n      swap2\n      swap1\n      pop\n      jump\t// out\n        /* \"#utility.yul\":90:208   */\n    tag_23:\n        /* \"#utility.yul\":177:201   */\n      tag_62\n        /* \"#utility.yul\":195:200   */\n      dup2\n        /* \"#utility.yul\":177:201   */\n      tag_22\n      jump\t// in\n    tag_62:\n        /* \"#utility.yul\":172:175   */\n      dup3\n        /* \"#utility.yul\":165:202   */\n      mstore\n        /* \"#utility.yul\":90:208   */\n      pop\n      pop\n      jump\t// out\n        /* \"#utility.yul\":214:313   */\n    tag_24:\n        /* \"#utility.yul\":266:272   */\n      0x00\n        /* \"#utility.yul\":300:305   */\n      dup2\n        /* \"#utility.yul\":294:306   */\n      mload\n        /* \"#utility.yul\":284:306   */\n      swap1\n      pop\n        /* \"#utility.yul\":214:313   */\n      swap2\n      swap1\n      pop\n      jump\t// out\n        /* \"#utility.yul\":319:488   */\n    tag_25:\n        /* \"#utility.yul\":403:414   */\n      0x00\n        /* \"#utility.yul\":437:443   */\n      dup3\n        /* \"#utility.yul\":432:435   */\n      dup3\n        /* \"#utility.yul\":425:444   */\n      mstore\n        /* \"#utility.yul\":477:481   */\n      0x20\n        /* \"#utility.yul\":472:475   */\n      dup3\n        /* \"#utility.yul\":468:482   */\n      add\n        /* \"#utility.yul\":453:482   */\n      swap1\n      pop\n        /* \"#utility.yul\":319:488   */\n      swap3\n      swap2\n      pop\n      pop\n      jump\t// out\n        /* \"#utility.yul\":494:633   */\n    tag_26:\n        /* \"#utility.yul\":583:589   */\n      dup3\n        /* \"#utility.yul\":578:581   */\n      dup2\n        /* \"#utility.yul\":573:576   */\n      dup4\n        /* \"#utility.yul\":567:590   */\n      mcopy\n        /* \"#utility.yul\":624:625   */\n      0x00\n        /* \"#utility.yul\":615:621   */\n      dup4\n        /* \"#utility.yul\":610:613   */\n      dup4\n        /* \"#utility.yul\":606:622   */\n      add\n        /* \"#utility.yul\":599:626   */\n      mstore\n        /* \"#utility.yul\":494:633   */\n      pop\n      pop\n      pop\n      jump\t// out\n        /* \"#utility.yul\":639:741   */\n    tag_27:\n        /* \"#utility.yul\":680:686   */\n      0x00\n        /* \"#utility.yul\":731:733   */\n      0x1f\n        /* \"#utility.yul\":727:734   */\n      not\n        /* \"#utility.yul\":722:724   */\n      0x1f\n        /* \"#utility.yul\":715:720   */\n      dup4\n        /* \"#utility.yul\":711:725   */\n      add\n        /* \"#utility.yul\":707:735   */\n      and\n        /* \"#utility.yul\":697:735   */\n      swap1\n      pop\n        /* \"#utility.yul\":639:741   */\n      swap2\n      swap1\n      pop\n      jump\t// out\n        /* \"#utility.yul\":747:1124   */\n    tag_28:\n        /* \"#utility.yul\":835:838   */\n      0x00\n        /* \"#utility.yul\":863:902   */\n      tag_68\n        /* \"#utility.yul\":896:901   */\n      dup3\n        /* \"#utility.yul\":863:902   */\n      tag_24\n      jump\t// in\n    tag_68:\n        /* \"#utility.yul\":918:989   */\n      tag_69\n        /* \"#utility.yul\":982:988   */\n      dup2\n        /* \"#utility.yul\":977:980   */\n      dup6\n        /* \"#utility.yul\":918:989   */\n      tag_25\n      jump\t// in\n    tag_69:\n        /* \"#utility.yul\":911:989   */\n      swap4\n      pop\n        /* \"#utility.yul\":998:1063   */\n      tag_70\n        /* \"#utility.yul\":1056:1062   */\n      dup2\n        /* \"#utility.yul\":1051:1054   */\n      dup6\n        /* \"#utility.yul\":1044:1048   */\n      0x20\n        /* \"#utility.yul\":1037:1042   */\n      dup7\n        /* \"#utility.yul\":1033:1049   */\n      add\n        /* \"#utility.yul\":998:1063   */\n      tag_26\n      jump\t// in\n    tag_70:\n        /* \"#utility.yul\":1088:1117   */\n      tag_71\n        /* \"#utility.yul\":1110:1116   */\n      dup2\n        /* \"#utility.yul\":1088:1117   */\n      tag_27\n      jump\t// in\n    tag_71:\n        /* \"#utility.yul\":1083:1086   */\n      dup5\n        /* \"#utility.yul\":1079:1118   */\n      add\n        /* \"#utility.yul\":1072:1118   */\n      swap2\n      pop\n        /* \"#utility.yul\":839:1124   */\n      pop\n        /* \"#utility.yul\":747:1124   */\n      swap3\n      swap2\n      pop\n      pop\n      jump\t// out\n        /* \"#utility.yul\":1130:1553   */\n    tag_8:\n        /* \"#utility.yul\":1271:1275   */\n      0x00\n        /* \"#utility.yul\":1309:1311   */\n      0x40\n        /* \"#utility.yul\":1298:1307   */\n      dup3\n        /* \"#utility.yul\":1294:1312   */\n      add\n        /* \"#utility.yul\":1286:1312   */\n      swap1\n      pop\n        /* \"#utility.yul\":1322:1393   */\n      tag_73\n        /* \"#utility.yul\":1390:1391   */\n      0x00\n        /* \"#utility.yul\":1379:1388   */\n      dup4\n        /* \"#utility.yul\":1375:1392   */\n      add\n        /* \"#utility.yul\":1366:1372   */\n      dup6\n        /* \"#utility.yul\":1322:1393   */\n      tag_23\n      jump\t// in\n    tag_73:\n        /* \"#utility.yul\":1440:1449   */\n      dup2\n        /* \"#utility.yul\":1434:1438   */\n      dup2\n        /* \"#utility.yul\":1430:1450   */\n      sub\n        /* \"#utility.yul\":1425:1427   */\n      0x20\n        /* \"#utility.yul\":1414:1423   */\n      dup4\n        /* \"#utility.yul\":1410:1428   */\n      add\n        /* \"#utility.yul\":1403:1451   */\n      mstore\n        /* \"#utility.yul\":1468:1546   */\n      tag_74\n        /* \"#utility.yul\":1541:1545   */\n      dup2\n        /* \"#utility.yul\":1532:1538   */\n      dup5\n        /* \"#utility.yul\":1468:1546   */\n      tag_28\n      jump\t// in\n    tag_74:\n        /* \"#utility.yul\":1460:1546   */\n      swap1\n      pop\n        /* \"#utility.yul\":1130:1553   */\n      swap4\n      swap3\n      pop\n      pop\n      pop\n      jump\t// out\n        /* \"#utility.yul\":1559:1634   */\n    tag_29:\n        /* \"#utility.yul\":1592:1598   */\n      0x00\n        /* \"#utility.yul\":1625:1627   */\n      0x40\n        /* \"#utility.yul\":1619:1628   */\n      mload\n        /* \"#utility.yul\":1609:1628   */\n      swap1\n      pop\n        /* \"#utility.yul\":1559:1634   */\n      swap1\n      jump\t// out\n        /* \"#utility.yul\":1640:1757   */\n    tag_30:\n        /* \"#utility.yul\":1749:1750   */\n      0x00\n        /* \"#utility.yul\":1746:1747   */\n      dup1\n        /* \"#utility.yul\":1739:1751   */\n      revert\n        /* \"#utility.yul\":1763:1880   */\n    tag_31:\n        /* \"#utility.yul\":1872:1873   */\n      0x00\n        /* \"#utility.yul\":1869:1870   */\n      dup1\n        /* \"#utility.yul\":1862:1874   */\n      revert\n        /* \"#utility.yul\":1886:2008   */\n    tag_32:\n        /* \"#utility.yul\":1959:1983   */\n      tag_79\n        /* \"#utility.yul\":1977:1982   */\n      dup2\n        /* \"#utility.yul\":1959:1983   */\n      tag_22\n      jump\t// in\n    tag_79:\n        /* \"#utility.yul\":1952:1957   */\n      dup2\n        /* \"#utility.yul\":1949:1984   */\n      eq\n        /* \"#utility.yul\":1939:2002   */\n      tag_80\n      jumpi\n        /* \"#utility.yul\":1998:1999   */\n      0x00\n        /* \"#utility.yul\":1995:1996   */\n      dup1\n        /* \"#utility.yul\":1988:2000   */\n      revert\n        /* \"#utility.yul\":1939:2002   */\n    tag_80:\n        /* \"#utility.yul\":1886:2008   */\n      pop\n      jump\t// out\n        /* \"#utility.yul\":2014:2153   */\n    tag_33:\n        /* \"#utility.yul\":2060:2065   */\n      0x00\n        /* \"#utility.yul\":2098:2104   */\n      dup2\n        /* \"#utility.yul\":2085:2105   */\n      calldataload\n        /* \"#utility.yul\":2076:2105   */\n      swap1\n      pop\n        /* \"#utility.yul\":2114:2147   */\n      tag_82\n        /* \"#utility.yul\":2141:2146   */\n      dup2\n        /* \"#utility.yul\":2114:2147   */\n      tag_32\n      jump\t// in\n    tag_82:\n        /* \"#utility.yul\":2014:2153   */\n      swap3\n      swap2\n      pop\n      pop\n      jump\t// out\n        /* \"#utility.yul\":2159:2276   */\n    tag_34:\n        /* \"#utility.yul\":2268:2269   */\n      0x00\n        /* \"#utility.yul\":2265:2266   */\n      dup1\n        /* \"#utility.yul\":2258:2270   */\n      revert\n        /* \"#utility.yul\":2282:2399   */\n    tag_35:\n        /* \"#utility.yul\":2391:2392   */\n      0x00\n        /* \"#utility.yul\":2388:2389   */\n      dup1\n        /* \"#utility.yul\":2381:2393   */\n      revert\n        /* \"#utility.yul\":2405:2585   */\n    tag_36:\n        /* \"#utility.yul\":2453:2530   */\n      0x4e487b7100000000000000000000000000000000000000000000000000000000\n        /* \"#utility.yul\":2450:2451   */\n      0x00\n        /* \"#utility.yul\":2443:2531   */\n      mstore\n        /* \"#utility.yul\":2550:2554   */\n      0x41\n        /* \"#utility.yul\":2547:2548   */\n      0x04\n        /* \"#utility.yul\":2540:2555   */\n      mstore\n        /* \"#utility.yul\":2574:2578   */\n      0x24\n        /* \"#utility.yul\":2571:2572   */\n      0x00\n        /* \"#utility.yul\":2564:2579   */\n      revert\n        /* \"#utility.yul\":2591:2872   */\n    tag_37:\n        /* \"#utility.yul\":2674:2701   */\n      tag_87\n        /* \"#utility.yul\":2696:2700   */\n      dup3\n        /* \"#utility.yul\":2674:2701   */\n      tag_27\n      jump\t// in\n    tag_87:\n        /* \"#utility.yul\":2666:2672   */\n      dup2\n        /* \"#utility.yul\":2662:2702   */\n      add\n        /* \"#utility.yul\":2804:2810   */\n      dup2\n        /* \"#utility.yul\":2792:2802   */\n      dup2\n        /* \"#utility.yul\":2789:2811   */\n      lt\n        /* \"#utility.yul\":2768:2786   */\n      0xffffffffffffffff\n        /* \"#utility.yul\":2756:2766   */\n      dup3\n        /* \"#utility.yul\":2753:2787   */\n      gt\n        /* \"#utility.yul\":2750:2812   */\n      or\n        /* \"#utility.yul\":2747:2835   */\n      iszero\n      tag_88\n      jumpi\n        /* \"#utility.yul\":2815:2833   */\n      tag_89\n      tag_36\n      jump\t// in\n    tag_89:\n        /* \"#utility.yul\":2747:2835   */\n    tag_88:\n        /* \"#utility.yul\":2855:2865   */\n      dup1\n        /* \"#utility.yul\":2851:2853   */\n      0x40\n        /* \"#utility.yul\":2844:2866   */\n      mstore\n        /* \"#utility.yul\":2634:2872   */\n      pop\n        /* \"#utility.yul\":2591:2872   */\n      pop\n      pop\n      jump\t// out\n        /* \"#utility.yul\":2878:3007   */\n    tag_38:\n        /* \"#utility.yul\":2912:2918   */\n      0x00\n        /* \"#utility.yul\":2939:2959   */\n      tag_91\n      tag_29\n      jump\t// in\n    tag_91:\n        /* \"#utility.yul\":2929:2959   */\n      swap1\n      pop\n        /* \"#utility.yul\":2968:3001   */\n      tag_92\n        /* \"#utility.yul\":2996:3000   */\n      dup3\n        /* \"#utility.yul\":2988:2994   */\n      dup3\n        /* \"#utility.yul\":2968:3001   */\n      tag_37\n      jump\t// in\n    tag_92:\n        /* \"#utility.yul\":2878:3007   */\n      swap2\n      swap1\n      pop\n      jump\t// out\n        /* \"#utility.yul\":3013:3321   */\n    tag_39:\n        /* \"#utility.yul\":3075:3079   */\n      0x00\n        /* \"#utility.yul\":3165:3183   */\n      0xffffffffffffffff\n        /* \"#utility.yul\":3157:3163   */\n      dup3\n        /* \"#utility.yul\":3154:3184   */\n      gt\n        /* \"#utility.yul\":3151:3207   */\n      iszero\n      tag_94\n      jumpi\n        /* \"#utility.yul\":3187:3205   */\n      tag_95\n      tag_36\n      jump\t// in\n    tag_95:\n        /* \"#utility.yul\":3151:3207   */\n    tag_94:\n        /* \"#utility.yul\":3225:3254   */\n      tag_96\n        /* \"#utility.yul\":3247:3253   */\n      dup3\n        /* \"#utility.yul\":3225:3254   */\n      tag_27\n      jump\t// in\n    tag_96:\n        /* \"#utility.yul\":3217:3254   */\n      swap1\n      pop\n        /* \"#utility.yul\":3309:3313   */\n      0x20\n        /* \"#utility.yul\":3303:3307   */\n      dup2\n        /* \"#utility.yul\":3299:3314   */\n      add\n        /* \"#utility.yul\":3291:3314   */\n      swap1\n      pop\n        /* \"#utility.yul\":3013:3321   */\n      swap2\n      swap1\n      pop\n      jump\t// out\n        /* \"#utility.yul\":3327:3475   */\n    tag_40:\n        /* \"#utility.yul\":3425:3431   */\n      dup3\n        /* \"#utility.yul\":3420:3423   */\n      dup2\n        /* \"#utility.yul\":3415:3418   */\n      dup4\n        /* \"#utility.yul\":3402:3432   */\n      calldatacopy\n        /* \"#utility.yul\":3466:3467   */\n      0x00\n        /* \"#utility.yul\":3457:3463   */\n      dup4\n        /* \"#utility.yul\":3452:3455   */\n      dup4\n        /* \"#utility.yul\":3448:3464   */\n      add\n        /* \"#utility.yul\":3441:3468   */\n      mstore\n        /* \"#utility.yul\":3327:3475   */\n      pop\n      pop\n      pop\n      jump\t// out\n        /* \"#utility.yul\":3481:3906   */\n    tag_41:\n        /* \"#utility.yul\":3559:3564   */\n      0x00\n        /* \"#utility.yul\":3584:3650   */\n      tag_99\n        /* \"#utility.yul\":3600:3649   */\n      tag_100\n        /* \"#utility.yul\":3642:3648   */\n      dup5\n        /* \"#utility.yul\":3600:3649   */\n      tag_39\n      jump\t// in\n    tag_100:\n        /* \"#utility.yul\":3584:3650   */\n      tag_38\n      jump\t// in\n    tag_99:\n        /* \"#utility.yul\":3575:3650   */\n      swap1\n      pop\n        /* \"#utility.yul\":3673:3679   */\n      dup3\n        /* \"#utility.yul\":3666:3671   */\n      dup2\n        /* \"#utility.yul\":3659:3680   */\n      mstore\n        /* \"#utility.yul\":3711:3715   */\n      0x20\n        /* \"#utility.yul\":3704:3709   */\n      dup2\n        /* \"#utility.yul\":3700:3716   */\n      add\n        /* \"#utility.yul\":3749:3752   */\n      dup5\n        /* \"#utility.yul\":3740:3746   */\n      dup5\n        /* \"#utility.yul\":3735:3738   */\n      dup5\n        /* \"#utility.yul\":3731:3747   */\n      add\n        /* \"#utility.yul\":3728:3753   */\n      gt\n        /* \"#utility.yul\":3725:3837   */\n      iszero\n      tag_101\n      jumpi\n        /* \"#utility.yul\":3756:3835   */\n      tag_102\n      tag_35\n      jump\t// in\n    tag_102:\n        /* \"#utility.yul\":3725:3837   */\n    tag_101:\n        /* \"#utility.yul\":3846:3900   */\n      tag_103\n        /* \"#utility.yul\":3893:3899   */\n      dup5\n        /* \"#utility.yul\":3888:3891   */\n      dup3\n        /* \"#utility.yul\":3883:3886   */\n      dup6\n        /* \"#utility.yul\":3846:3900   */\n      tag_40\n      jump\t// in\n    tag_103:\n        /* \"#utility.yul\":3565:3906   */\n      pop\n        /* \"#utility.yul\":3481:3906   */\n      swap4\n      swap3\n      pop\n      pop\n      pop\n      jump\t// out\n        /* \"#utility.yul\":3926:4266   */\n    tag_42:\n        /* \"#utility.yul\":3982:3987   */\n      0x00\n        /* \"#utility.yul\":4031:4034   */\n      dup3\n        /* \"#utility.yul\":4024:4028   */\n      0x1f\n        /* \"#utility.yul\":4016:4022   */\n      dup4\n        /* \"#utility.yul\":4012:4029   */\n      add\n        /* \"#utility.yul\":4008:4035   */\n      slt\n        /* \"#utility.yul\":3998:4120   */\n      tag_105\n      jumpi\n        /* \"#utility.yul\":4039:4118   */\n      tag_106\n      tag_34\n      jump\t// in\n    tag_106:\n        /* \"#utility.yul\":3998:4120   */\n    tag_105:\n        /* \"#utility.yul\":4156:4162   */\n      dup2\n        /* \"#utility.yul\":4143:4163   */\n      calldataload\n        /* \"#utility.yul\":4181:4260   */\n      tag_107\n        /* \"#utility.yul\":4256:4259   */\n      dup5\n        /* \"#utility.yul\":4248:4254   */\n      dup3\n        /* \"#utility.yul\":4241:4245   */\n      0x20\n        /* \"#utility.yul\":4233:4239   */\n      dup7\n        /* \"#utility.yul\":4229:4246   */\n      add\n        /* \"#utility.yul\":4181:4260   */\n      tag_41\n      jump\t// in\n    tag_107:\n        /* \"#utility.yul\":4172:4260   */\n      swap2\n      pop\n        /* \"#utility.yul\":3988:4266   */\n      pop\n        /* \"#utility.yul\":3926:4266   */\n      swap3\n      swap2\n      pop\n      pop\n      jump\t// out\n        /* \"#utility.yul\":4272:4926   */\n    tag_11:\n        /* \"#utility.yul\":4350:4356   */\n      0x00\n        /* \"#utility.yul\":4358:4364   */\n      dup1\n        /* \"#utility.yul\":4407:4409   */\n      0x40\n        /* \"#utility.yul\":4395:4404   */\n      dup4\n        /* \"#utility.yul\":4386:4393   */\n      dup6\n        /* \"#utility.yul\":4382:4405   */\n      sub\n        /* \"#utility.yul\":4378:4410   */\n      slt\n        /* \"#utility.yul\":4375:4494   */\n      iszero\n      tag_109\n      jumpi\n        /* \"#utility.yul\":4413:4492   */\n      tag_110\n      tag_30\n      jump\t// in\n    tag_110:\n        /* \"#utility.yul\":4375:4494   */\n    tag_109:\n        /* \"#utility.yul\":4533:4534   */\n      0x00\n        /* \"#utility.yul\":4558:4611   */\n      tag_111\n        /* \"#utility.yul\":4603:4610   */\n      dup6\n        /* \"#utility.yul\":4594:4600   */\n      dup3\n        /* \"#utility.yul\":4583:4592   */\n      dup7\n        /* \"#utility.yul\":4579:4601   */\n      add\n        /* \"#utility.yul\":4558:4611   */\n      tag_33\n      jump\t// in\n    tag_111:\n        /* \"#utility.yul\":4548:4611   */\n      swap3\n      pop\n        /* \"#utility.yul\":4504:4621   */\n      pop\n        /* \"#utility.yul\":4688:4690   */\n      0x20\n        /* \"#utility.yul\":4677:4686   */\n      dup4\n        /* \"#utility.yul\":4673:4691   */\n      add\n        /* \"#utility.yul\":4660:4692   */\n      calldataload\n        /* \"#utility.yul\":4719:4737   */\n      0xffffffffffffffff\n        /* \"#utility.yul\":4711:4717   */\n      dup2\n        /* \"#utility.yul\":4708:4738   */\n      gt\n        /* \"#utility.yul\":4705:4822   */\n      iszero\n      tag_112\n      jumpi\n        /* \"#utility.yul\":4741:4820   */\n      tag_113\n      tag_31\n      jump\t// in\n    tag_113:\n        /* \"#utility.yul\":4705:4822   */\n    tag_112:\n        /* \"#utility.yul\":4846:4909   */\n      tag_114\n        /* \"#utility.yul\":4901:4908   */\n      dup6\n        /* \"#utility.yul\":4892:4898   */\n      dup3\n        /* \"#utility.yul\":4881:4890   */\n      dup7\n        /* \"#utility.yul\":4877:4899   */\n      add\n        /* \"#utility.yul\":4846:4909   */\n      tag_42\n      jump\t// in\n    tag_114:\n        /* \"#utility.yul\":4836:4909   */\n      swap2\n      pop\n        /* \"#utility.yul\":4631:4919   */\n      pop\n        /* \"#utility.yul\":4272:4926   */\n      swap3\n      pop\n      swap3\n      swap1\n      pop\n      jump\t// out\n        /* \"#utility.yul\":4932:5112   */\n    tag_43:\n        /* \"#utility.yul\":4980:5057   */\n      0x4e487b7100000000000000000000000000000000000000000000000000000000\n        /* \"#utility.yul\":4977:4978   */\n      0x00\n        /* \"#utility.yul\":4970:5058   */\n      mstore\n        /* \"#utility.yul\":5077:5081   */\n      0x22\n        /* \"#utility.yul\":5074:5075   */\n      0x04\n        /* \"#utility.yul\":5067:5082   */\n      mstore\n        /* \"#utility.yul\":5101:5105   */\n      0x24\n        /* \"#utility.yul\":5098:5099   */\n      0x00\n        /* \"#utility.yul\":5091:5106   */\n      revert\n        /* \"#utility.yul\":5118:5438   */\n    tag_14:\n        /* \"#utility.yul\":5162:5168   */\n      0x00\n        /* \"#utility.yul\":5199:5200   */\n      0x02\n        /* \"#utility.yul\":5193:5197   */\n      dup3\n        /* \"#utility.yul\":5189:5201   */\n      div\n        /* \"#utility.yul\":5179:5201   */\n      swap1\n      pop\n        /* \"#utility.yul\":5246:5247   */\n      0x01\n        /* \"#utility.yul\":5240:5244   */\n      dup3\n        /* \"#utility.yul\":5236:5248   */\n      and\n        /* \"#utility.yul\":5267:5285   */\n      dup1\n        /* \"#utility.yul\":5257:5338   */\n      tag_117\n      jumpi\n        /* \"#utility.yul\":5323:5327   */\n      0x7f\n        /* \"#utility.yul\":5315:5321   */\n      dup3\n        /* \"#utility.yul\":5311:5328   */\n      and\n        /* \"#utility.yul\":5301:5328   */\n      swap2\n      pop\n        /* \"#utility.yul\":5257:5338   */\n    tag_117:\n        /* \"#utility.yul\":5385:5387   */\n      0x20\n        /* \"#utility.yul\":5377:5383   */\n      dup3\n        /* \"#utility.yul\":5374:5388   */\n      lt\n        /* \"#utility.yul\":5354:5372   */\n      dup2\n        /* \"#utility.yul\":5351:5389   */\n      sub\n        /* \"#utility.yul\":5348:5432   */\n      tag_118\n      jumpi\n        /* \"#utility.yul\":5404:5422   */\n      tag_119\n      tag_43\n      jump\t// in\n    tag_119:\n        /* \"#utility.yul\":5348:5432   */\n    tag_118:\n        /* \"#utility.yul\":5169:5438   */\n      pop\n        /* \"#utility.yul\":5118:5438   */\n      swap2\n      swap1\n      pop\n      jump\t// out\n        /* \"#utility.yul\":5444:5585   */\n    tag_44:\n        /* \"#utility.yul\":5493:5497   */\n      0x00\n        /* \"#utility.yul\":5516:5519   */\n      dup2\n        /* \"#utility.yul\":5508:5519   */\n      swap1\n      pop\n        /* \"#utility.yul\":5539:5542   */\n      dup2\n        /* \"#utility.yul\":5536:5537   */\n      0x00\n        /* \"#utility.yul\":5529:5543   */\n      mstore\n        /* \"#utility.yul\":5573:5577   */\n      0x20\n        /* \"#utility.yul\":5570:5571   */\n      0x00\n        /* \"#utility.yul\":5560:5578   */\n      keccak256\n        /* \"#utility.yul\":5552:5578   */\n      swap1\n      pop\n        /* \"#utility.yul\":5444:5585   */\n      swap2\n      swap1\n      pop\n      jump\t// out\n        /* \"#utility.yul\":5591:5684   */\n    tag_45:\n        /* \"#utility.yul\":5628:5634   */\n      0x00\n        /* \"#utility.yul\":5675:5677   */\n      0x20\n        /* \"#utility.yul\":5670:5672   */\n      0x1f\n        /* \"#utility.yul\":5663:5668   */\n      dup4\n        /* \"#utility.yul\":5659:5673   */\n      add\n        /* \"#utility.yul\":5655:5678   */\n      div\n        /* \"#utility.yul\":5645:5678   */\n      swap1\n      pop\n        /* \"#utility.yul\":5591:5684   */\n      swap2\n      swap1\n      pop\n      jump\t// out\n        /* \"#utility.yul\":5690:5797   */\n    tag_46:\n        /* \"#utility.yul\":5734:5742   */\n      0x00\n        /* \"#utility.yul\":5784:5789   */\n      dup3\n        /* \"#utility.yul\":5778:5782   */\n      dup3\n        /* \"#utility.yul\":5774:5790   */\n      shl\n        /* \"#utility.yul\":5753:5790   */\n      swap1\n      pop\n        /* \"#utility.yul\":5690:5797   */\n      swap3\n      swap2\n      pop\n      pop\n      jump\t// out\n        /* \"#utility.yul\":5803:6196   */\n    tag_47:\n        /* \"#utility.yul\":5872:5878   */\n      0x00\n        /* \"#utility.yul\":5922:5923   */\n      0x08\n        /* \"#utility.yul\":5910:5920   */\n      dup4\n        /* \"#utility.yul\":5906:5924   */\n      mul\n        /* \"#utility.yul\":5945:6042   */\n      tag_124\n        /* \"#utility.yul\":5975:6041   */\n      0xffffffffffffffffffffffffffffffffffffffffffffffffffffffffffffffff\n        /* \"#utility.yul\":5964:5973   */\n      dup3\n        /* \"#utility.yul\":5945:6042   */\n      tag_46\n      jump\t// in\n    tag_124:\n        /* \"#utility.yul\":6063:6102   */\n      tag_125\n        /* \"#utility.yul\":6093:6101   */\n      dup7\n        /* \"#utility.yul\":6082:6091   */\n      dup4\n        /* \"#utility.yul\":6063:6102   */\n      tag_46\n      jump\t// in\n    tag_125:\n        /* \"#utility.yul\":6051:6102   */\n      swap6\n      pop\n        /* \"#utility.yul\":6135:6139   */\n      dup1\n        /* \"#utility.yul\":6131:6140   */\n      not\n        /* \"#utility.yul\":6124:6129   */\n      dup5\n        /* \"#utility.yul\":6120:6141   */\n      and\n        /* \"#utility.yul\":6111:6141   */\n      swap4\n      pop\n        /* \"#utility.yul\":6184:6188   */\n      dup1\n        /* \"#utility.yul\":6174:6182   */\n      dup7\n        /* \"#utility.yul\":6170:6189   */\n      and\n        /* \"#utility.yul\":6163:6168   */\n      dup5\n        /* \"#utility.yul\":6160:6190   */\n      or\n        /* \"#utility.yul\":6150:6190   */\n      swap3\n      pop\n        /* \"#utility.yul\":5879:6196   */\n      pop\n      pop\n        /* \"#utility.yul\":5803:6196   */\n      swap4\n      swap3\n      pop\n      pop\n      pop\n      jump\t// out\n        /* \"#utility.yul\":6202:6262   */\n    tag_48:\n        /* \"#utility.yul\":6230:6233   */\n      0x00\n        /* \"#utility.yul\":6251:6256   */\n      dup2\n        /* \"#utility.yul\":6244:6256   */\n      swap1\n      pop\n        /* \"#utility.yul\":6202:6262   */\n      swap2\n      swap1\n      pop\n      jump\t// out\n        /* \"#utility.yul\":6268:6410   */\n    tag_49:\n        /* \"#utility.yul\":6318:6327   */\n      0x00\n        /* \"#utility.yul\":6351:6404   */\n      tag_128\n        /* \"#utility.yul\":6369:6403   */\n      tag_129\n        /* \"#utility.yul\":6378:6402   */\n      tag_130\n        /* \"#utility.yul\":6396:6401   */\n      dup5\n        /* \"#utility.yul\":6378:6402   */\n      tag_22\n      jump\t// in\n    tag_130:\n        /* \"#utility.yul\":6369:6403   */\n      tag_48\n      jump\t// in\n    tag_129:\n        /* \"#utility.yul\":6351:6404   */\n      tag_22\n      jump\t// in\n    tag_128:\n        /* \"#utility.yul\":6338:6404   */\n      swap1\n      pop\n        /* \"#utility.yul\":6268:6410   */\n      swap2\n      swap1\n      pop\n      jump\t// out\n        /* \"#utility.yul\":6416:6491   */\n    tag_50:\n        /* \"#utility.yul\":6459:6462   */\n      0x00\n        /* \"#utility.yul\":6480:6485   */\n      dup2\n        /* \"#utility.yul\":6473:6485   */\n      swap1\n      pop\n        /* \"#utility.yul\":6416:6491   */\n      swap2\n      swap1\n      pop\n      jump\t// out\n        /* \"#utility.yul\":6497:6766   */\n    tag_51:\n        /* \"#utility.yul\":6607:6646   */\n      tag_133\n        /* \"#utility.yul\":6638:6645   */\n      dup4\n        /* \"#utility.yul\":6607:6646   */\n      tag_49\n      jump\t// in\n    tag_133:\n        /* \"#utility.yul\":6668:6759   */\n      tag_134\n        /* \"#utility.yul\":6717:6758   */\n      tag_135\n        /* \"#utility.yul\":6741:6757   */\n      dup3\n        /* \"#utility.yul\":6717:6758   */\n      tag_50\n      jump\t// in\n    tag_135:\n        /* \"#utility.yul\":6709:6715   */\n      dup5\n        /* \"#utility.yul\":6702:6706   */\n      dup5\n        /* \"#utility.yul\":6696:6707   */\n      sload\n        /* \"#utility.yul\":6668:6759   */\n      tag_47\n      jump\t// in\n    tag_134:\n        /* \"#utility.yul\":6662:6666   */\n      dup3\n        /* \"#utility.yul\":6655:6760   */\n      sstore\n        /* \"#utility.yul\":6573:6766   */\n      pop\n        /* \"#utility.yul\":6497:6766   */\n      pop\n      pop\n      pop\n      jump\t// out\n        /* \"#utility.yul\":6772:6845   */\n    tag_52:\n        /* \"#utility.yul\":6817:6820   */\n      0x00\n        /* \"#utility.yul\":6772:6845   */\n      swap1\n      jump\t// out\n        /* \"#utility.yul\":6851:7040   */\n    tag_53:\n        /* \"#utility.yul\":6928:6960   */\n      tag_138\n      tag_52\n      jump\t// in\n    tag_138:\n        /* \"#utility.yul\":6969:7034   */\n      tag_139\n        /* \"#utility.yul\":7027:7033   */\n      dup2\n        /* \"#utility.yul\":7019:7025   */\n      dup5\n        /* \"#utility.yul\":7013:7017   */\n      dup5\n        /* \"#utility.yul\":6969:7034   */\n      tag_51\n      jump\t// in\n    tag_139:\n        /* \"#utility.yul\":6904:7040   */\n      pop\n        /* \"#utility.yul\":6851:7040   */\n      pop\n      pop\n      jump\t// out\n        /* \"#utility.yul\":7046:7232   */\n    tag_54:\n        /* \"#utility.yul\":7106:7226   */\n    tag_141:\n        /* \"#utility.yul\":7123:7126   */\n      dup2\n        /* \"#utility.yul\":7116:7121   */\n      dup2\n        /* \"#utility.yul\":7113:7127   */\n      lt\n        /* \"#utility.yul\":7106:7226   */\n      iszero\n      tag_143\n      jumpi\n        /* \"#utility.yul\":7177:7216   */\n      tag_144\n        /* \"#utility.yul\":7214:7215   */\n      0x00\n        /* \"#utility.yul\":7207:7212   */\n      dup3\n        /* \"#utility.yul\":7177:7216   */\n      tag_53\n      jump\t// in\n    tag_144:\n        /* \"#utility.yul\":7150:7151   */\n      0x01\n        /* \"#utility.yul\":7143:7148   */\n      dup2\n        /* \"#utility.yul\":7139:7152   */\n      add\n        /* \"#utility.yul\":7130:7152   */\n      swap1\n      pop\n        /* \"#utility.yul\":7106:7226   */\n      jump(tag_141)\n    tag_143:\n        /* \"#utility.yul\":7046:7232   */\n      pop\n      pop\n      jump\t// out\n        /* \"#utility.yul\":7238:7781   */\n    tag_55:\n        /* \"#utility.yul\":7339:7341   */\n      0x1f\n        /* \"#utility.yul\":7334:7337   */\n      dup3\n        /* \"#utility.yul\":7331:7342   */\n      gt\n        /* \"#utility.yul\":7328:7774   */\n      iszero\n      tag_146\n      jumpi\n        /* \"#utility.yul\":7373:7411   */\n      tag_147\n        /* \"#utility.yul\":7405:7410   */\n      dup2\n        /* \"#utility.yul\":7373:7411   */\n      tag_44\n      jump\t// in\n    tag_147:\n        /* \"#utility.yul\":7457:7486   */\n      tag_148\n        /* \"#utility.yul\":7475:7485   */\n      dup5\n        /* \"#utility.yul\":7457:7486   */\n      tag_45\n      jump\t// in\n    tag_148:\n        /* \"#utility.yul\":7447:7455   */\n      dup2\n        /* \"#utility.yul\":7443:7487   */\n      add\n        /* \"#utility.yul\":7640:7642   */\n      0x20\n        /* \"#utility.yul\":7628:7638   */\n      dup6\n        /* \"#utility.yul\":7625:7643   */\n      lt\n        /* \"#utility.yul\":7622:7671   */\n      iszero\n      tag_149\n      jumpi\n        /* \"#utility.yul\":7661:7669   */\n      dup2\n        /* \"#utility.yul\":7646:7669   */\n      swap1\n      pop\n        /* \"#utility.yul\":7622:7671   */\n    tag_149:\n        /* \"#utility.yul\":7684:7764   */\n      tag_150\n        /* \"#utility.yul\":7740:7762   */\n      tag_151\n        /* \"#utility.yul\":7758:7761   */\n      dup6\n        /* \"#utility.yul\":7740:7762   */\n      tag_45\n      jump\t// in\n    tag_151:\n        /* \"#utility.yul\":7730:7738   */\n      dup4\n        /* \"#utility.yul\":7726:7763   */\n      add\n        /* \"#utility.yul\":7713:7724   */\n      dup3\n        /* \"#utility.yul\":7684:7764   */\n      tag_54\n      jump\t// in\n    tag_150:\n        /* \"#utility.yul\":7343:7774   */\n      pop\n      pop\n        /* \"#utility.yul\":7328:7774   */\n    tag_146:\n        /* \"#utility.yul\":7238:7781   */\n      pop\n      pop\n      pop\n      jump\t// out\n        /* \"#utility.yul\":7787:7904   */\n    tag_56:\n        /* \"#utility.yul\":7841:7849   */\n      0x00\n        /* \"#utility.yul\":7891:7896   */\n      dup3\n        /* \"#utility.yul\":7885:7889   */\n      dup3\n        /* \"#utility.yul\":7881:7897   */\n      shr\n        /* \"#utility.yul\":7860:7897   */\n      swap1\n      pop\n        /* \"#utility.yul\":7787:7904   */\n      swap3\n      swap2\n      pop\n      pop\n      jump\t// out\n        /* \"#utility.yul\":7910:8079   */\n    tag_57:\n        /* \"#utility.yul\":7954:7960   */\n      0x00\n        /* \"#utility.yul\":7987:8038   */\n      tag_154\n        /* \"#utility.yul\":8035:8036   */\n      0x00\n        /* \"#utility.yul\":8031:8037   */\n      not\n        /* \"#utility.yul\":8023:8028   */\n      dup5\n        /* \"#utility.yul\":8020:8021   */\n      0x08\n        /* \"#utility.yul\":8016:8029   */\n      mul\n        /* \"#utility.yul\":7987:8038   */\n      tag_56\n      jump\t// in\n    tag_154:\n        /* \"#utility.yul\":7983:8039   */\n      not\n        /* \"#utility.yul\":8068:8072   */\n      dup1\n        /* \"#utility.yul\":8062:8066   */\n      dup4\n        /* \"#utility.yul\":8058:8073   */\n      and\n        /* \"#utility.yul\":8048:8073   */\n      swap2\n      pop\n        /* \"#utility.yul\":7961:8079   */\n      pop\n        /* \"#utility.yul\":7910:8079   */\n      swap3\n      swap2\n      pop\n      pop\n      jump\t// out\n        /* \"#utility.yul\":8084:8379   */\n    tag_58:\n        /* \"#utility.yul\":8160:8164   */\n      0x00\n        /* \"#utility.yul\":8306:8335   */\n      tag_156\n        /* \"#utility.yul\":8331:8334   */\n      dup4\n        /* \"#utility.yul\":8325:8329   */\n      dup4\n        /* \"#utility.yul\":8306:8335   */\n      tag_57\n      jump\t// in\n    tag_156:\n        /* \"#utility.yul\":8298:8335   */\n      swap2\n      pop\n        /* \"#utility.yul\":8368:8371   */\n      dup3\n        /* \"#utility.yul\":8365:8366   */\n      0x02\n        /* \"#utility.yul\":8361:8372   */\n      mul\n        /* \"#utility.yul\":8355:8359   */\n      dup3\n        /* \"#utility.yul\":8352:8373   */\n      or\n        /* \"#utility.yul\":8344:8373   */\n      swap1\n      pop\n        /* \"#utility.yul\":8084:8379   */\n      swap3\n      swap2\n      pop\n      pop\n      jump\t// out\n        /* \"#utility.yul\":8384:9779   */\n    tag_21:\n        /* \"#utility.yul\":8501:8538   */\n      tag_158\n        /* \"#utility.yul\":8534:8537   */\n      dup3\n        /* \"#utility.yul\":8501:8538   */\n      tag_24\n      jump\t// in\n    tag_158:\n        /* \"#utility.yul\":8603:8621   */\n      0xffffffffffffffff\n        /* \"#utility.yul\":8595:8601   */\n      dup2\n        /* \"#utility.yul\":8592:8622   */\n      gt\n        /* \"#utility.yul\":8589:8645   */\n      iszero\n      tag_159\n      jumpi\n        /* \"#utility.yul\":8625:8643   */\n      tag_160\n      tag_36\n      jump\t// in\n    tag_160:\n        /* \"#utility.yul\":8589:8645   */\n    tag_159:\n        /* \"#utility.yul\":8669:8707   */\n      tag_161\n        /* \"#utility.yul\":8701:8705   */\n      dup3\n        /* \"#utility.yul\":8695:8706   */\n      sload\n        /* \"#utility.yul\":8669:8707   */\n      tag_14\n      jump\t// in\n    tag_161:\n        /* \"#utility.yul\":8754:8821   */\n      tag_162\n        /* \"#utility.yul\":8814:8820   */\n      dup3\n        /* \"#utility.yul\":8806:8812   */\n      dup3\n        /* \"#utility.yul\":8800:8804   */\n      dup6\n        /* \"#utility.yul\":8754:8821   */\n      tag_55\n      jump\t// in\n    tag_162:\n        /* \"#utility.yul\":8848:8849   */\n      0x00\n        /* \"#utility.yul\":8872:8876   */\n      0x20\n        /* \"#utility.yul\":8859:8876   */\n      swap1\n      pop\n        /* \"#utility.yul\":8904:8906   */\n      0x1f\n        /* \"#utility.yul\":8896:8902   */\n      dup4\n        /* \"#utility.yul\":8893:8907   */\n      gt\n        /* \"#utility.yul\":8921:8922   */\n      0x01\n        /* \"#utility.yul\":8916:9534   */\n      dup2\n      eq\n      tag_164\n      jumpi\n        /* \"#utility.yul\":9578:9579   */\n      0x00\n        /* \"#utility.yul\":9595:9601   */\n      dup5\n        /* \"#utility.yul\":9592:9669   */\n      iszero\n      tag_165\n      jumpi\n        /* \"#utility.yul\":9644:9653   */\n      dup3\n        /* \"#utility.yul\":9639:9642   */\n      dup8\n        /* \"#utility.yul\":9635:9654   */\n      add\n        /* \"#utility.yul\":9629:9655   */\n      mload\n        /* \"#utility.yul\":9620:9655   */\n      swap1\n      pop\n        /* \"#utility.yul\":9592:9669   */\n    tag_165:\n        /* \"#utility.yul\":9695:9762   */\n      tag_166\n        /* \"#utility.yul\":9755:9761   */\n      dup6\n        /* \"#utility.yul\":9748:9753   */\n      dup3\n        /* \"#utility.yul\":9695:9762   */\n      tag_58\n      jump\t// in\n    tag_166:\n        /* \"#utility.yul\":9689:9693   */\n      dup7\n        /* \"#utility.yul\":9682:9763   */\n      sstore\n        /* \"#utility.yul\":9551:9773   */\n      pop\n        /* \"#utility.yul\":8886:9773   */\n      jump(tag_163)\n        /* \"#utility.yul\":8916:9534   */\n    tag_164:\n        /* \"#utility.yul\":8968:8972   */\n      0x1f\n        /* \"#utility.yul\":8964:8973   */\n      not\n        /* \"#utility.yul\":8956:8962   */\n      dup5\n        /* \"#utility.yul\":8952:8974   */\n      and\n        /* \"#utility.yul\":9002:9039   */\n      tag_167\n        /* \"#utility.yul\":9034:9038   */\n      dup7\n        /* \"#utility.yul\":9002:9039   */\n      tag_44\n      jump\t// in\n    tag_167:\n        /* \"#utility.yul\":9061:9062   */\n      0x00\n        /* \"#utility.yul\":9075:9283   */\n    tag_168:\n        /* \"#utility.yul\":9089:9096   */\n      dup3\n        /* \"#utility.yul\":9086:9087   */\n      dup2\n        /* \"#utility.yul\":9083:9097   */\n      lt\n        /* \"#utility.yul\":9075:9283   */\n      iszero\n      tag_170\n      jumpi\n        /* \"#utility.yul\":9168:9177   */\n      dup5\n        /* \"#utility.yul\":9163:9166   */\n      dup10\n        /* \"#utility.yul\":9159:9178   */\n      add\n        /* \"#utility.yul\":9153:9179   */\n      mload\n        /* \"#utility.yul\":9145:9151   */\n      dup3\n        /* \"#utility.yul\":9138:9180   */\n      sstore\n        /* \"#utility.yul\":9219:9220   */\n      0x01\n        /* \"#utility.yul\":9211:9217   */\n      dup3\n        /* \"#utility.yul\":9207:9221   */\n      add\n        /* \"#utility.yul\":9197:9221   */\n      swap2\n      pop\n        /* \"#utility.yul\":9266:9268   */\n      0x20\n        /* \"#utility.yul\":9255:9264   */\n      dup6\n        /* \"#utility.yul\":9251:9269   */\n      add\n        /* \"#utility.yul\":9238:9269   */\n      swap5\n      pop\n        /* \"#utility.yul\":9112:9116   */\n      0x20\n        /* \"#utility.yul\":9109:9110   */\n      dup2\n        /* \"#utility.yul\":9105:9117   */\n      add\n        /* \"#utility.yul\":9100:9117   */\n      swap1\n      pop\n        /* \"#utility.yul\":9075:9283   */\n      jump(tag_168)\n    tag_170:\n        /* \"#utility.yul\":9311:9317   */\n      dup7\n        /* \"#utility.yul\":9302:9309   */\n      dup4\n        /* \"#utility.yul\":9299:9318   */\n      lt\n        /* \"#utility.yul\":9296:9475   */\n      iszero\n      tag_171\n      jumpi\n        /* \"#utility.yul\":9369:9378   */\n      dup5\n        /* \"#utility.yul\":9364:9367   */\n      dup10\n        /* \"#utility.yul\":9360:9379   */\n      add\n        /* \"#utility.yul\":9354:9380   */\n      mload\n        /* \"#utility.yul\":9412:9460   */\n      tag_172\n        /* \"#utility.yul\":9454:9458   */\n      0x1f\n        /* \"#utility.yul\":9446:9452   */\n      dup10\n        /* \"#utility.yul\":9442:9459   */\n      and\n        /* \"#utility.yul\":9431:9440   */\n      dup3\n        /* \"#utility.yul\":9412:9460   */\n      tag_57\n      jump\t// in\n    tag_172:\n        /* \"#utility.yul\":9404:9410   */\n      dup4\n        /* \"#utility.yul\":9397:9461   */\n      sstore\n        /* \"#utility.yul\":9319:9475   */\n      pop\n        /* \"#utility.yul\":9296:9475   */\n    tag_171:\n        /* \"#utility.yul\":9521:9522   */\n      0x01\n        /* \"#utility.yul\":9517:9518   */\n      0x02\n        /* \"#utility.yul\":9509:9515   */\n      dup9\n        /* \"#utility.yul\":9505:9519   */\n      mul\n        /* \"#utility.yul\":9501:9523   */\n      add\n        /* \"#utility.yul\":9495:9499   */\n      dup9\n        /* \"#utility.yul\":9488:9524   */\n      sstore\n        /* \"#utility.yul\":8923:9534   */\n      pop\n      pop\n      pop\n        /* \"#utility.yul\":8886:9773   */\n    tag_163:\n      pop\n        /* \"#utility.yul\":8476:9779   */\n      pop\n      pop\n      pop\n        /* \"#utility.yul\":8384:9779   */\n      pop\n      pop\n      jump\t// out\n\n    auxdata: 0xa2646970667358221220da1fd0d33915d4bef1b5b452deba99b24d7d58f6ccb36aa4f04db638cf41f23164736f6c634300081a0033\n}\n",
				"bytecode": {
					"linkReferences": {},
					"object": "608060405234801561000f575f80fd5b50604051610bcb380380610bcb833981810160405281019061003191906101d2565b815f800181905550805f600101908161004a9190610430565b5050506104ff565b5f604051905090565b5f80fd5b5f80fd5b5f819050919050565b61007581610063565b811461007f575f80fd5b50565b5f815190506100908161006c565b92915050565b5f80fd5b5f80fd5b5f601f19601f8301169050919050565b7f4e487b71000000000000000000000000000000000000000000000000000000005f52604160045260245ffd5b6100e48261009e565b810181811067ffffffffffffffff82111715610103576101026100ae565b5b80604052505050565b5f610115610052565b905061012182826100db565b919050565b5f67ffffffffffffffff8211156101405761013f6100ae565b5b6101498261009e565b9050602081019050919050565b8281835e5f83830152505050565b5f61017661017184610126565b61010c565b9050828152602081018484840111156101925761019161009a565b5b61019d848285610156565b509392505050565b5f82601f8301126101b9576101b8610096565b5b81516101c9848260208601610164565b91505092915050565b5f80604083850312156101e8576101e761005b565b5b5f6101f585828601610082565b925050602083015167ffffffffffffffff8111156102165761021561005f565b5b610222858286016101a5565b9150509250929050565b5f81519050919050565b7f4e487b71000000000000000000000000000000000000000000000000000000005f52602260045260245ffd5b5f600282049050600182168061027a57607f821691505b60208210810361028d5761028c610236565b5b50919050565b5f819050815f5260205f209050919050565b5f6020601f8301049050919050565b5f82821b905092915050565b5f600883026102ef7fffffffffffffffffffffffffffffffffffffffffffffffffffffffffffffffff826102b4565b6102f986836102b4565b95508019841693508086168417925050509392505050565b5f819050919050565b5f61033461032f61032a84610063565b610311565b610063565b9050919050565b5f819050919050565b61034d8361031a565b6103616103598261033b565b8484546102c0565b825550505050565b5f90565b610375610369565b610380818484610344565b505050565b5b818110156103a3576103985f8261036d565b600181019050610386565b5050565b601f8211156103e8576103b981610293565b6103c2846102a5565b810160208510156103d1578190505b6103e56103dd856102a5565b830182610385565b50505b505050565b5f82821c905092915050565b5f6104085f19846008026103ed565b1980831691505092915050565b5f61042083836103f9565b9150826002028217905092915050565b6104398261022c565b67ffffffffffffffff811115610452576104516100ae565b5b61045c8254610263565b6104678282856103a7565b5f60209050601f831160018114610498575f8415610486578287015190505b6104908582610415565b8655506104f7565b601f1984166104a686610293565b5f5b828110156104cd578489015182556001820191506020850194506020810190506104a8565b868310156104ea57848901516104e6601f8916826103f9565b8355505b6001600288020188555050505b505050505050565b6106bf8061050c5f395ff3fe608060405234801561000f575f80fd5b5060043610610034575f3560e01c80636cc014de14610038578063c75226ec14610057575b5f80fd5b610040610073565b60405161004e9291906101d1565b60405180910390f35b610071600480360381019061006c9190610366565b610109565b005b5f805f015490806001018054610088906103ed565b80601f01602080910402602001604051908101604052809291908181526020018280546100b4906103ed565b80156100ff5780601f106100d6576101008083540402835291602001916100ff565b820191905f5260205f20905b8154815290600101906020018083116100e257829003601f168201915b5050505050905082565b5f6040518060400160405280848152602001838152509050805f80820151815f0155602082015181600101908161014091906105ba565b50905050505050565b5f819050919050565b61015b81610149565b82525050565b5f81519050919050565b5f82825260208201905092915050565b8281835e5f83830152505050565b5f601f19601f8301169050919050565b5f6101a382610161565b6101ad818561016b565b93506101bd81856020860161017b565b6101c681610189565b840191505092915050565b5f6040820190506101e45f830185610152565b81810360208301526101f68184610199565b90509392505050565b5f604051905090565b5f80fd5b5f80fd5b61021981610149565b8114610223575f80fd5b50565b5f8135905061023481610210565b92915050565b5f80fd5b5f80fd5b7f4e487b71000000000000000000000000000000000000000000000000000000005f52604160045260245ffd5b61027882610189565b810181811067ffffffffffffffff8211171561029757610296610242565b5b80604052505050565b5f6102a96101ff565b90506102b5828261026f565b919050565b5f67ffffffffffffffff8211156102d4576102d3610242565b5b6102dd82610189565b9050602081019050919050565b828183375f83830152505050565b5f61030a610305846102ba565b6102a0565b9050828152602081018484840111156103265761032561023e565b5b6103318482856102ea565b509392505050565b5f82601f83011261034d5761034c61023a565b5b813561035d8482602086016102f8565b91505092915050565b5f806040838503121561037c5761037b610208565b5b5f61038985828601610226565b925050602083013567ffffffffffffffff8111156103aa576103a961020c565b5b6103b685828601610339565b9150509250929050565b7f4e487b71000000000000000000000000000000000000000000000000000000005f52602260045260245ffd5b5f600282049050600182168061040457607f821691505b602082108103610417576104166103c0565b5b50919050565b5f819050815f5260205f209050919050565b5f6020601f8301049050919050565b5f82821b905092915050565b5f600883026104797fffffffffffffffffffffffffffffffffffffffffffffffffffffffffffffffff8261043e565b610483868361043e565b95508019841693508086168417925050509392505050565b5f819050919050565b5f6104be6104b96104b484610149565b61049b565b610149565b9050919050565b5f819050919050565b6104d7836104a4565b6104eb6104e3826104c5565b84845461044a565b825550505050565b5f90565b6104ff6104f3565b61050a8184846104ce565b505050565b5b8181101561052d576105225f826104f7565b600181019050610510565b5050565b601f821115610572576105438161041d565b61054c8461042f565b8101602085101561055b578190505b61056f6105678561042f565b83018261050f565b50505b505050565b5f82821c905092915050565b5f6105925f1984600802610577565b1980831691505092915050565b5f6105aa8383610583565b9150826002028217905092915050565b6105c382610161565b67ffffffffffffffff8111156105dc576105db610242565b5b6105e682546103ed565b6105f1828285610531565b5f60209050601f831160018114610622575f8415610610578287015190505b61061a858261059f565b865550610681565b601f1984166106308661041d565b5f5b8281101561065757848901518255600182019150602085019450602081019050610632565b868310156106745784890151610670601f891682610583565b8355505b6001600288020188555050505b50505050505056fea2646970667358221220da1fd0d33915d4bef1b5b452deba99b24d7d58f6ccb36aa4f04db638cf41f23164736f6c634300081a0033",
					"opcodes": "PUSH1 0x80 PUSH1 0x40 MSTORE CALLVALUE DUP1 ISZERO PUSH2 0xF JUMPI PUSH0 DUP1 REVERT JUMPDEST POP PUSH1 0x40 MLOAD PUSH2 0xBCB CODESIZE SUB DUP1 PUSH2 0xBCB DUP4 CODECOPY DUP2 DUP2 ADD PUSH1 0x40 MSTORE DUP2 ADD SWAP1 PUSH2 0x31 SWAP2 SWAP1 PUSH2 0x1D2 JUMP JUMPDEST DUP2 PUSH0 DUP1 ADD DUP2 SWAP1 SSTORE POP DUP1 PUSH0 PUSH1 0x1 ADD SWAP1 DUP2 PUSH2 0x4A SWAP2 SWAP1 PUSH2 0x430 JUMP JUMPDEST POP POP POP PUSH2 0x4FF JUMP JUMPDEST PUSH0 PUSH1 0x40 MLOAD SWAP1 POP SWAP1 JUMP JUMPDEST PUSH0 DUP1 REVERT JUMPDEST PUSH0 DUP1 REVERT JUMPDEST PUSH0 DUP2 SWAP1 POP SWAP2 SWAP1 POP JUMP JUMPDEST PUSH2 0x75 DUP2 PUSH2 0x63 JUMP JUMPDEST DUP2 EQ PUSH2 0x7F JUMPI PUSH0 DUP1 REVERT JUMPDEST POP JUMP JUMPDEST PUSH0 DUP2 MLOAD SWAP1 POP PUSH2 0x90 DUP2 PUSH2 0x6C JUMP JUMPDEST SWAP3 SWAP2 POP POP JUMP JUMPDEST PUSH0 DUP1 REVERT JUMPDEST PUSH0 DUP1 REVERT JUMPDEST PUSH0 PUSH1 0x1F NOT PUSH1 0x1F DUP4 ADD AND SWAP1 POP SWAP2 SWAP1 POP JUMP JUMPDEST PUSH32 0x4E487B7100000000000000000000000000000000000000000000000000000000 PUSH0 MSTORE PUSH1 0x41 PUSH1 0x4 MSTORE PUSH1 0x24 PUSH0 REVERT JUMPDEST PUSH2 0xE4 DUP3 PUSH2 0x9E JUMP JUMPDEST DUP2 ADD DUP2 DUP2 LT PUSH8 0xFFFFFFFFFFFFFFFF DUP3 GT OR ISZERO PUSH2 0x103 JUMPI PUSH2 0x102 PUSH2 0xAE JUMP JUMPDEST JUMPDEST DUP1 PUSH1 0x40 MSTORE POP POP POP JUMP JUMPDEST PUSH0 PUSH2 0x115 PUSH2 0x52 JUMP JUMPDEST SWAP1 POP PUSH2 0x121 DUP3 DUP3 PUSH2 0xDB JUMP JUMPDEST SWAP2 SWAP1 POP JUMP JUMPDEST PUSH0 PUSH8 0xFFFFFFFFFFFFFFFF DUP3 GT ISZERO PUSH2 0x140 JUMPI PUSH2 0x13F PUSH2 0xAE JUMP JUMPDEST JUMPDEST PUSH2 0x149 DUP3 PUSH2 0x9E JUMP JUMPDEST SWAP1 POP PUSH1 0x20 DUP2 ADD SWAP1 POP SWAP2 SWAP1 POP JUMP JUMPDEST DUP3 DUP2 DUP4 MCOPY PUSH0 DUP4 DUP4 ADD MSTORE POP POP POP JUMP JUMPDEST PUSH0 PUSH2 0x176 PUSH2 0x171 DUP5 PUSH2 0x126 JUMP JUMPDEST PUSH2 0x10C JUMP JUMPDEST SWAP1 POP DUP3 DUP2 MSTORE PUSH1 0x20 DUP2 ADD DUP5 DUP5 DUP5 ADD GT ISZERO PUSH2 0x192 JUMPI PUSH2 0x191 PUSH2 0x9A JUMP JUMPDEST JUMPDEST PUSH2 0x19D DUP5 DUP3 DUP6 PUSH2 0x156 JUMP JUMPDEST POP SWAP4 SWAP3 POP POP POP JUMP JUMPDEST PUSH0 DUP3 PUSH1 0x1F DUP4 ADD SLT PUSH2 0x1B9 JUMPI PUSH2 0x1B8 PUSH2 0x96 JUMP JUMPDEST JUMPDEST DUP2 MLOAD PUSH2 0x1C9 DUP5 DUP3 PUSH1 0x20 DUP7 ADD PUSH2 0x164 JUMP JUMPDEST SWAP2 POP POP SWAP3 SWAP2 POP POP JUMP JUMPDEST PUSH0 DUP1 PUSH1 0x40 DUP4 DUP6 SUB SLT ISZERO PUSH2 0x1E8 JUMPI PUSH2 0x1E7 PUSH2 0x5B JUMP JUMPDEST JUMPDEST PUSH0 PUSH2 0x1F5 DUP6 DUP3 DUP7 ADD PUSH2 0x82 JUMP JUMPDEST SWAP3 POP POP PUSH1 0x20 DUP4 ADD MLOAD PUSH8 0xFFFFFFFFFFFFFFFF DUP2 GT ISZERO PUSH2 0x216 JUMPI PUSH2 0x215 PUSH2 0x5F JUMP JUMPDEST JUMPDEST PUSH2 0x222 DUP6 DUP3 DUP7 ADD PUSH2 0x1A5 JUMP JUMPDEST SWAP2 POP POP SWAP3 POP SWAP3 SWAP1 POP JUMP JUMPDEST PUSH0 DUP2 MLOAD SWAP1 POP SWAP2 SWAP1 POP JUMP JUMPDEST PUSH32 0x4E487B7100000000000000000000000000000000000000000000000000000000 PUSH0 MSTORE PUSH1 0x22 PUSH1 0x4 MSTORE PUSH1 0x24 PUSH0 REVERT JUMPDEST PUSH0 PUSH1 0x2 DUP3 DIV SWAP1 POP PUSH1 0x1 DUP3 AND DUP1 PUSH2 0x27A JUMPI PUSH1 0x7F DUP3 AND SWAP2 POP JUMPDEST PUSH1 0x20 DUP3 LT DUP2 SUB PUSH2 0x28D JUMPI PUSH2 0x28C PUSH2 0x236 JUMP JUMPDEST JUMPDEST POP SWAP2 SWAP1 POP JUMP JUMPDEST PUSH0 DUP2 SWAP1 POP DUP2 PUSH0 MSTORE PUSH1 0x20 PUSH0 KECCAK256 SWAP1 POP SWAP2 SWAP1 POP JUMP JUMPDEST PUSH0 PUSH1 0x20 PUSH1 0x1F DUP4 ADD DIV SWAP1 POP SWAP2 SWAP1 POP JUMP JUMPDEST PUSH0 DUP3 DUP3 SHL SWAP1 POP SWAP3 SWAP2 POP POP JUMP JUMPDEST PUSH0 PUSH1 0x8 DUP4 MUL PUSH2 0x2EF PUSH32 0xFFFFFFFFFFFFFFFFFFFFFFFFFFFFFFFFFFFFFFFFFFFFFFFFFFFFFFFFFFFFFFFF DUP3 PUSH2 0x2B4 JUMP JUMPDEST PUSH2 0x2F9 DUP7 DUP4 PUSH2 0x2B4 JUMP JUMPDEST SWAP6 POP DUP1 NOT DUP5 AND SWAP4 POP DUP1 DUP7 AND DUP5 OR SWAP3 POP POP POP SWAP4 SWAP3 POP POP POP JUMP JUMPDEST PUSH0 DUP2 SWAP1 POP SWAP2 SWAP1 POP JUMP JUMPDEST PUSH0 PUSH2 0x334 PUSH2 0x32F PUSH2 0x32A DUP5 PUSH2 0x63 JUMP JUMPDEST PUSH2 0x311 JUMP JUMPDEST PUSH2 0x63 JUMP JUMPDEST SWAP1 POP SWAP2 SWAP1 POP JUMP JUMPDEST PUSH0 DUP2 SWAP1 POP SWAP2 SWAP1 POP JUMP JUMPDEST PUSH2 0x34D DUP4 PUSH2 0x31A JUMP JUMPDEST PUSH2 0x361 PUSH2 0x359 DUP3 PUSH2 0x33B JUMP JUMPDEST DUP5 DUP5 SLOAD PUSH2 0x2C0 JUMP JUMPDEST DUP3 SSTORE POP POP POP POP JUMP JUMPDEST PUSH0 SWAP1 JUMP JUMPDEST PUSH2 0x375 PUSH2 0x369 JUMP JUMPDEST PUSH2 0x380 DUP2 DUP5 DUP5 PUSH2 0x344 JUMP JUMPDEST POP POP POP JUMP JUMPDEST JUMPDEST DUP2 DUP2 LT ISZERO PUSH2 0x3A3 JUMPI PUSH2 0x398 PUSH0 DUP3 PUSH2 0x36D JUMP JUMPDEST PUSH1 0x1 DUP2 ADD SWAP1 POP PUSH2 0x386 JUMP JUMPDEST POP POP JUMP JUMPDEST PUSH1 0x1F DUP3 GT ISZERO PUSH2 0x3E8 JUMPI PUSH2 0x3B9 DUP2 PUSH2 0x293 JUMP JUMPDEST PUSH2 0x3C2 DUP5 PUSH2 0x2A5 JUMP JUMPDEST DUP2 ADD PUSH1 0x20 DUP6 LT ISZERO PUSH2 0x3D1 JUMPI DUP2 SWAP1 POP JUMPDEST PUSH2 0x3E5 PUSH2 0x3DD DUP6 PUSH2 0x2A5 JUMP JUMPDEST DUP4 ADD DUP3 PUSH2 0x385 JUMP JUMPDEST POP POP JUMPDEST POP POP POP JUMP JUMPDEST PUSH0 DUP3 DUP3 SHR SWAP1 POP SWAP3 SWAP2 POP POP JUMP JUMPDEST PUSH0 PUSH2 0x408 PUSH0 NOT DUP5 PUSH1 0x8 MUL PUSH2 0x3ED JUMP JUMPDEST NOT DUP1 DUP4 AND SWAP2 POP POP SWAP3 SWAP2 POP POP JUMP JUMPDEST PUSH0 PUSH2 0x420 DUP4 DUP4 PUSH2 0x3F9 JUMP JUMPDEST SWAP2 POP DUP3 PUSH1 0x2 MUL DUP3 OR SWAP1 POP SWAP3 SWAP2 POP POP JUMP JUMPDEST PUSH2 0x439 DUP3 PUSH2 0x22C JUMP JUMPDEST PUSH8 0xFFFFFFFFFFFFFFFF DUP2 GT ISZERO PUSH2 0x452 JUMPI PUSH2 0x451 PUSH2 0xAE JUMP JUMPDEST JUMPDEST PUSH2 0x45C DUP3 SLOAD PUSH2 0x263 JUMP JUMPDEST PUSH2 0x467 DUP3 DUP3 DUP6 PUSH2 0x3A7 JUMP JUMPDEST PUSH0 PUSH1 0x20 SWAP1 POP PUSH1 0x1F DUP4 GT PUSH1 0x1 DUP2 EQ PUSH2 0x498 JUMPI PUSH0 DUP5 ISZERO PUSH2 0x486 JUMPI DUP3 DUP8 ADD MLOAD SWAP1 POP JUMPDEST PUSH2 0x490 DUP6 DUP3 PUSH2 0x415 JUMP JUMPDEST DUP7 SSTORE POP PUSH2 0x4F7 JUMP JUMPDEST PUSH1 0x1F NOT DUP5 AND PUSH2 0x4A6 DUP7 PUSH2 0x293 JUMP JUMPDEST PUSH0 JUMPDEST DUP3 DUP2 LT ISZERO PUSH2 0x4CD JUMPI DUP5 DUP10 ADD MLOAD DUP3 SSTORE PUSH1 0x1 DUP3 ADD SWAP2 POP PUSH1 0x20 DUP6 ADD SWAP5 POP PUSH1 0x20 DUP2 ADD SWAP1 POP PUSH2 0x4A8 JUMP JUMPDEST DUP7 DUP4 LT ISZERO PUSH2 0x4EA JUMPI DUP5 DUP10 ADD MLOAD PUSH2 0x4E6 PUSH1 0x1F DUP10 AND DUP3 PUSH2 0x3F9 JUMP JUMPDEST DUP4 SSTORE POP JUMPDEST PUSH1 0x1 PUSH1 0x2 DUP9 MUL ADD DUP9 SSTORE POP POP POP JUMPDEST POP POP POP POP POP POP JUMP JUMPDEST PUSH2 0x6BF DUP1 PUSH2 0x50C PUSH0 CODECOPY PUSH0 RETURN INVALID PUSH1 0x80 PUSH1 0x40 MSTORE CALLVALUE DUP1 ISZERO PUSH2 0xF JUMPI PUSH0 DUP1 REVERT JUMPDEST POP PUSH1 0x4 CALLDATASIZE LT PUSH2 0x34 JUMPI PUSH0 CALLDATALOAD PUSH1 0xE0 SHR DUP1 PUSH4 0x6CC014DE EQ PUSH2 0x38 JUMPI DUP1 PUSH4 0xC75226EC EQ PUSH2 0x57 JUMPI JUMPDEST PUSH0 DUP1 REVERT JUMPDEST PUSH2 0x40 PUSH2 0x73 JUMP JUMPDEST PUSH1 0x40 MLOAD PUSH2 0x4E SWAP3 SWAP2 SWAP1 PUSH2 0x1D1 JUMP JUMPDEST PUSH1 0x40 MLOAD DUP1 SWAP2 SUB SWAP1 RETURN JUMPDEST PUSH2 0x71 PUSH1 0x4 DUP1 CALLDATASIZE SUB DUP2 ADD SWAP1 PUSH2 0x6C SWAP2 SWAP1 PUSH2 0x366 JUMP JUMPDEST PUSH2 0x109 JUMP JUMPDEST STOP JUMPDEST PUSH0 DUP1 PUSH0 ADD SLOAD SWAP1 DUP1 PUSH1 0x1 ADD DUP1 SLOAD PUSH2 0x88 SWAP1 PUSH2 0x3ED JUMP JUMPDEST DUP1 PUSH1 0x1F ADD PUSH1 0x20 DUP1 SWAP2 DIV MUL PUSH1 0x20 ADD PUSH1 0x40 MLOAD SWAP1 DUP2 ADD PUSH1 0x40 MSTORE DUP1 SWAP3 SWAP2 SWAP1 DUP2 DUP2 MSTORE PUSH1 0x20 ADD DUP3 DUP1 SLOAD PUSH2 0xB4 SWAP1 PUSH2 0x3ED JUMP JUMPDEST DUP1 ISZERO PUSH2 0xFF JUMPI DUP1 PUSH1 0x1F LT PUSH2 0xD6 JUMPI PUSH2 0x100 DUP1 DUP4 SLOAD DIV MUL DUP4 MSTORE SWAP2 PUSH1 0x20 ADD SWAP2 PUSH2 0xFF JUMP JUMPDEST DUP3 ADD SWAP2 SWAP1 PUSH0 MSTORE PUSH1 0x20 PUSH0 KECCAK256 SWAP1 JUMPDEST DUP2 SLOAD DUP2 MSTORE SWAP1 PUSH1 0x1 ADD SWAP1 PUSH1 0x20 ADD DUP1 DUP4 GT PUSH2 0xE2 JUMPI DUP3 SWAP1 SUB PUSH1 0x1F AND DUP3 ADD SWAP2 JUMPDEST POP POP POP POP POP SWAP1 POP DUP3 JUMP JUMPDEST PUSH0 PUSH1 0x40 MLOAD DUP1 PUSH1 0x40 ADD PUSH1 0x40 MSTORE DUP1 DUP5 DUP2 MSTORE PUSH1 0x20 ADD DUP4 DUP2 MSTORE POP SWAP1 POP DUP1 PUSH0 DUP1 DUP3 ADD MLOAD DUP2 PUSH0 ADD SSTORE PUSH1 0x20 DUP3 ADD MLOAD DUP2 PUSH1 0x1 ADD SWAP1 DUP2 PUSH2 0x140 SWAP2 SWAP1 PUSH2 0x5BA JUMP JUMPDEST POP SWAP1 POP POP POP POP POP JUMP JUMPDEST PUSH0 DUP2 SWAP1 POP SWAP2 SWAP1 POP JUMP JUMPDEST PUSH2 0x15B DUP2 PUSH2 0x149 JUMP JUMPDEST DUP3 MSTORE POP POP JUMP JUMPDEST PUSH0 DUP2 MLOAD SWAP1 POP SWAP2 SWAP1 POP JUMP JUMPDEST PUSH0 DUP3 DUP3 MSTORE PUSH1 0x20 DUP3 ADD SWAP1 POP SWAP3 SWAP2 POP POP JUMP JUMPDEST DUP3 DUP2 DUP4 MCOPY PUSH0 DUP4 DUP4 ADD MSTORE POP POP POP JUMP JUMPDEST PUSH0 PUSH1 0x1F NOT PUSH1 0x1F DUP4 ADD AND SWAP1 POP SWAP2 SWAP1 POP JUMP JUMPDEST PUSH0 PUSH2 0x1A3 DUP3 PUSH2 0x161 JUMP JUMPDEST PUSH2 0x1AD DUP2 DUP6 PUSH2 0x16B JUMP JUMPDEST SWAP4 POP PUSH2 0x1BD DUP2 DUP6 PUSH1 0x20 DUP7 ADD PUSH2 0x17B JUMP JUMPDEST PUSH2 0x1C6 DUP2 PUSH2 0x189 JUMP JUMPDEST DUP5 ADD SWAP2 POP POP SWAP3 SWAP2 POP POP JUMP JUMPDEST PUSH0 PUSH1 0x40 DUP3 ADD SWAP1 POP PUSH2 0x1E4 PUSH0 DUP4 ADD DUP6 PUSH2 0x152 JUMP JUMPDEST DUP2 DUP2 SUB PUSH1 0x20 DUP4 ADD MSTORE PUSH2 0x1F6 DUP2 DUP5 PUSH2 0x199 JUMP JUMPDEST SWAP1 POP SWAP4 SWAP3 POP POP POP JUMP JUMPDEST PUSH0 PUSH1 0x40 MLOAD SWAP1 POP SWAP1 JUMP JUMPDEST PUSH0 DUP1 REVERT JUMPDEST PUSH0 DUP1 REVERT JUMPDEST PUSH2 0x219 DUP2 PUSH2 0x149 JUMP JUMPDEST DUP2 EQ PUSH2 0x223 JUMPI PUSH0 DUP1 REVERT JUMPDEST POP JUMP JUMPDEST PUSH0 DUP2 CALLDATALOAD SWAP1 POP PUSH2 0x234 DUP2 PUSH2 0x210 JUMP JUMPDEST SWAP3 SWAP2 POP POP JUMP JUMPDEST PUSH0 DUP1 REVERT JUMPDEST PUSH0 DUP1 REVERT JUMPDEST PUSH32 0x4E487B7100000000000000000000000000000000000000000000000000000000 PUSH0 MSTORE PUSH1 0x41 PUSH1 0x4 MSTORE PUSH1 0x24 PUSH0 REVERT JUMPDEST PUSH2 0x278 DUP3 PUSH2 0x189 JUMP JUMPDEST DUP2 ADD DUP2 DUP2 LT PUSH8 0xFFFFFFFFFFFFFFFF DUP3 GT OR ISZERO PUSH2 0x297 JUMPI PUSH2 0x296 PUSH2 0x242 JUMP JUMPDEST JUMPDEST DUP1 PUSH1 0x40 MSTORE POP POP POP JUMP JUMPDEST PUSH0 PUSH2 0x2A9 PUSH2 0x1FF JUMP JUMPDEST SWAP1 POP PUSH2 0x2B5 DUP3 DUP3 PUSH2 0x26F JUMP JUMPDEST SWAP2 SWAP1 POP JUMP JUMPDEST PUSH0 PUSH8 0xFFFFFFFFFFFFFFFF DUP3 GT ISZERO PUSH2 0x2D4 JUMPI PUSH2 0x2D3 PUSH2 0x242 JUMP JUMPDEST JUMPDEST PUSH2 0x2DD DUP3 PUSH2 0x189 JUMP JUMPDEST SWAP1 POP PUSH1 0x20 DUP2 ADD SWAP1 POP SWAP2 SWAP1 POP JUMP JUMPDEST DUP3 DUP2 DUP4 CALLDATACOPY PUSH0 DUP4 DUP4 ADD MSTORE POP POP POP JUMP JUMPDEST PUSH0 PUSH2 0x30A PUSH2 0x305 DUP5 PUSH2 0x2BA JUMP JUMPDEST PUSH2 0x2A0 JUMP JUMPDEST SWAP1 POP DUP3 DUP2 MSTORE PUSH1 0x20 DUP2 ADD DUP5 DUP5 DUP5 ADD GT ISZERO PUSH2 0x326 JUMPI PUSH2 0x325 PUSH2 0x23E JUMP JUMPDEST JUMPDEST PUSH2 0x331 DUP5 DUP3 DUP6 PUSH2 0x2EA JUMP JUMPDEST POP SWAP4 SWAP3 POP POP POP JUMP JUMPDEST PUSH0 DUP3 PUSH1 0x1F DUP4 ADD SLT PUSH2 0x34D JUMPI PUSH2 0x34C PUSH2 0x23A JUMP JUMPDEST JUMPDEST DUP2 CALLDATALOAD PUSH2 0x35D DUP5 DUP3 PUSH1 0x20 DUP7 ADD PUSH2 0x2F8 JUMP JUMPDEST SWAP2 POP POP SWAP3 SWAP2 POP POP JUMP JUMPDEST PUSH0 DUP1 PUSH1 0x40 DUP4 DUP6 SUB SLT ISZERO PUSH2 0x37C JUMPI PUSH2 0x37B PUSH2 0x208 JUMP JUMPDEST JUMPDEST PUSH0 PUSH2 0x389 DUP6 DUP3 DUP7 ADD PUSH2 0x226 JUMP JUMPDEST SWAP3 POP POP PUSH1 0x20 DUP4 ADD CALLDATALOAD PUSH8 0xFFFFFFFFFFFFFFFF DUP2 GT ISZERO PUSH2 0x3AA JUMPI PUSH2 0x3A9 PUSH2 0x20C JUMP JUMPDEST JUMPDEST PUSH2 0x3B6 DUP6 DUP3 DUP7 ADD PUSH2 0x339 JUMP JUMPDEST SWAP2 POP POP SWAP3 POP SWAP3 SWAP1 POP JUMP JUMPDEST PUSH32 0x4E487B7100000000000000000000000000000000000000000000000000000000 PUSH0 MSTORE PUSH1 0x22 PUSH1 0x4 MSTORE PUSH1 0x24 PUSH0 REVERT JUMPDEST PUSH0 PUSH1 0x2 DUP3 DIV SWAP1 POP PUSH1 0x1 DUP3 AND DUP1 PUSH2 0x404 JUMPI PUSH1 0x7F DUP3 AND SWAP2 POP JUMPDEST PUSH1 0x20 DUP3 LT DUP2 SUB PUSH2 0x417 JUMPI PUSH2 0x416 PUSH2 0x3C0 JUMP JUMPDEST JUMPDEST POP SWAP2 SWAP1 POP JUMP JUMPDEST PUSH0 DUP2 SWAP1 POP DUP2 PUSH0 MSTORE PUSH1 0x20 PUSH0 KECCAK256 SWAP1 POP SWAP2 SWAP1 POP JUMP JUMPDEST PUSH0 PUSH1 0x20 PUSH1 0x1F DUP4 ADD DIV SWAP1 POP SWAP2 SWAP1 POP JUMP JUMPDEST PUSH0 DUP3 DUP3 SHL SWAP1 POP SWAP3 SWAP2 POP POP JUMP JUMPDEST PUSH0 PUSH1 0x8 DUP4 MUL PUSH2 0x479 PUSH32 0xFFFFFFFFFFFFFFFFFFFFFFFFFFFFFFFFFFFFFFFFFFFFFFFFFFFFFFFFFFFFFFFF DUP3 PUSH2 0x43E JUMP JUMPDEST PUSH2 0x483 DUP7 DUP4 PUSH2 0x43E JUMP JUMPDEST SWAP6 POP DUP1 NOT DUP5 AND SWAP4 POP DUP1 DUP7 AND DUP5 OR SWAP3 POP POP POP SWAP4 SWAP3 POP POP POP JUMP JUMPDEST PUSH0 DUP2 SWAP1 POP SWAP2 SWAP1 POP JUMP JUMPDEST PUSH0 PUSH2 0x4BE PUSH2 0x4B9 PUSH2 0x4B4 DUP5 PUSH2 0x149 JUMP JUMPDEST PUSH2 0x49B JUMP JUMPDEST PUSH2 0x149 JUMP JUMPDEST SWAP1 POP SWAP2 SWAP1 POP JUMP JUMPDEST PUSH0 DUP2 SWAP1 POP SWAP2 SWAP1 POP JUMP JUMPDEST PUSH2 0x4D7 DUP4 PUSH2 0x4A4 JUMP JUMPDEST PUSH2 0x4EB PUSH2 0x4E3 DUP3 PUSH2 0x4C5 JUMP JUMPDEST DUP5 DUP5 SLOAD PUSH2 0x44A JUMP JUMPDEST DUP3 SSTORE POP POP POP POP JUMP JUMPDEST PUSH0 SWAP1 JUMP JUMPDEST PUSH2 0x4FF PUSH2 0x4F3 JUMP JUMPDEST PUSH2 0x50A DUP2 DUP5 DUP5 PUSH2 0x4CE JUMP JUMPDEST POP POP POP JUMP JUMPDEST JUMPDEST DUP2 DUP2 LT ISZERO PUSH2 0x52D JUMPI PUSH2 0x522 PUSH0 DUP3 PUSH2 0x4F7 JUMP JUMPDEST PUSH1 0x1 DUP2 ADD SWAP1 POP PUSH2 0x510 JUMP JUMPDEST POP POP JUMP JUMPDEST PUSH1 0x1F DUP3 GT ISZERO PUSH2 0x572 JUMPI PUSH2 0x543 DUP2 PUSH2 0x41D JUMP JUMPDEST PUSH2 0x54C DUP5 PUSH2 0x42F JUMP JUMPDEST DUP2 ADD PUSH1 0x20 DUP6 LT ISZERO PUSH2 0x55B JUMPI DUP2 SWAP1 POP JUMPDEST PUSH2 0x56F PUSH2 0x567 DUP6 PUSH2 0x42F JUMP JUMPDEST DUP4 ADD DUP3 PUSH2 0x50F JUMP JUMPDEST POP POP JUMPDEST POP POP POP JUMP JUMPDEST PUSH0 DUP3 DUP3 SHR SWAP1 POP SWAP3 SWAP2 POP POP JUMP JUMPDEST PUSH0 PUSH2 0x592 PUSH0 NOT DUP5 PUSH1 0x8 MUL PUSH2 0x577 JUMP JUMPDEST NOT DUP1 DUP4 AND SWAP2 POP POP SWAP3 SWAP2 POP POP JUMP JUMPDEST PUSH0 PUSH2 0x5AA DUP4 DUP4 PUSH2 0x583 JUMP JUMPDEST SWAP2 POP DUP3 PUSH1 0x2 MUL DUP3 OR SWAP1 POP SWAP3 SWAP2 POP POP JUMP JUMPDEST PUSH2 0x5C3 DUP3 PUSH2 0x161 JUMP JUMPDEST PUSH8 0xFFFFFFFFFFFFFFFF DUP2 GT ISZERO PUSH2 0x5DC JUMPI PUSH2 0x5DB PUSH2 0x242 JUMP JUMPDEST JUMPDEST PUSH2 0x5E6 DUP3 SLOAD PUSH2 0x3ED JUMP JUMPDEST PUSH2 0x5F1 DUP3 DUP3 DUP6 PUSH2 0x531 JUMP JUMPDEST PUSH0 PUSH1 0x20 SWAP1 POP PUSH1 0x1F DUP4 GT PUSH1 0x1 DUP2 EQ PUSH2 0x622 JUMPI PUSH0 DUP5 ISZERO PUSH2 0x610 JUMPI DUP3 DUP8 ADD MLOAD SWAP1 POP JUMPDEST PUSH2 0x61A DUP6 DUP3 PUSH2 0x59F JUMP JUMPDEST DUP7 SSTORE POP PUSH2 0x681 JUMP JUMPDEST PUSH1 0x1F NOT DUP5 AND PUSH2 0x630 DUP7 PUSH2 0x41D JUMP JUMPDEST PUSH0 JUMPDEST DUP3 DUP2 LT ISZERO PUSH2 0x657 JUMPI DUP5 DUP10 ADD MLOAD DUP3 SSTORE PUSH1 0x1 DUP3 ADD SWAP2 POP PUSH1 0x20 DUP6 ADD SWAP5 POP PUSH1 0x20 DUP2 ADD SWAP1 POP PUSH2 0x632 JUMP JUMPDEST DUP7 DUP4 LT ISZERO PUSH2 0x674 JUMPI DUP5 DUP10 ADD MLOAD PUSH2 0x670 PUSH1 0x1F DUP10 AND DUP3 PUSH2 0x583 JUMP JUMPDEST DUP4 SSTORE POP JUMPDEST PUSH1 0x1 PUSH1 0x2 DUP9 MUL ADD DUP9 SSTORE POP POP POP JUMPDEST POP POP POP POP POP POP JUMP INVALID LOG2 PUSH5 0x6970667358 0x22 SLT KECCAK256 0xDA 0x1F 0xD0 0xD3 CODECOPY ISZERO 0xD4 0xBE CALL 0xB5 0xB4 MSTORE 0xDE 0xBA SWAP10 0xB2 0x4D PUSH30 0x58F6CCB36AA4F04DB638CF41F23164736F6C634300081A00330000000000 "
				},
				"gasEstimates": {
					"creation": {
						"codeDepositCost": "345400",
						"executionCost": "infinite",
						"totalCost": "infinite"
					},
					"external": {
						"change(uint256,string)": "infinite",
						"s1()": "infinite"
					}
				},
				"methodIdentifiers": {
					"change(uint256,string)": "c75226ec",
					"s1()": "6cc014de"
				}
			},
			"storageLayout": {
				"storage": [
					{
						"astId": 9,
						"contract": "struc.sol:demo",
						"label": "s1",
						"offset": 0,
						"slot": "0",
						"type": "t_struct(student)6_storage"
					}
				],
				"types": {
					"t_string_storage": {
						"encoding": "bytes",
						"label": "string",
						"numberOfBytes": "32"
					},
					"t_struct(student)6_storage": {
						"encoding": "inplace",
						"label": "struct student",
						"members": [
							{
								"astId": 3,
								"contract": "struc.sol:demo",
								"label": "roll",
								"offset": 0,
								"slot": "0",
								"type": "t_uint256"
							},
							{
								"astId": 5,
								"contract": "struc.sol:demo",
								"label": "name",
								"offset": 0,
								"slot": "1",
								"type": "t_string_storage"
							}
						],
						"numberOfBytes": "64"
					},
					"t_uint256": {
						"encoding": "inplace",
						"label": "uint256",
						"numberOfBytes": "32"
					}
				}
			},
			"userdoc": {
				"kind": "user",
				"methods": {},
				"version": 1
			}
		}
	}
}