{
	"Toda.sol": {
		"Toda": {
			"abi": [
				{
					"inputs": [],
					"stateMutability": "nonpayable",
					"type": "constructor"
				},
				{
					"inputs": [],
					"name": "allTask",
					"outputs": [
						{
							"components": [
								{
									"internalType": "uint256",
									"name": "id",
									"type": "uint256"
								},
								{
									"internalType": "string",
									"name": "name",
									"type": "string"
								},
								{
									"internalType": "string",
									"name": "date",
									"type": "string"
								}
							],
							"internalType": "struct Toda.Task[]",
							"name": "",
							"type": "tuple[]"
						}
					],
					"stateMutability": "view",
					"type": "function"
				},
				{
					"inputs": [
						{
							"internalType": "string",
							"name": "_taskname",
							"type": "string"
						},
						{
							"internalType": "string",
							"name": "_date",
							"type": "string"
						}
					],
					"name": "createTask",
					"outputs": [],
					"stateMutability": "nonpayable",
					"type": "function"
				},
				{
					"inputs": [
						{
							"internalType": "uint256",
							"name": "_taskId",
							"type": "uint256"
						}
					],
					"name": "deleteTask",
					"outputs": [],
					"stateMutability": "nonpayable",
					"type": "function"
				},
				{
					"inputs": [
						{
							"internalType": "uint256",
							"name": "_taskId",
							"type": "uint256"
						},
						{
							"internalType": "string",
							"name": "_taskname",
							"type": "string"
						},
						{
							"internalType": "string",
							"name": "_date",
							"type": "string"
						}
					],
					"name": "updateTask",
					"outputs": [],
					"stateMutability": "nonpayable",
					"type": "function"
				},
				{
					"inputs": [
						{
							"internalType": "uint256",
							"name": "_taskId",
							"type": "uint256"
						}
					],
					"name": "viewTask",
					"outputs": [
						{
							"components": [
								{
									"internalType": "uint256",
									"name": "id",
									"type": "uint256"
								},
								{
									"internalType": "string",
									"name": "name",
									"type": "string"
								},
								{
									"internalType": "string",
									"name": "date",
									"type": "string"
								}
							],
							"internalType": "struct Toda.Task",
							"name": "",
							"type": "tuple"
						}
					],
					"stateMutability": "view",
					"type": "function"
				}
			],
			"devdoc": {
				"kind": "dev",
				"methods": {},
				"version": 1
			},
			"evm": {
				"assembly": "    /* \"Toda.sol\":69:1353  contract Toda{... */\n  mstore(0x40, 0x80)\n    /* \"Toda.sol\":279:280  1 */\n  0x01\n    /* \"Toda.sol\":265:280  uint taskId = 1 */\n  0x05\n  sstore\n    /* \"Toda.sol\":502:552  constructor(){... */\n  callvalue\n  dup1\n  iszero\n  tag_1\n  jumpi\n  0x00\n  dup1\n  revert\ntag_1:\n  pop\n    /* \"Toda.sol\":534:544  msg.sender */\n  caller\n    /* \"Toda.sol\":526:531  owner */\n  0x00\n  dup1\n    /* \"Toda.sol\":526:544  owner = msg.sender */\n  0x0100\n  exp\n  dup2\n  sload\n  dup2\n  0xffffffffffffffffffffffffffffffffffffffff\n  mul\n  not\n  and\n  swap1\n  dup4\n  0xffffffffffffffffffffffffffffffffffffffff\n  and\n  mul\n  or\n  swap1\n  sstore\n  pop\n    /* \"Toda.sol\":69:1353  contract Toda{... */\n  dataSize(sub_0)\n  dup1\n  dataOffset(sub_0)\n  0x00\n  codecopy\n  0x00\n  return\nstop\n\nsub_0: assembly {\n        /* \"Toda.sol\":69:1353  contract Toda{... */\n      mstore(0x40, 0x80)\n      callvalue\n      dup1\n      iszero\n      tag_1\n      jumpi\n      0x00\n      dup1\n      revert\n    tag_1:\n      pop\n      jumpi(tag_2, lt(calldatasize, 0x04))\n      shr(0xe0, calldataload(0x00))\n      dup1\n      0x292a4585\n      eq\n      tag_3\n      jumpi\n      dup1\n      0x3b3d7e56\n      eq\n      tag_4\n      jumpi\n      dup1\n      0x560f3192\n      eq\n      tag_5\n      jumpi\n      dup1\n      0x997c21a5\n      eq\n      tag_6\n      jumpi\n      dup1\n      0xc72ef41f\n      eq\n      tag_7\n      jumpi\n    tag_2:\n      0x00\n      dup1\n      revert\n        /* \"Toda.sol\":560:719  function createTask(string calldata _taskname,string calldata _date)  public {... */\n    tag_3:\n      tag_8\n      0x04\n      dup1\n      calldatasize\n      sub\n      dup2\n      add\n      swap1\n      tag_9\n      swap2\n      swap1\n      tag_10\n      jump\t// in\n    tag_9:\n      tag_11\n      jump\t// in\n    tag_8:\n      stop\n        /* \"Toda.sol\":1123:1244  function viewTask(uint _taskId) checkId(_taskId) public view returns(Task memory){... */\n    tag_4:\n      tag_12\n      0x04\n      dup1\n      calldatasize\n      sub\n      dup2\n      add\n      swap1\n      tag_13\n      swap2\n      swap1\n      tag_14\n      jump\t// in\n    tag_13:\n      tag_15\n      jump\t// in\n    tag_12:\n      mload(0x40)\n      tag_16\n      swap2\n      swap1\n      tag_17\n      jump\t// in\n    tag_16:\n      mload(0x40)\n      dup1\n      swap2\n      sub\n      swap1\n      return\n        /* \"Toda.sol\":1252:1350  function deleteTask(uint _taskId) checkId(_taskId) public {... */\n    tag_5:\n      tag_18\n      0x04\n      dup1\n      calldatasize\n      sub\n      dup2\n      add\n      swap1\n      tag_19\n      swap2\n      swap1\n      tag_14\n      jump\t// in\n    tag_19:\n      tag_20\n      jump\t// in\n    tag_18:\n      stop\n        /* \"Toda.sol\":885:1115  function allTask() public view returns(Task[] memory){... */\n    tag_6:\n      tag_21\n      tag_22\n      jump\t// in\n    tag_21:\n      mload(0x40)\n      tag_23\n      swap2\n      swap1\n      tag_24\n      jump\t// in\n    tag_23:\n      mload(0x40)\n      dup1\n      swap2\n      sub\n      swap1\n      return\n        /* \"Toda.sol\":725:879  function updateTask(uint _taskId,string calldata _taskname,string calldata _date)  public{... */\n    tag_7:\n      tag_25\n      0x04\n      dup1\n      calldatasize\n      sub\n      dup2\n      add\n      swap1\n      tag_26\n      swap2\n      swap1\n      tag_27\n      jump\t// in\n    tag_26:\n      tag_28\n      jump\t// in\n    tag_25:\n      stop\n        /* \"Toda.sol\":560:719  function createTask(string calldata _taskname,string calldata _date)  public {... */\n    tag_11:\n        /* \"Toda.sol\":664:692  Task(taskId,_taskname,_date) */\n      mload(0x40)\n      dup1\n      0x60\n      add\n      0x40\n      mstore\n      dup1\n        /* \"Toda.sol\":669:675  taskId */\n      sload(0x05)\n        /* \"Toda.sol\":664:692  Task(taskId,_taskname,_date) */\n      dup2\n      mstore\n      0x20\n      add\n        /* \"Toda.sol\":676:685  _taskname */\n      dup6\n      dup6\n        /* \"Toda.sol\":664:692  Task(taskId,_taskname,_date) */\n      dup1\n      dup1\n      0x1f\n      add\n      0x20\n      dup1\n      swap2\n      div\n      mul\n      0x20\n      add\n      mload(0x40)\n      swap1\n      dup2\n      add\n      0x40\n      mstore\n      dup1\n      swap4\n      swap3\n      swap2\n      swap1\n      dup2\n      dup2\n      mstore\n      0x20\n      add\n      dup4\n      dup4\n      dup1\n      dup3\n      dup5\n      calldatacopy\n      0x00\n      dup2\n      dup5\n      add\n      mstore\n      not(0x1f)\n      0x1f\n      dup3\n      add\n      and\n      swap1\n      pop\n      dup1\n      dup4\n      add\n      swap3\n      pop\n      pop\n      pop\n      pop\n      pop\n      pop\n      pop\n      dup2\n      mstore\n      0x20\n      add\n        /* \"Toda.sol\":686:691  _date */\n      dup4\n      dup4\n        /* \"Toda.sol\":664:692  Task(taskId,_taskname,_date) */\n      dup1\n      dup1\n      0x1f\n      add\n      0x20\n      dup1\n      swap2\n      div\n      mul\n      0x20\n      add\n      mload(0x40)\n      swap1\n      dup2\n      add\n      0x40\n      mstore\n      dup1\n      swap4\n      swap3\n      swap2\n      swap1\n      dup2\n      dup2\n      mstore\n      0x20\n      add\n      dup4\n      dup4\n      dup1\n      dup3\n      dup5\n      calldatacopy\n      0x00\n      dup2\n      dup5\n      add\n      mstore\n      not(0x1f)\n      0x1f\n      dup3\n      add\n      and\n      swap1\n      pop\n      dup1\n      dup4\n      add\n      swap3\n      pop\n      pop\n      pop\n      pop\n      pop\n      pop\n      pop\n      dup2\n      mstore\n      pop\n        /* \"Toda.sol\":648:653  tasks */\n      0x04\n        /* \"Toda.sol\":648:661  tasks[taskId] */\n      0x00\n        /* \"Toda.sol\":654:660  taskId */\n      sload(0x05)\n        /* \"Toda.sol\":648:661  tasks[taskId] */\n      dup2\n      mstore\n      0x20\n      add\n      swap1\n      dup2\n      mstore\n      0x20\n      add\n      0x00\n      keccak256\n        /* \"Toda.sol\":648:692  tasks[taskId] = Task(taskId,_taskname,_date) */\n      0x00\n      dup3\n      add\n      mload\n      dup2\n      0x00\n      add\n      sstore\n      0x20\n      dup3\n      add\n      mload\n      dup2\n      0x01\n      add\n      swap1\n      dup2\n      tag_30\n      swap2\n      swap1\n      tag_31\n      jump\t// in\n    tag_30:\n      pop\n      0x40\n      dup3\n      add\n      mload\n      dup2\n      0x02\n      add\n      swap1\n      dup2\n      tag_32\n      swap2\n      swap1\n      tag_31\n      jump\t// in\n    tag_32:\n      pop\n      swap1\n      pop\n      pop\n        /* \"Toda.sol\":703:709  taskId */\n      0x05\n      0x00\n        /* \"Toda.sol\":703:711  taskId++ */\n      dup2\n      sload\n      dup1\n      swap3\n      swap2\n      swap1\n      tag_33\n      swap1\n      tag_34\n      jump\t// in\n    tag_33:\n      swap2\n      swap1\n      pop\n      sstore\n      pop\n        /* \"Toda.sol\":560:719  function createTask(string calldata _taskname,string calldata _date)  public {... */\n      pop\n      pop\n      pop\n      pop\n      jump\t// out\n        /* \"Toda.sol\":1123:1244  function viewTask(uint _taskId) checkId(_taskId) public view returns(Task memory){... */\n    tag_15:\n        /* \"Toda.sol\":1192:1203  Task memory */\n      tag_35\n      tag_36\n      jump\t// in\n    tag_35:\n        /* \"Toda.sol\":1163:1170  _taskId */\n      dup2\n        /* \"Toda.sol\":346:347  0 */\n      0x00\n        /* \"Toda.sol\":342:344  id */\n      dup2\n        /* \"Toda.sol\":342:347  id!=0 */\n      eq\n      iszero\n        /* \"Toda.sol\":342:360  id!=0 && id<taskId */\n      dup1\n      iszero\n      tag_38\n      jumpi\n      pop\n        /* \"Toda.sol\":354:360  taskId */\n      sload(0x05)\n        /* \"Toda.sol\":351:353  id */\n      dup2\n        /* \"Toda.sol\":351:360  id<taskId */\n      lt\n        /* \"Toda.sol\":342:360  id!=0 && id<taskId */\n    tag_38:\n        /* \"Toda.sol\":334:374  require(id!=0 && id<taskId,\"invalid id\") */\n      tag_39\n      jumpi\n      mload(0x40)\n      0x08c379a000000000000000000000000000000000000000000000000000000000\n      dup2\n      mstore\n      0x04\n      add\n      tag_40\n      swap1\n      tag_41\n      jump\t// in\n    tag_40:\n      mload(0x40)\n      dup1\n      swap2\n      sub\n      swap1\n      revert\n    tag_39:\n        /* \"Toda.sol\":1222:1227  tasks */\n      0x04\n        /* \"Toda.sol\":1222:1236  tasks[_taskId] */\n      0x00\n        /* \"Toda.sol\":1228:1235  _taskId */\n      dup5\n        /* \"Toda.sol\":1222:1236  tasks[_taskId] */\n      dup2\n      mstore\n      0x20\n      add\n      swap1\n      dup2\n      mstore\n      0x20\n      add\n      0x00\n      keccak256\n        /* \"Toda.sol\":1215:1236  return tasks[_taskId] */\n      mload(0x40)\n      dup1\n      0x60\n      add\n      0x40\n      mstore\n      swap1\n      dup2\n      0x00\n      dup3\n      add\n      sload\n      dup2\n      mstore\n      0x20\n      add\n      0x01\n      dup3\n      add\n      dup1\n      sload\n      tag_43\n      swap1\n      tag_44\n      jump\t// in\n    tag_43:\n      dup1\n      0x1f\n      add\n      0x20\n      dup1\n      swap2\n      div\n      mul\n      0x20\n      add\n      mload(0x40)\n      swap1\n      dup2\n      add\n      0x40\n      mstore\n      dup1\n      swap3\n      swap2\n      swap1\n      dup2\n      dup2\n      mstore\n      0x20\n      add\n      dup3\n      dup1\n      sload\n      tag_45\n      swap1\n      tag_44\n      jump\t// in\n    tag_45:\n      dup1\n      iszero\n      tag_46\n      jumpi\n      dup1\n      0x1f\n      lt\n      tag_47\n      jumpi\n      0x0100\n      dup1\n      dup4\n      sload\n      div\n      mul\n      dup4\n      mstore\n      swap2\n      0x20\n      add\n      swap2\n      jump(tag_46)\n    tag_47:\n      dup3\n      add\n      swap2\n      swap1\n      0x00\n      mstore\n      keccak256(0x00, 0x20)\n      swap1\n    tag_48:\n      dup2\n      sload\n      dup2\n      mstore\n      swap1\n      0x01\n      add\n      swap1\n      0x20\n      add\n      dup1\n      dup4\n      gt\n      tag_48\n      jumpi\n      dup3\n      swap1\n      sub\n      0x1f\n      and\n      dup3\n      add\n      swap2\n    tag_46:\n      pop\n      pop\n      pop\n      pop\n      pop\n      dup2\n      mstore\n      0x20\n      add\n      0x02\n      dup3\n      add\n      dup1\n      sload\n      tag_49\n      swap1\n      tag_44\n      jump\t// in\n    tag_49:\n      dup1\n      0x1f\n      add\n      0x20\n      dup1\n      swap2\n      div\n      mul\n      0x20\n      add\n      mload(0x40)\n      swap1\n      dup2\n      add\n      0x40\n      mstore\n      dup1\n      swap3\n      swap2\n      swap1\n      dup2\n      dup2\n      mstore\n      0x20\n      add\n      dup3\n      dup1\n      sload\n      tag_50\n      swap1\n      tag_44\n      jump\t// in\n    tag_50:\n      dup1\n      iszero\n      tag_51\n      jumpi\n      dup1\n      0x1f\n      lt\n      tag_52\n      jumpi\n      0x0100\n      dup1\n      dup4\n      sload\n      div\n      mul\n      dup4\n      mstore\n      swap2\n      0x20\n      add\n      swap2\n      jump(tag_51)\n    tag_52:\n      dup3\n      add\n      swap2\n      swap1\n      0x00\n      mstore\n      keccak256(0x00, 0x20)\n      swap1\n    tag_53:\n      dup2\n      sload\n      dup2\n      mstore\n      swap1\n      0x01\n      add\n      swap1\n      0x20\n      add\n      dup1\n      dup4\n      gt\n      tag_53\n      jumpi\n      dup3\n      swap1\n      sub\n      0x1f\n      and\n      dup3\n      add\n      swap2\n    tag_51:\n      pop\n      pop\n      pop\n      pop\n      pop\n      dup2\n      mstore\n      pop\n      pop\n      swap2\n      pop\n        /* \"Toda.sol\":1123:1244  function viewTask(uint _taskId) checkId(_taskId) public view returns(Task memory){... */\n      pop\n      swap2\n      swap1\n      pop\n      jump\t// out\n        /* \"Toda.sol\":1252:1350  function deleteTask(uint _taskId) checkId(_taskId) public {... */\n    tag_20:\n        /* \"Toda.sol\":1294:1301  _taskId */\n      dup1\n        /* \"Toda.sol\":346:347  0 */\n      0x00\n        /* \"Toda.sol\":342:344  id */\n      dup2\n        /* \"Toda.sol\":342:347  id!=0 */\n      eq\n      iszero\n        /* \"Toda.sol\":342:360  id!=0 && id<taskId */\n      dup1\n      iszero\n      tag_55\n      jumpi\n      pop\n        /* \"Toda.sol\":354:360  taskId */\n      sload(0x05)\n        /* \"Toda.sol\":351:353  id */\n      dup2\n        /* \"Toda.sol\":351:360  id<taskId */\n      lt\n        /* \"Toda.sol\":342:360  id!=0 && id<taskId */\n    tag_55:\n        /* \"Toda.sol\":334:374  require(id!=0 && id<taskId,\"invalid id\") */\n      tag_56\n      jumpi\n      mload(0x40)\n      0x08c379a000000000000000000000000000000000000000000000000000000000\n      dup2\n      mstore\n      0x04\n      add\n      tag_57\n      swap1\n      tag_41\n      jump\t// in\n    tag_57:\n      mload(0x40)\n      dup1\n      swap2\n      sub\n      swap1\n      revert\n    tag_56:\n        /* \"Toda.sol\":1328:1333  tasks */\n      0x04\n        /* \"Toda.sol\":1328:1342  tasks[_taskId] */\n      0x00\n        /* \"Toda.sol\":1334:1341  _taskId */\n      dup4\n        /* \"Toda.sol\":1328:1342  tasks[_taskId] */\n      dup2\n      mstore\n      0x20\n      add\n      swap1\n      dup2\n      mstore\n      0x20\n      add\n      0x00\n      keccak256\n      0x00\n        /* \"Toda.sol\":1321:1342  delete tasks[_taskId] */\n      dup1\n      dup3\n      add\n      0x00\n      swap1\n      sstore\n      0x01\n      dup3\n      add\n      0x00\n      tag_59\n      swap2\n      swap1\n      tag_60\n      jump\t// in\n    tag_59:\n      0x02\n      dup3\n      add\n      0x00\n      tag_61\n      swap2\n      swap1\n      tag_60\n      jump\t// in\n    tag_61:\n      pop\n      pop\n        /* \"Toda.sol\":1252:1350  function deleteTask(uint _taskId) checkId(_taskId) public {... */\n      pop\n      pop\n      jump\t// out\n        /* \"Toda.sol\":885:1115  function allTask() public view returns(Task[] memory){... */\n    tag_22:\n        /* \"Toda.sol\":924:937  Task[] memory */\n      0x60\n        /* \"Toda.sol\":949:971  Task[] memory taskList */\n      0x00\n        /* \"Toda.sol\":992:993  1 */\n      0x01\n        /* \"Toda.sol\":985:991  taskId */\n      sload(0x05)\n        /* \"Toda.sol\":985:993  taskId-1 */\n      tag_63\n      swap2\n      swap1\n      tag_64\n      jump\t// in\n    tag_63:\n        /* \"Toda.sol\":974:994  new Task[](taskId-1) */\n      0xffffffffffffffff\n      dup2\n      gt\n      iszero\n      tag_65\n      jumpi\n      tag_66\n      tag_67\n      jump\t// in\n    tag_66:\n    tag_65:\n      mload(0x40)\n      swap1\n      dup1\n      dup3\n      mstore\n      dup1\n      0x20\n      mul\n      0x20\n      add\n      dup3\n      add\n      0x40\n      mstore\n      dup1\n      iszero\n      tag_68\n      jumpi\n      dup2\n      0x20\n      add\n    tag_69:\n      tag_70\n      tag_36\n      jump\t// in\n    tag_70:\n      dup2\n      mstore\n      0x20\n      add\n      swap1\n      0x01\n      swap1\n      sub\n      swap1\n      dup2\n      tag_69\n      jumpi\n      swap1\n      pop\n    tag_68:\n      pop\n        /* \"Toda.sol\":949:994  Task[] memory taskList = new Task[](taskId-1) */\n      swap1\n      pop\n        /* \"Toda.sol\":1009:1015  uint i */\n      0x00\n        /* \"Toda.sol\":1005:1082  for(uint i=0;i<taskId-1;i++){... */\n    tag_71:\n        /* \"Toda.sol\":1027:1028  1 */\n      0x01\n        /* \"Toda.sol\":1020:1026  taskId */\n      sload(0x05)\n        /* \"Toda.sol\":1020:1028  taskId-1 */\n      tag_74\n      swap2\n      swap1\n      tag_64\n      jump\t// in\n    tag_74:\n        /* \"Toda.sol\":1018:1019  i */\n      dup2\n        /* \"Toda.sol\":1018:1028  i<taskId-1 */\n      lt\n        /* \"Toda.sol\":1005:1082  for(uint i=0;i<taskId-1;i++){... */\n      iszero\n      tag_72\n      jumpi\n        /* \"Toda.sol\":1060:1065  tasks */\n      0x04\n        /* \"Toda.sol\":1060:1070  tasks[i+1] */\n      0x00\n        /* \"Toda.sol\":1068:1069  1 */\n      0x01\n        /* \"Toda.sol\":1066:1067  i */\n      dup4\n        /* \"Toda.sol\":1066:1069  i+1 */\n      tag_75\n      swap2\n      swap1\n      tag_76\n      jump\t// in\n    tag_75:\n        /* \"Toda.sol\":1060:1070  tasks[i+1] */\n      dup2\n      mstore\n      0x20\n      add\n      swap1\n      dup2\n      mstore\n      0x20\n      add\n      0x00\n      keccak256\n        /* \"Toda.sol\":1048:1070  taskList[i]=tasks[i+1] */\n      mload(0x40)\n      dup1\n      0x60\n      add\n      0x40\n      mstore\n      swap1\n      dup2\n      0x00\n      dup3\n      add\n      sload\n      dup2\n      mstore\n      0x20\n      add\n      0x01\n      dup3\n      add\n      dup1\n      sload\n      tag_77\n      swap1\n      tag_44\n      jump\t// in\n    tag_77:\n      dup1\n      0x1f\n      add\n      0x20\n      dup1\n      swap2\n      div\n      mul\n      0x20\n      add\n      mload(0x40)\n      swap1\n      dup2\n      add\n      0x40\n      mstore\n      dup1\n      swap3\n      swap2\n      swap1\n      dup2\n      dup2\n      mstore\n      0x20\n      add\n      dup3\n      dup1\n      sload\n      tag_78\n      swap1\n      tag_44\n      jump\t// in\n    tag_78:\n      dup1\n      iszero\n      tag_79\n      jumpi\n      dup1\n      0x1f\n      lt\n      tag_80\n      jumpi\n      0x0100\n      dup1\n      dup4\n      sload\n      div\n      mul\n      dup4\n      mstore\n      swap2\n      0x20\n      add\n      swap2\n      jump(tag_79)\n    tag_80:\n      dup3\n      add\n      swap2\n      swap1\n      0x00\n      mstore\n      keccak256(0x00, 0x20)\n      swap1\n    tag_81:\n      dup2\n      sload\n      dup2\n      mstore\n      swap1\n      0x01\n      add\n      swap1\n      0x20\n      add\n      dup1\n      dup4\n      gt\n      tag_81\n      jumpi\n      dup3\n      swap1\n      sub\n      0x1f\n      and\n      dup3\n      add\n      swap2\n    tag_79:\n      pop\n      pop\n      pop\n      pop\n      pop\n      dup2\n      mstore\n      0x20\n      add\n      0x02\n      dup3\n      add\n      dup1\n      sload\n      tag_82\n      swap1\n      tag_44\n      jump\t// in\n    tag_82:\n      dup1\n      0x1f\n      add\n      0x20\n      dup1\n      swap2\n      div\n      mul\n      0x20\n      add\n      mload(0x40)\n      swap1\n      dup2\n      add\n      0x40\n      mstore\n      dup1\n      swap3\n      swap2\n      swap1\n      dup2\n      dup2\n      mstore\n      0x20\n      add\n      dup3\n      dup1\n      sload\n      tag_83\n      swap1\n      tag_44\n      jump\t// in\n    tag_83:\n      dup1\n      iszero\n      tag_84\n      jumpi\n      dup1\n      0x1f\n      lt\n      tag_85\n      jumpi\n      0x0100\n      dup1\n      dup4\n      sload\n      div\n      mul\n      dup4\n      mstore\n      swap2\n      0x20\n      add\n      swap2\n      jump(tag_84)\n    tag_85:\n      dup3\n      add\n      swap2\n      swap1\n      0x00\n      mstore\n      keccak256(0x00, 0x20)\n      swap1\n    tag_86:\n      dup2\n      sload\n      dup2\n      mstore\n      swap1\n      0x01\n      add\n      swap1\n      0x20\n      add\n      dup1\n      dup4\n      gt\n      tag_86\n      jumpi\n      dup3\n      swap1\n      sub\n      0x1f\n      and\n      dup3\n      add\n      swap2\n    tag_84:\n      pop\n      pop\n      pop\n      pop\n      pop\n      dup2\n      mstore\n      pop\n      pop\n        /* \"Toda.sol\":1048:1056  taskList */\n      dup3\n        /* \"Toda.sol\":1057:1058  i */\n      dup3\n        /* \"Toda.sol\":1048:1059  taskList[i] */\n      dup2\n      mload\n      dup2\n      lt\n      tag_87\n      jumpi\n      tag_88\n      tag_89\n      jump\t// in\n    tag_88:\n    tag_87:\n      0x20\n      mul\n      0x20\n      add\n      add\n        /* \"Toda.sol\":1048:1070  taskList[i]=tasks[i+1] */\n      dup2\n      swap1\n      mstore\n      pop\n        /* \"Toda.sol\":1029:1032  i++ */\n      dup1\n      dup1\n      0x01\n      add\n      swap2\n      pop\n      pop\n        /* \"Toda.sol\":1005:1082  for(uint i=0;i<taskId-1;i++){... */\n      jump(tag_71)\n    tag_72:\n      pop\n        /* \"Toda.sol\":1099:1107  taskList */\n      dup1\n        /* \"Toda.sol\":1092:1107  return taskList */\n      swap2\n      pop\n      pop\n        /* \"Toda.sol\":885:1115  function allTask() public view returns(Task[] memory){... */\n      swap1\n      jump\t// out\n        /* \"Toda.sol\":725:879  function updateTask(uint _taskId,string calldata _taskname,string calldata _date)  public{... */\n    tag_28:\n        /* \"Toda.sol\":842:871  Task(_taskId,_taskname,_date) */\n      mload(0x40)\n      dup1\n      0x60\n      add\n      0x40\n      mstore\n      dup1\n        /* \"Toda.sol\":847:854  _taskId */\n      dup7\n        /* \"Toda.sol\":842:871  Task(_taskId,_taskname,_date) */\n      dup2\n      mstore\n      0x20\n      add\n        /* \"Toda.sol\":855:864  _taskname */\n      dup6\n      dup6\n        /* \"Toda.sol\":842:871  Task(_taskId,_taskname,_date) */\n      dup1\n      dup1\n      0x1f\n      add\n      0x20\n      dup1\n      swap2\n      div\n      mul\n      0x20\n      add\n      mload(0x40)\n      swap1\n      dup2\n      add\n      0x40\n      mstore\n      dup1\n      swap4\n      swap3\n      swap2\n      swap1\n      dup2\n      dup2\n      mstore\n      0x20\n      add\n      dup4\n      dup4\n      dup1\n      dup3\n      dup5\n      calldatacopy\n      0x00\n      dup2\n      dup5\n      add\n      mstore\n      not(0x1f)\n      0x1f\n      dup3\n      add\n      and\n      swap1\n      pop\n      dup1\n      dup4\n      add\n      swap3\n      pop\n      pop\n      pop\n      pop\n      pop\n      pop\n      pop\n      dup2\n      mstore\n      0x20\n      add\n        /* \"Toda.sol\":865:870  _date */\n      dup4\n      dup4\n        /* \"Toda.sol\":842:871  Task(_taskId,_taskname,_date) */\n      dup1\n      dup1\n      0x1f\n      add\n      0x20\n      dup1\n      swap2\n      div\n      mul\n      0x20\n      add\n      mload(0x40)\n      swap1\n      dup2\n      add\n      0x40\n      mstore\n      dup1\n      swap4\n      swap3\n      swap2\n      swap1\n      dup2\n      dup2\n      mstore\n      0x20\n      add\n      dup4\n      dup4\n      dup1\n      dup3\n      dup5\n      calldatacopy\n      0x00\n      dup2\n      dup5\n      add\n      mstore\n      not(0x1f)\n      0x1f\n      dup3\n      add\n      and\n      swap1\n      pop\n      dup1\n      dup4\n      add\n      swap3\n      pop\n      pop\n      pop\n      pop\n      pop\n      pop\n      pop\n      dup2\n      mstore\n      pop\n        /* \"Toda.sol\":825:830  tasks */\n      0x04\n        /* \"Toda.sol\":825:839  tasks[_taskId] */\n      0x00\n        /* \"Toda.sol\":831:838  _taskId */\n      dup8\n        /* \"Toda.sol\":825:839  tasks[_taskId] */\n      dup2\n      mstore\n      0x20\n      add\n      swap1\n      dup2\n      mstore\n      0x20\n      add\n      0x00\n      keccak256\n        /* \"Toda.sol\":825:871  tasks[_taskId] = Task(_taskId,_taskname,_date) */\n      0x00\n      dup3\n      add\n      mload\n      dup2\n      0x00\n      add\n      sstore\n      0x20\n      dup3\n      add\n      mload\n      dup2\n      0x01\n      add\n      swap1\n      dup2\n      tag_91\n      swap2\n      swap1\n      tag_31\n      jump\t// in\n    tag_91:\n      pop\n      0x40\n      dup3\n      add\n      mload\n      dup2\n      0x02\n      add\n      swap1\n      dup2\n      tag_92\n      swap2\n      swap1\n      tag_31\n      jump\t// in\n    tag_92:\n      pop\n      swap1\n      pop\n      pop\n        /* \"Toda.sol\":725:879  function updateTask(uint _taskId,string calldata _taskname,string calldata _date)  public{... */\n      pop\n      pop\n      pop\n      pop\n      pop\n      jump\t// out\n    tag_36:\n      mload(0x40)\n      dup1\n      0x60\n      add\n      0x40\n      mstore\n      dup1\n      0x00\n      dup2\n      mstore\n      0x20\n      add\n      0x60\n      dup2\n      mstore\n      0x20\n      add\n      0x60\n      dup2\n      mstore\n      pop\n      swap1\n      jump\t// out\n    tag_60:\n      pop\n      dup1\n      sload\n      tag_93\n      swap1\n      tag_44\n      jump\t// in\n    tag_93:\n      0x00\n      dup3\n      sstore\n      dup1\n      0x1f\n      lt\n      tag_95\n      jumpi\n      pop\n      jump(tag_94)\n    tag_95:\n      0x1f\n      add\n      0x20\n      swap1\n      div\n      swap1\n      0x00\n      mstore\n      keccak256(0x00, 0x20)\n      swap1\n      dup2\n      add\n      swap1\n      tag_96\n      swap2\n      swap1\n      tag_97\n      jump\t// in\n    tag_96:\n    tag_94:\n      pop\n      jump\t// out\n    tag_97:\n    tag_98:\n      dup1\n      dup3\n      gt\n      iszero\n      tag_99\n      jumpi\n      0x00\n      dup2\n      0x00\n      swap1\n      sstore\n      pop\n      0x01\n      add\n      jump(tag_98)\n    tag_99:\n      pop\n      swap1\n      jump\t// out\n        /* \"#utility.yul\":88:205   */\n    tag_101:\n        /* \"#utility.yul\":197:198   */\n      0x00\n        /* \"#utility.yul\":194:195   */\n      dup1\n        /* \"#utility.yul\":187:199   */\n      revert\n        /* \"#utility.yul\":211:328   */\n    tag_102:\n        /* \"#utility.yul\":320:321   */\n      0x00\n        /* \"#utility.yul\":317:318   */\n      dup1\n        /* \"#utility.yul\":310:322   */\n      revert\n        /* \"#utility.yul\":334:451   */\n    tag_103:\n        /* \"#utility.yul\":443:444   */\n      0x00\n        /* \"#utility.yul\":440:441   */\n      dup1\n        /* \"#utility.yul\":433:445   */\n      revert\n        /* \"#utility.yul\":457:574   */\n    tag_104:\n        /* \"#utility.yul\":566:567   */\n      0x00\n        /* \"#utility.yul\":563:564   */\n      dup1\n        /* \"#utility.yul\":556:568   */\n      revert\n        /* \"#utility.yul\":580:697   */\n    tag_105:\n        /* \"#utility.yul\":689:690   */\n      0x00\n        /* \"#utility.yul\":686:687   */\n      dup1\n        /* \"#utility.yul\":679:691   */\n      revert\n        /* \"#utility.yul\":717:1270   */\n    tag_106:\n        /* \"#utility.yul\":775:783   */\n      0x00\n        /* \"#utility.yul\":785:791   */\n      dup1\n        /* \"#utility.yul\":835:838   */\n      dup4\n        /* \"#utility.yul\":828:832   */\n      0x1f\n        /* \"#utility.yul\":820:826   */\n      dup5\n        /* \"#utility.yul\":816:833   */\n      add\n        /* \"#utility.yul\":812:839   */\n      slt\n        /* \"#utility.yul\":802:924   */\n      tag_152\n      jumpi\n        /* \"#utility.yul\":843:922   */\n      tag_153\n      tag_103\n      jump\t// in\n    tag_153:\n        /* \"#utility.yul\":802:924   */\n    tag_152:\n        /* \"#utility.yul\":956:962   */\n      dup3\n        /* \"#utility.yul\":943:963   */\n      calldataload\n        /* \"#utility.yul\":933:963   */\n      swap1\n      pop\n        /* \"#utility.yul\":986:1004   */\n      0xffffffffffffffff\n        /* \"#utility.yul\":978:984   */\n      dup2\n        /* \"#utility.yul\":975:1005   */\n      gt\n        /* \"#utility.yul\":972:1089   */\n      iszero\n      tag_154\n      jumpi\n        /* \"#utility.yul\":1008:1087   */\n      tag_155\n      tag_104\n      jump\t// in\n    tag_155:\n        /* \"#utility.yul\":972:1089   */\n    tag_154:\n        /* \"#utility.yul\":1122:1126   */\n      0x20\n        /* \"#utility.yul\":1114:1120   */\n      dup4\n        /* \"#utility.yul\":1110:1127   */\n      add\n        /* \"#utility.yul\":1098:1127   */\n      swap2\n      pop\n        /* \"#utility.yul\":1176:1179   */\n      dup4\n        /* \"#utility.yul\":1168:1172   */\n      0x01\n        /* \"#utility.yul\":1160:1166   */\n      dup3\n        /* \"#utility.yul\":1156:1173   */\n      mul\n        /* \"#utility.yul\":1146:1154   */\n      dup4\n        /* \"#utility.yul\":1142:1174   */\n      add\n        /* \"#utility.yul\":1139:1180   */\n      gt\n        /* \"#utility.yul\":1136:1264   */\n      iszero\n      tag_156\n      jumpi\n        /* \"#utility.yul\":1183:1262   */\n      tag_157\n      tag_105\n      jump\t// in\n    tag_157:\n        /* \"#utility.yul\":1136:1264   */\n    tag_156:\n        /* \"#utility.yul\":717:1270   */\n      swap3\n      pop\n      swap3\n      swap1\n      pop\n      jump\t// out\n        /* \"#utility.yul\":1276:2150   */\n    tag_10:\n        /* \"#utility.yul\":1368:1374   */\n      0x00\n        /* \"#utility.yul\":1376:1382   */\n      dup1\n        /* \"#utility.yul\":1384:1390   */\n      0x00\n        /* \"#utility.yul\":1392:1398   */\n      dup1\n        /* \"#utility.yul\":1441:1443   */\n      0x40\n        /* \"#utility.yul\":1429:1438   */\n      dup6\n        /* \"#utility.yul\":1420:1427   */\n      dup8\n        /* \"#utility.yul\":1416:1439   */\n      sub\n        /* \"#utility.yul\":1412:1444   */\n      slt\n        /* \"#utility.yul\":1409:1528   */\n      iszero\n      tag_159\n      jumpi\n        /* \"#utility.yul\":1447:1526   */\n      tag_160\n      tag_101\n      jump\t// in\n    tag_160:\n        /* \"#utility.yul\":1409:1528   */\n    tag_159:\n        /* \"#utility.yul\":1595:1596   */\n      0x00\n        /* \"#utility.yul\":1584:1593   */\n      dup6\n        /* \"#utility.yul\":1580:1597   */\n      add\n        /* \"#utility.yul\":1567:1598   */\n      calldataload\n        /* \"#utility.yul\":1625:1643   */\n      0xffffffffffffffff\n        /* \"#utility.yul\":1617:1623   */\n      dup2\n        /* \"#utility.yul\":1614:1644   */\n      gt\n        /* \"#utility.yul\":1611:1728   */\n      iszero\n      tag_161\n      jumpi\n        /* \"#utility.yul\":1647:1726   */\n      tag_162\n      tag_102\n      jump\t// in\n    tag_162:\n        /* \"#utility.yul\":1611:1728   */\n    tag_161:\n        /* \"#utility.yul\":1760:1825   */\n      tag_163\n        /* \"#utility.yul\":1817:1824   */\n      dup8\n        /* \"#utility.yul\":1808:1814   */\n      dup3\n        /* \"#utility.yul\":1797:1806   */\n      dup9\n        /* \"#utility.yul\":1793:1815   */\n      add\n        /* \"#utility.yul\":1760:1825   */\n      tag_106\n      jump\t// in\n    tag_163:\n        /* \"#utility.yul\":1742:1825   */\n      swap5\n      pop\n      swap5\n      pop\n        /* \"#utility.yul\":1538:1835   */\n      pop\n        /* \"#utility.yul\":1902:1904   */\n      0x20\n        /* \"#utility.yul\":1891:1900   */\n      dup6\n        /* \"#utility.yul\":1887:1905   */\n      add\n        /* \"#utility.yul\":1874:1906   */\n      calldataload\n        /* \"#utility.yul\":1933:1951   */\n      0xffffffffffffffff\n        /* \"#utility.yul\":1925:1931   */\n      dup2\n        /* \"#utility.yul\":1922:1952   */\n      gt\n        /* \"#utility.yul\":1919:2036   */\n      iszero\n      tag_164\n      jumpi\n        /* \"#utility.yul\":1955:2034   */\n      tag_165\n      tag_102\n      jump\t// in\n    tag_165:\n        /* \"#utility.yul\":1919:2036   */\n    tag_164:\n        /* \"#utility.yul\":2068:2133   */\n      tag_166\n        /* \"#utility.yul\":2125:2132   */\n      dup8\n        /* \"#utility.yul\":2116:2122   */\n      dup3\n        /* \"#utility.yul\":2105:2114   */\n      dup9\n        /* \"#utility.yul\":2101:2123   */\n      add\n        /* \"#utility.yul\":2068:2133   */\n      tag_106\n      jump\t// in\n    tag_166:\n        /* \"#utility.yul\":2050:2133   */\n      swap3\n      pop\n      swap3\n      pop\n        /* \"#utility.yul\":1845:2143   */\n      pop\n        /* \"#utility.yul\":1276:2150   */\n      swap3\n      swap6\n      swap2\n      swap5\n      pop\n      swap3\n      pop\n      jump\t// out\n        /* \"#utility.yul\":2156:2233   */\n    tag_107:\n        /* \"#utility.yul\":2193:2200   */\n      0x00\n        /* \"#utility.yul\":2222:2227   */\n      dup2\n        /* \"#utility.yul\":2211:2227   */\n      swap1\n      pop\n        /* \"#utility.yul\":2156:2233   */\n      swap2\n      swap1\n      pop\n      jump\t// out\n        /* \"#utility.yul\":2239:2361   */\n    tag_108:\n        /* \"#utility.yul\":2312:2336   */\n      tag_169\n        /* \"#utility.yul\":2330:2335   */\n      dup2\n        /* \"#utility.yul\":2312:2336   */\n      tag_107\n      jump\t// in\n    tag_169:\n        /* \"#utility.yul\":2305:2310   */\n      dup2\n        /* \"#utility.yul\":2302:2337   */\n      eq\n        /* \"#utility.yul\":2292:2355   */\n      tag_170\n      jumpi\n        /* \"#utility.yul\":2351:2352   */\n      0x00\n        /* \"#utility.yul\":2348:2349   */\n      dup1\n        /* \"#utility.yul\":2341:2353   */\n      revert\n        /* \"#utility.yul\":2292:2355   */\n    tag_170:\n        /* \"#utility.yul\":2239:2361   */\n      pop\n      jump\t// out\n        /* \"#utility.yul\":2367:2506   */\n    tag_109:\n        /* \"#utility.yul\":2413:2418   */\n      0x00\n        /* \"#utility.yul\":2451:2457   */\n      dup2\n        /* \"#utility.yul\":2438:2458   */\n      calldataload\n        /* \"#utility.yul\":2429:2458   */\n      swap1\n      pop\n        /* \"#utility.yul\":2467:2500   */\n      tag_172\n        /* \"#utility.yul\":2494:2499   */\n      dup2\n        /* \"#utility.yul\":2467:2500   */\n      tag_108\n      jump\t// in\n    tag_172:\n        /* \"#utility.yul\":2367:2506   */\n      swap3\n      swap2\n      pop\n      pop\n      jump\t// out\n        /* \"#utility.yul\":2512:2841   */\n    tag_14:\n        /* \"#utility.yul\":2571:2577   */\n      0x00\n        /* \"#utility.yul\":2620:2622   */\n      0x20\n        /* \"#utility.yul\":2608:2617   */\n      dup3\n        /* \"#utility.yul\":2599:2606   */\n      dup5\n        /* \"#utility.yul\":2595:2618   */\n      sub\n        /* \"#utility.yul\":2591:2623   */\n      slt\n        /* \"#utility.yul\":2588:2707   */\n      iszero\n      tag_174\n      jumpi\n        /* \"#utility.yul\":2626:2705   */\n      tag_175\n      tag_101\n      jump\t// in\n    tag_175:\n        /* \"#utility.yul\":2588:2707   */\n    tag_174:\n        /* \"#utility.yul\":2746:2747   */\n      0x00\n        /* \"#utility.yul\":2771:2824   */\n      tag_176\n        /* \"#utility.yul\":2816:2823   */\n      dup5\n        /* \"#utility.yul\":2807:2813   */\n      dup3\n        /* \"#utility.yul\":2796:2805   */\n      dup6\n        /* \"#utility.yul\":2792:2814   */\n      add\n        /* \"#utility.yul\":2771:2824   */\n      tag_109\n      jump\t// in\n    tag_176:\n        /* \"#utility.yul\":2761:2824   */\n      swap2\n      pop\n        /* \"#utility.yul\":2717:2834   */\n      pop\n        /* \"#utility.yul\":2512:2841   */\n      swap3\n      swap2\n      pop\n      pop\n      jump\t// out\n        /* \"#utility.yul\":2847:2955   */\n    tag_110:\n        /* \"#utility.yul\":2924:2948   */\n      tag_178\n        /* \"#utility.yul\":2942:2947   */\n      dup2\n        /* \"#utility.yul\":2924:2948   */\n      tag_107\n      jump\t// in\n    tag_178:\n        /* \"#utility.yul\":2919:2922   */\n      dup3\n        /* \"#utility.yul\":2912:2949   */\n      mstore\n        /* \"#utility.yul\":2847:2955   */\n      pop\n      pop\n      jump\t// out\n        /* \"#utility.yul\":2961:3060   */\n    tag_111:\n        /* \"#utility.yul\":3013:3019   */\n      0x00\n        /* \"#utility.yul\":3047:3052   */\n      dup2\n        /* \"#utility.yul\":3041:3053   */\n      mload\n        /* \"#utility.yul\":3031:3053   */\n      swap1\n      pop\n        /* \"#utility.yul\":2961:3060   */\n      swap2\n      swap1\n      pop\n      jump\t// out\n        /* \"#utility.yul\":3066:3225   */\n    tag_112:\n        /* \"#utility.yul\":3140:3151   */\n      0x00\n        /* \"#utility.yul\":3174:3180   */\n      dup3\n        /* \"#utility.yul\":3169:3172   */\n      dup3\n        /* \"#utility.yul\":3162:3181   */\n      mstore\n        /* \"#utility.yul\":3214:3218   */\n      0x20\n        /* \"#utility.yul\":3209:3212   */\n      dup3\n        /* \"#utility.yul\":3205:3219   */\n      add\n        /* \"#utility.yul\":3190:3219   */\n      swap1\n      pop\n        /* \"#utility.yul\":3066:3225   */\n      swap3\n      swap2\n      pop\n      pop\n      jump\t// out\n        /* \"#utility.yul\":3231:3370   */\n    tag_113:\n        /* \"#utility.yul\":3320:3326   */\n      dup3\n        /* \"#utility.yul\":3315:3318   */\n      dup2\n        /* \"#utility.yul\":3310:3313   */\n      dup4\n        /* \"#utility.yul\":3304:3327   */\n      mcopy\n        /* \"#utility.yul\":3361:3362   */\n      0x00\n        /* \"#utility.yul\":3352:3358   */\n      dup4\n        /* \"#utility.yul\":3347:3350   */\n      dup4\n        /* \"#utility.yul\":3343:3359   */\n      add\n        /* \"#utility.yul\":3336:3363   */\n      mstore\n        /* \"#utility.yul\":3231:3370   */\n      pop\n      pop\n      pop\n      jump\t// out\n        /* \"#utility.yul\":3376:3478   */\n    tag_114:\n        /* \"#utility.yul\":3417:3423   */\n      0x00\n        /* \"#utility.yul\":3468:3470   */\n      0x1f\n        /* \"#utility.yul\":3464:3471   */\n      not\n        /* \"#utility.yul\":3459:3461   */\n      0x1f\n        /* \"#utility.yul\":3452:3457   */\n      dup4\n        /* \"#utility.yul\":3448:3462   */\n      add\n        /* \"#utility.yul\":3444:3472   */\n      and\n        /* \"#utility.yul\":3434:3472   */\n      swap1\n      pop\n        /* \"#utility.yul\":3376:3478   */\n      swap2\n      swap1\n      pop\n      jump\t// out\n        /* \"#utility.yul\":3484:3841   */\n    tag_115:\n        /* \"#utility.yul\":3562:3565   */\n      0x00\n        /* \"#utility.yul\":3590:3629   */\n      tag_184\n        /* \"#utility.yul\":3623:3628   */\n      dup3\n        /* \"#utility.yul\":3590:3629   */\n      tag_111\n      jump\t// in\n    tag_184:\n        /* \"#utility.yul\":3645:3706   */\n      tag_185\n        /* \"#utility.yul\":3699:3705   */\n      dup2\n        /* \"#utility.yul\":3694:3697   */\n      dup6\n        /* \"#utility.yul\":3645:3706   */\n      tag_112\n      jump\t// in\n    tag_185:\n        /* \"#utility.yul\":3638:3706   */\n      swap4\n      pop\n        /* \"#utility.yul\":3715:3780   */\n      tag_186\n        /* \"#utility.yul\":3773:3779   */\n      dup2\n        /* \"#utility.yul\":3768:3771   */\n      dup6\n        /* \"#utility.yul\":3761:3765   */\n      0x20\n        /* \"#utility.yul\":3754:3759   */\n      dup7\n        /* \"#utility.yul\":3750:3766   */\n      add\n        /* \"#utility.yul\":3715:3780   */\n      tag_113\n      jump\t// in\n    tag_186:\n        /* \"#utility.yul\":3805:3834   */\n      tag_187\n        /* \"#utility.yul\":3827:3833   */\n      dup2\n        /* \"#utility.yul\":3805:3834   */\n      tag_114\n      jump\t// in\n    tag_187:\n        /* \"#utility.yul\":3800:3803   */\n      dup5\n        /* \"#utility.yul\":3796:3835   */\n      add\n        /* \"#utility.yul\":3789:3835   */\n      swap2\n      pop\n        /* \"#utility.yul\":3566:3841   */\n      pop\n        /* \"#utility.yul\":3484:3841   */\n      swap3\n      swap2\n      pop\n      pop\n      jump\t// out\n        /* \"#utility.yul\":3891:4728   */\n    tag_116:\n        /* \"#utility.yul\":3998:4001   */\n      0x00\n        /* \"#utility.yul\":4034:4038   */\n      0x60\n        /* \"#utility.yul\":4029:4032   */\n      dup4\n        /* \"#utility.yul\":4025:4039   */\n      add\n        /* \"#utility.yul\":4119:4123   */\n      0x00\n        /* \"#utility.yul\":4112:4117   */\n      dup4\n        /* \"#utility.yul\":4108:4124   */\n      add\n        /* \"#utility.yul\":4102:4125   */\n      mload\n        /* \"#utility.yul\":4138:4201   */\n      tag_189\n        /* \"#utility.yul\":4195:4199   */\n      0x00\n        /* \"#utility.yul\":4190:4193   */\n      dup7\n        /* \"#utility.yul\":4186:4200   */\n      add\n        /* \"#utility.yul\":4172:4184   */\n      dup3\n        /* \"#utility.yul\":4138:4201   */\n      tag_110\n      jump\t// in\n    tag_189:\n        /* \"#utility.yul\":4049:4211   */\n      pop\n        /* \"#utility.yul\":4293:4297   */\n      0x20\n        /* \"#utility.yul\":4286:4291   */\n      dup4\n        /* \"#utility.yul\":4282:4298   */\n      add\n        /* \"#utility.yul\":4276:4299   */\n      mload\n        /* \"#utility.yul\":4346:4349   */\n      dup5\n        /* \"#utility.yul\":4340:4344   */\n      dup3\n        /* \"#utility.yul\":4336:4350   */\n      sub\n        /* \"#utility.yul\":4329:4333   */\n      0x20\n        /* \"#utility.yul\":4324:4327   */\n      dup7\n        /* \"#utility.yul\":4320:4334   */\n      add\n        /* \"#utility.yul\":4313:4351   */\n      mstore\n        /* \"#utility.yul\":4372:4445   */\n      tag_190\n        /* \"#utility.yul\":4440:4444   */\n      dup3\n        /* \"#utility.yul\":4426:4438   */\n      dup3\n        /* \"#utility.yul\":4372:4445   */\n      tag_115\n      jump\t// in\n    tag_190:\n        /* \"#utility.yul\":4364:4445   */\n      swap2\n      pop\n        /* \"#utility.yul\":4221:4456   */\n      pop\n        /* \"#utility.yul\":4538:4542   */\n      0x40\n        /* \"#utility.yul\":4531:4536   */\n      dup4\n        /* \"#utility.yul\":4527:4543   */\n      add\n        /* \"#utility.yul\":4521:4544   */\n      mload\n        /* \"#utility.yul\":4591:4594   */\n      dup5\n        /* \"#utility.yul\":4585:4589   */\n      dup3\n        /* \"#utility.yul\":4581:4595   */\n      sub\n        /* \"#utility.yul\":4574:4578   */\n      0x40\n        /* \"#utility.yul\":4569:4572   */\n      dup7\n        /* \"#utility.yul\":4565:4579   */\n      add\n        /* \"#utility.yul\":4558:4596   */\n      mstore\n        /* \"#utility.yul\":4617:4690   */\n      tag_191\n        /* \"#utility.yul\":4685:4689   */\n      dup3\n        /* \"#utility.yul\":4671:4683   */\n      dup3\n        /* \"#utility.yul\":4617:4690   */\n      tag_115\n      jump\t// in\n    tag_191:\n        /* \"#utility.yul\":4609:4690   */\n      swap2\n      pop\n        /* \"#utility.yul\":4466:4701   */\n      pop\n        /* \"#utility.yul\":4718:4722   */\n      dup1\n        /* \"#utility.yul\":4711:4722   */\n      swap2\n      pop\n        /* \"#utility.yul\":4003:4728   */\n      pop\n        /* \"#utility.yul\":3891:4728   */\n      swap3\n      swap2\n      pop\n      pop\n      jump\t// out\n        /* \"#utility.yul\":4734:5083   */\n    tag_17:\n        /* \"#utility.yul\":4865:4869   */\n      0x00\n        /* \"#utility.yul\":4903:4905   */\n      0x20\n        /* \"#utility.yul\":4892:4901   */\n      dup3\n        /* \"#utility.yul\":4888:4906   */\n      add\n        /* \"#utility.yul\":4880:4906   */\n      swap1\n      pop\n        /* \"#utility.yul\":4952:4961   */\n      dup2\n        /* \"#utility.yul\":4946:4950   */\n      dup2\n        /* \"#utility.yul\":4942:4962   */\n      sub\n        /* \"#utility.yul\":4938:4939   */\n      0x00\n        /* \"#utility.yul\":4927:4936   */\n      dup4\n        /* \"#utility.yul\":4923:4940   */\n      add\n        /* \"#utility.yul\":4916:4963   */\n      mstore\n        /* \"#utility.yul\":4980:5076   */\n      tag_193\n        /* \"#utility.yul\":5071:5075   */\n      dup2\n        /* \"#utility.yul\":5062:5068   */\n      dup5\n        /* \"#utility.yul\":4980:5076   */\n      tag_116\n      jump\t// in\n    tag_193:\n        /* \"#utility.yul\":4972:5076   */\n      swap1\n      pop\n        /* \"#utility.yul\":4734:5083   */\n      swap3\n      swap2\n      pop\n      pop\n      jump\t// out\n        /* \"#utility.yul\":5089:5222   */\n    tag_117:\n        /* \"#utility.yul\":5175:5181   */\n      0x00\n        /* \"#utility.yul\":5209:5214   */\n      dup2\n        /* \"#utility.yul\":5203:5215   */\n      mload\n        /* \"#utility.yul\":5193:5215   */\n      swap1\n      pop\n        /* \"#utility.yul\":5089:5222   */\n      swap2\n      swap1\n      pop\n      jump\t// out\n        /* \"#utility.yul\":5228:5431   */\n    tag_118:\n        /* \"#utility.yul\":5346:5357   */\n      0x00\n        /* \"#utility.yul\":5380:5386   */\n      dup3\n        /* \"#utility.yul\":5375:5378   */\n      dup3\n        /* \"#utility.yul\":5368:5387   */\n      mstore\n        /* \"#utility.yul\":5420:5424   */\n      0x20\n        /* \"#utility.yul\":5415:5418   */\n      dup3\n        /* \"#utility.yul\":5411:5425   */\n      add\n        /* \"#utility.yul\":5396:5425   */\n      swap1\n      pop\n        /* \"#utility.yul\":5228:5431   */\n      swap3\n      swap2\n      pop\n      pop\n      jump\t// out\n        /* \"#utility.yul\":5437:5588   */\n    tag_119:\n        /* \"#utility.yul\":5523:5527   */\n      0x00\n        /* \"#utility.yul\":5546:5549   */\n      dup2\n        /* \"#utility.yul\":5538:5549   */\n      swap1\n      pop\n        /* \"#utility.yul\":5576:5580   */\n      0x20\n        /* \"#utility.yul\":5571:5574   */\n      dup3\n        /* \"#utility.yul\":5567:5581   */\n      add\n        /* \"#utility.yul\":5559:5581   */\n      swap1\n      pop\n        /* \"#utility.yul\":5437:5588   */\n      swap2\n      swap1\n      pop\n      jump\t// out\n        /* \"#utility.yul\":5638:6465   */\n    tag_120:\n        /* \"#utility.yul\":5735:5738   */\n      0x00\n        /* \"#utility.yul\":5771:5775   */\n      0x60\n        /* \"#utility.yul\":5766:5769   */\n      dup4\n        /* \"#utility.yul\":5762:5776   */\n      add\n        /* \"#utility.yul\":5856:5860   */\n      0x00\n        /* \"#utility.yul\":5849:5854   */\n      dup4\n        /* \"#utility.yul\":5845:5861   */\n      add\n        /* \"#utility.yul\":5839:5862   */\n      mload\n        /* \"#utility.yul\":5875:5938   */\n      tag_198\n        /* \"#utility.yul\":5932:5936   */\n      0x00\n        /* \"#utility.yul\":5927:5930   */\n      dup7\n        /* \"#utility.yul\":5923:5937   */\n      add\n        /* \"#utility.yul\":5909:5921   */\n      dup3\n        /* \"#utility.yul\":5875:5938   */\n      tag_110\n      jump\t// in\n    tag_198:\n        /* \"#utility.yul\":5786:5948   */\n      pop\n        /* \"#utility.yul\":6030:6034   */\n      0x20\n        /* \"#utility.yul\":6023:6028   */\n      dup4\n        /* \"#utility.yul\":6019:6035   */\n      add\n        /* \"#utility.yul\":6013:6036   */\n      mload\n        /* \"#utility.yul\":6083:6086   */\n      dup5\n        /* \"#utility.yul\":6077:6081   */\n      dup3\n        /* \"#utility.yul\":6073:6087   */\n      sub\n        /* \"#utility.yul\":6066:6070   */\n      0x20\n        /* \"#utility.yul\":6061:6064   */\n      dup7\n        /* \"#utility.yul\":6057:6071   */\n      add\n        /* \"#utility.yul\":6050:6088   */\n      mstore\n        /* \"#utility.yul\":6109:6182   */\n      tag_199\n        /* \"#utility.yul\":6177:6181   */\n      dup3\n        /* \"#utility.yul\":6163:6175   */\n      dup3\n        /* \"#utility.yul\":6109:6182   */\n      tag_115\n      jump\t// in\n    tag_199:\n        /* \"#utility.yul\":6101:6182   */\n      swap2\n      pop\n        /* \"#utility.yul\":5958:6193   */\n      pop\n        /* \"#utility.yul\":6275:6279   */\n      0x40\n        /* \"#utility.yul\":6268:6273   */\n      dup4\n        /* \"#utility.yul\":6264:6280   */\n      add\n        /* \"#utility.yul\":6258:6281   */\n      mload\n        /* \"#utility.yul\":6328:6331   */\n      dup5\n        /* \"#utility.yul\":6322:6326   */\n      dup3\n        /* \"#utility.yul\":6318:6332   */\n      sub\n        /* \"#utility.yul\":6311:6315   */\n      0x40\n        /* \"#utility.yul\":6306:6309   */\n      dup7\n        /* \"#utility.yul\":6302:6316   */\n      add\n        /* \"#utility.yul\":6295:6333   */\n      mstore\n        /* \"#utility.yul\":6354:6427   */\n      tag_200\n        /* \"#utility.yul\":6422:6426   */\n      dup3\n        /* \"#utility.yul\":6408:6420   */\n      dup3\n        /* \"#utility.yul\":6354:6427   */\n      tag_115\n      jump\t// in\n    tag_200:\n        /* \"#utility.yul\":6346:6427   */\n      swap2\n      pop\n        /* \"#utility.yul\":6203:6438   */\n      pop\n        /* \"#utility.yul\":6455:6459   */\n      dup1\n        /* \"#utility.yul\":6448:6459   */\n      swap2\n      pop\n        /* \"#utility.yul\":5740:6465   */\n      pop\n        /* \"#utility.yul\":5638:6465   */\n      swap3\n      swap2\n      pop\n      pop\n      jump\t// out\n        /* \"#utility.yul\":6471:6703   */\n    tag_121:\n        /* \"#utility.yul\":6578:6588   */\n      0x00\n        /* \"#utility.yul\":6613:6697   */\n      tag_202\n        /* \"#utility.yul\":6693:6696   */\n      dup4\n        /* \"#utility.yul\":6685:6691   */\n      dup4\n        /* \"#utility.yul\":6613:6697   */\n      tag_120\n      jump\t// in\n    tag_202:\n        /* \"#utility.yul\":6599:6697   */\n      swap1\n      pop\n        /* \"#utility.yul\":6471:6703   */\n      swap3\n      swap2\n      pop\n      pop\n      jump\t// out\n        /* \"#utility.yul\":6709:6841   */\n    tag_122:\n        /* \"#utility.yul\":6798:6802   */\n      0x00\n        /* \"#utility.yul\":6830:6834   */\n      0x20\n        /* \"#utility.yul\":6825:6828   */\n      dup3\n        /* \"#utility.yul\":6821:6835   */\n      add\n        /* \"#utility.yul\":6813:6835   */\n      swap1\n      pop\n        /* \"#utility.yul\":6709:6841   */\n      swap2\n      swap1\n      pop\n      jump\t// out\n        /* \"#utility.yul\":6895:7958   */\n    tag_123:\n        /* \"#utility.yul\":7052:7055   */\n      0x00\n        /* \"#utility.yul\":7081:7154   */\n      tag_205\n        /* \"#utility.yul\":7148:7153   */\n      dup3\n        /* \"#utility.yul\":7081:7154   */\n      tag_117\n      jump\t// in\n    tag_205:\n        /* \"#utility.yul\":7170:7275   */\n      tag_206\n        /* \"#utility.yul\":7268:7274   */\n      dup2\n        /* \"#utility.yul\":7263:7266   */\n      dup6\n        /* \"#utility.yul\":7170:7275   */\n      tag_118\n      jump\t// in\n    tag_206:\n        /* \"#utility.yul\":7163:7275   */\n      swap4\n      pop\n        /* \"#utility.yul\":7301:7304   */\n      dup4\n        /* \"#utility.yul\":7346:7350   */\n      0x20\n        /* \"#utility.yul\":7338:7344   */\n      dup3\n        /* \"#utility.yul\":7334:7351   */\n      mul\n        /* \"#utility.yul\":7329:7332   */\n      dup6\n        /* \"#utility.yul\":7325:7352   */\n      add\n        /* \"#utility.yul\":7376:7451   */\n      tag_207\n        /* \"#utility.yul\":7445:7450   */\n      dup6\n        /* \"#utility.yul\":7376:7451   */\n      tag_119\n      jump\t// in\n    tag_207:\n        /* \"#utility.yul\":7474:7481   */\n      dup1\n        /* \"#utility.yul\":7505:7506   */\n      0x00\n        /* \"#utility.yul\":7490:7913   */\n    tag_208:\n        /* \"#utility.yul\":7515:7521   */\n      dup6\n        /* \"#utility.yul\":7512:7513   */\n      dup2\n        /* \"#utility.yul\":7509:7522   */\n      lt\n        /* \"#utility.yul\":7490:7913   */\n      iszero\n      tag_210\n      jumpi\n        /* \"#utility.yul\":7586:7595   */\n      dup5\n        /* \"#utility.yul\":7580:7584   */\n      dup5\n        /* \"#utility.yul\":7576:7596   */\n      sub\n        /* \"#utility.yul\":7571:7574   */\n      dup10\n        /* \"#utility.yul\":7564:7597   */\n      mstore\n        /* \"#utility.yul\":7637:7643   */\n      dup2\n        /* \"#utility.yul\":7631:7644   */\n      mload\n        /* \"#utility.yul\":7665:7767   */\n      tag_211\n        /* \"#utility.yul\":7762:7766   */\n      dup6\n        /* \"#utility.yul\":7747:7760   */\n      dup3\n        /* \"#utility.yul\":7665:7767   */\n      tag_121\n      jump\t// in\n    tag_211:\n        /* \"#utility.yul\":7657:7767   */\n      swap5\n      pop\n        /* \"#utility.yul\":7790:7869   */\n      tag_212\n        /* \"#utility.yul\":7862:7868   */\n      dup4\n        /* \"#utility.yul\":7790:7869   */\n      tag_122\n      jump\t// in\n    tag_212:\n        /* \"#utility.yul\":7780:7869   */\n      swap3\n      pop\n        /* \"#utility.yul\":7898:7902   */\n      0x20\n        /* \"#utility.yul\":7893:7896   */\n      dup11\n        /* \"#utility.yul\":7889:7903   */\n      add\n        /* \"#utility.yul\":7882:7903   */\n      swap10\n      pop\n        /* \"#utility.yul\":7550:7913   */\n      pop\n        /* \"#utility.yul\":7537:7538   */\n      0x01\n        /* \"#utility.yul\":7534:7535   */\n      dup2\n        /* \"#utility.yul\":7530:7539   */\n      add\n        /* \"#utility.yul\":7525:7539   */\n      swap1\n      pop\n        /* \"#utility.yul\":7490:7913   */\n      jump(tag_208)\n    tag_210:\n        /* \"#utility.yul\":7494:7508   */\n      pop\n        /* \"#utility.yul\":7929:7933   */\n      dup3\n        /* \"#utility.yul\":7922:7933   */\n      swap8\n      pop\n        /* \"#utility.yul\":7949:7952   */\n      dup8\n        /* \"#utility.yul\":7942:7952   */\n      swap6\n      pop\n        /* \"#utility.yul\":7057:7958   */\n      pop\n      pop\n      pop\n      pop\n      pop\n        /* \"#utility.yul\":6895:7958   */\n      swap3\n      swap2\n      pop\n      pop\n      jump\t// out\n        /* \"#utility.yul\":7964:8413   */\n    tag_24:\n        /* \"#utility.yul\":8145:8149   */\n      0x00\n        /* \"#utility.yul\":8183:8185   */\n      0x20\n        /* \"#utility.yul\":8172:8181   */\n      dup3\n        /* \"#utility.yul\":8168:8186   */\n      add\n        /* \"#utility.yul\":8160:8186   */\n      swap1\n      pop\n        /* \"#utility.yul\":8232:8241   */\n      dup2\n        /* \"#utility.yul\":8226:8230   */\n      dup2\n        /* \"#utility.yul\":8222:8242   */\n      sub\n        /* \"#utility.yul\":8218:8219   */\n      0x00\n        /* \"#utility.yul\":8207:8216   */\n      dup4\n        /* \"#utility.yul\":8203:8220   */\n      add\n        /* \"#utility.yul\":8196:8243   */\n      mstore\n        /* \"#utility.yul\":8260:8406   */\n      tag_214\n        /* \"#utility.yul\":8401:8405   */\n      dup2\n        /* \"#utility.yul\":8392:8398   */\n      dup5\n        /* \"#utility.yul\":8260:8406   */\n      tag_123\n      jump\t// in\n    tag_214:\n        /* \"#utility.yul\":8252:8406   */\n      swap1\n      pop\n        /* \"#utility.yul\":7964:8413   */\n      swap3\n      swap2\n      pop\n      pop\n      jump\t// out\n        /* \"#utility.yul\":8419:9438   */\n    tag_27:\n        /* \"#utility.yul\":8520:8526   */\n      0x00\n        /* \"#utility.yul\":8528:8534   */\n      dup1\n        /* \"#utility.yul\":8536:8542   */\n      0x00\n        /* \"#utility.yul\":8544:8550   */\n      dup1\n        /* \"#utility.yul\":8552:8558   */\n      0x00\n        /* \"#utility.yul\":8601:8603   */\n      0x60\n        /* \"#utility.yul\":8589:8598   */\n      dup7\n        /* \"#utility.yul\":8580:8587   */\n      dup9\n        /* \"#utility.yul\":8576:8599   */\n      sub\n        /* \"#utility.yul\":8572:8604   */\n      slt\n        /* \"#utility.yul\":8569:8688   */\n      iszero\n      tag_216\n      jumpi\n        /* \"#utility.yul\":8607:8686   */\n      tag_217\n      tag_101\n      jump\t// in\n    tag_217:\n        /* \"#utility.yul\":8569:8688   */\n    tag_216:\n        /* \"#utility.yul\":8727:8728   */\n      0x00\n        /* \"#utility.yul\":8752:8805   */\n      tag_218\n        /* \"#utility.yul\":8797:8804   */\n      dup9\n        /* \"#utility.yul\":8788:8794   */\n      dup3\n        /* \"#utility.yul\":8777:8786   */\n      dup10\n        /* \"#utility.yul\":8773:8795   */\n      add\n        /* \"#utility.yul\":8752:8805   */\n      tag_109\n      jump\t// in\n    tag_218:\n        /* \"#utility.yul\":8742:8805   */\n      swap6\n      pop\n        /* \"#utility.yul\":8698:8815   */\n      pop\n        /* \"#utility.yul\":8882:8884   */\n      0x20\n        /* \"#utility.yul\":8871:8880   */\n      dup7\n        /* \"#utility.yul\":8867:8885   */\n      add\n        /* \"#utility.yul\":8854:8886   */\n      calldataload\n        /* \"#utility.yul\":8913:8931   */\n      0xffffffffffffffff\n        /* \"#utility.yul\":8905:8911   */\n      dup2\n        /* \"#utility.yul\":8902:8932   */\n      gt\n        /* \"#utility.yul\":8899:9016   */\n      iszero\n      tag_219\n      jumpi\n        /* \"#utility.yul\":8935:9014   */\n      tag_220\n      tag_102\n      jump\t// in\n    tag_220:\n        /* \"#utility.yul\":8899:9016   */\n    tag_219:\n        /* \"#utility.yul\":9048:9113   */\n      tag_221\n        /* \"#utility.yul\":9105:9112   */\n      dup9\n        /* \"#utility.yul\":9096:9102   */\n      dup3\n        /* \"#utility.yul\":9085:9094   */\n      dup10\n        /* \"#utility.yul\":9081:9103   */\n      add\n        /* \"#utility.yul\":9048:9113   */\n      tag_106\n      jump\t// in\n    tag_221:\n        /* \"#utility.yul\":9030:9113   */\n      swap5\n      pop\n      swap5\n      pop\n        /* \"#utility.yul\":8825:9123   */\n      pop\n        /* \"#utility.yul\":9190:9192   */\n      0x40\n        /* \"#utility.yul\":9179:9188   */\n      dup7\n        /* \"#utility.yul\":9175:9193   */\n      add\n        /* \"#utility.yul\":9162:9194   */\n      calldataload\n        /* \"#utility.yul\":9221:9239   */\n      0xffffffffffffffff\n        /* \"#utility.yul\":9213:9219   */\n      dup2\n        /* \"#utility.yul\":9210:9240   */\n      gt\n        /* \"#utility.yul\":9207:9324   */\n      iszero\n      tag_222\n      jumpi\n        /* \"#utility.yul\":9243:9322   */\n      tag_223\n      tag_102\n      jump\t// in\n    tag_223:\n        /* \"#utility.yul\":9207:9324   */\n    tag_222:\n        /* \"#utility.yul\":9356:9421   */\n      tag_224\n        /* \"#utility.yul\":9413:9420   */\n      dup9\n        /* \"#utility.yul\":9404:9410   */\n      dup3\n        /* \"#utility.yul\":9393:9402   */\n      dup10\n        /* \"#utility.yul\":9389:9411   */\n      add\n        /* \"#utility.yul\":9356:9421   */\n      tag_106\n      jump\t// in\n    tag_224:\n        /* \"#utility.yul\":9338:9421   */\n      swap3\n      pop\n      swap3\n      pop\n        /* \"#utility.yul\":9133:9431   */\n      pop\n        /* \"#utility.yul\":8419:9438   */\n      swap3\n      swap6\n      pop\n      swap3\n      swap6\n      swap1\n      swap4\n      pop\n      jump\t// out\n        /* \"#utility.yul\":9444:9624   */\n    tag_67:\n        /* \"#utility.yul\":9492:9569   */\n      0x4e487b7100000000000000000000000000000000000000000000000000000000\n        /* \"#utility.yul\":9489:9490   */\n      0x00\n        /* \"#utility.yul\":9482:9570   */\n      mstore\n        /* \"#utility.yul\":9589:9593   */\n      0x41\n        /* \"#utility.yul\":9586:9587   */\n      0x04\n        /* \"#utility.yul\":9579:9594   */\n      mstore\n        /* \"#utility.yul\":9613:9617   */\n      0x24\n        /* \"#utility.yul\":9610:9611   */\n      0x00\n        /* \"#utility.yul\":9603:9618   */\n      revert\n        /* \"#utility.yul\":9630:9810   */\n    tag_124:\n        /* \"#utility.yul\":9678:9755   */\n      0x4e487b7100000000000000000000000000000000000000000000000000000000\n        /* \"#utility.yul\":9675:9676   */\n      0x00\n        /* \"#utility.yul\":9668:9756   */\n      mstore\n        /* \"#utility.yul\":9775:9779   */\n      0x22\n        /* \"#utility.yul\":9772:9773   */\n      0x04\n        /* \"#utility.yul\":9765:9780   */\n      mstore\n        /* \"#utility.yul\":9799:9803   */\n      0x24\n        /* \"#utility.yul\":9796:9797   */\n      0x00\n        /* \"#utility.yul\":9789:9804   */\n      revert\n        /* \"#utility.yul\":9816:10136   */\n    tag_44:\n        /* \"#utility.yul\":9860:9866   */\n      0x00\n        /* \"#utility.yul\":9897:9898   */\n      0x02\n        /* \"#utility.yul\":9891:9895   */\n      dup3\n        /* \"#utility.yul\":9887:9899   */\n      div\n        /* \"#utility.yul\":9877:9899   */\n      swap1\n      pop\n        /* \"#utility.yul\":9944:9945   */\n      0x01\n        /* \"#utility.yul\":9938:9942   */\n      dup3\n        /* \"#utility.yul\":9934:9946   */\n      and\n        /* \"#utility.yul\":9965:9983   */\n      dup1\n        /* \"#utility.yul\":9955:10036   */\n      tag_228\n      jumpi\n        /* \"#utility.yul\":10021:10025   */\n      0x7f\n        /* \"#utility.yul\":10013:10019   */\n      dup3\n        /* \"#utility.yul\":10009:10026   */\n      and\n        /* \"#utility.yul\":9999:10026   */\n      swap2\n      pop\n        /* \"#utility.yul\":9955:10036   */\n    tag_228:\n        /* \"#utility.yul\":10083:10085   */\n      0x20\n        /* \"#utility.yul\":10075:10081   */\n      dup3\n        /* \"#utility.yul\":10072:10086   */\n      lt\n        /* \"#utility.yul\":10052:10070   */\n      dup2\n        /* \"#utility.yul\":10049:10087   */\n      sub\n        /* \"#utility.yul\":10046:10130   */\n      tag_229\n      jumpi\n        /* \"#utility.yul\":10102:10120   */\n      tag_230\n      tag_124\n      jump\t// in\n    tag_230:\n        /* \"#utility.yul\":10046:10130   */\n    tag_229:\n        /* \"#utility.yul\":9867:10136   */\n      pop\n        /* \"#utility.yul\":9816:10136   */\n      swap2\n      swap1\n      pop\n      jump\t// out\n        /* \"#utility.yul\":10142:10283   */\n    tag_125:\n        /* \"#utility.yul\":10191:10195   */\n      0x00\n        /* \"#utility.yul\":10214:10217   */\n      dup2\n        /* \"#utility.yul\":10206:10217   */\n      swap1\n      pop\n        /* \"#utility.yul\":10237:10240   */\n      dup2\n        /* \"#utility.yul\":10234:10235   */\n      0x00\n        /* \"#utility.yul\":10227:10241   */\n      mstore\n        /* \"#utility.yul\":10271:10275   */\n      0x20\n        /* \"#utility.yul\":10268:10269   */\n      0x00\n        /* \"#utility.yul\":10258:10276   */\n      keccak256\n        /* \"#utility.yul\":10250:10276   */\n      swap1\n      pop\n        /* \"#utility.yul\":10142:10283   */\n      swap2\n      swap1\n      pop\n      jump\t// out\n        /* \"#utility.yul\":10289:10382   */\n    tag_126:\n        /* \"#utility.yul\":10326:10332   */\n      0x00\n        /* \"#utility.yul\":10373:10375   */\n      0x20\n        /* \"#utility.yul\":10368:10370   */\n      0x1f\n        /* \"#utility.yul\":10361:10366   */\n      dup4\n        /* \"#utility.yul\":10357:10371   */\n      add\n        /* \"#utility.yul\":10353:10376   */\n      div\n        /* \"#utility.yul\":10343:10376   */\n      swap1\n      pop\n        /* \"#utility.yul\":10289:10382   */\n      swap2\n      swap1\n      pop\n      jump\t// out\n        /* \"#utility.yul\":10388:10495   */\n    tag_127:\n        /* \"#utility.yul\":10432:10440   */\n      0x00\n        /* \"#utility.yul\":10482:10487   */\n      dup3\n        /* \"#utility.yul\":10476:10480   */\n      dup3\n        /* \"#utility.yul\":10472:10488   */\n      shl\n        /* \"#utility.yul\":10451:10488   */\n      swap1\n      pop\n        /* \"#utility.yul\":10388:10495   */\n      swap3\n      swap2\n      pop\n      pop\n      jump\t// out\n        /* \"#utility.yul\":10501:10894   */\n    tag_128:\n        /* \"#utility.yul\":10570:10576   */\n      0x00\n        /* \"#utility.yul\":10620:10621   */\n      0x08\n        /* \"#utility.yul\":10608:10618   */\n      dup4\n        /* \"#utility.yul\":10604:10622   */\n      mul\n        /* \"#utility.yul\":10643:10740   */\n      tag_235\n        /* \"#utility.yul\":10673:10739   */\n      0xffffffffffffffffffffffffffffffffffffffffffffffffffffffffffffffff\n        /* \"#utility.yul\":10662:10671   */\n      dup3\n        /* \"#utility.yul\":10643:10740   */\n      tag_127\n      jump\t// in\n    tag_235:\n        /* \"#utility.yul\":10761:10800   */\n      tag_236\n        /* \"#utility.yul\":10791:10799   */\n      dup7\n        /* \"#utility.yul\":10780:10789   */\n      dup4\n        /* \"#utility.yul\":10761:10800   */\n      tag_127\n      jump\t// in\n    tag_236:\n        /* \"#utility.yul\":10749:10800   */\n      swap6\n      pop\n        /* \"#utility.yul\":10833:10837   */\n      dup1\n        /* \"#utility.yul\":10829:10838   */\n      not\n        /* \"#utility.yul\":10822:10827   */\n      dup5\n        /* \"#utility.yul\":10818:10839   */\n      and\n        /* \"#utility.yul\":10809:10839   */\n      swap4\n      pop\n        /* \"#utility.yul\":10882:10886   */\n      dup1\n        /* \"#utility.yul\":10872:10880   */\n      dup7\n        /* \"#utility.yul\":10868:10887   */\n      and\n        /* \"#utility.yul\":10861:10866   */\n      dup5\n        /* \"#utility.yul\":10858:10888   */\n      or\n        /* \"#utility.yul\":10848:10888   */\n      swap3\n      pop\n        /* \"#utility.yul\":10577:10894   */\n      pop\n      pop\n        /* \"#utility.yul\":10501:10894   */\n      swap4\n      swap3\n      pop\n      pop\n      pop\n      jump\t// out\n        /* \"#utility.yul\":10900:10960   */\n    tag_129:\n        /* \"#utility.yul\":10928:10931   */\n      0x00\n        /* \"#utility.yul\":10949:10954   */\n      dup2\n        /* \"#utility.yul\":10942:10954   */\n      swap1\n      pop\n        /* \"#utility.yul\":10900:10960   */\n      swap2\n      swap1\n      pop\n      jump\t// out\n        /* \"#utility.yul\":10966:11108   */\n    tag_130:\n        /* \"#utility.yul\":11016:11025   */\n      0x00\n        /* \"#utility.yul\":11049:11102   */\n      tag_239\n        /* \"#utility.yul\":11067:11101   */\n      tag_240\n        /* \"#utility.yul\":11076:11100   */\n      tag_241\n        /* \"#utility.yul\":11094:11099   */\n      dup5\n        /* \"#utility.yul\":11076:11100   */\n      tag_107\n      jump\t// in\n    tag_241:\n        /* \"#utility.yul\":11067:11101   */\n      tag_129\n      jump\t// in\n    tag_240:\n        /* \"#utility.yul\":11049:11102   */\n      tag_107\n      jump\t// in\n    tag_239:\n        /* \"#utility.yul\":11036:11102   */\n      swap1\n      pop\n        /* \"#utility.yul\":10966:11108   */\n      swap2\n      swap1\n      pop\n      jump\t// out\n        /* \"#utility.yul\":11114:11189   */\n    tag_131:\n        /* \"#utility.yul\":11157:11160   */\n      0x00\n        /* \"#utility.yul\":11178:11183   */\n      dup2\n        /* \"#utility.yul\":11171:11183   */\n      swap1\n      pop\n        /* \"#utility.yul\":11114:11189   */\n      swap2\n      swap1\n      pop\n      jump\t// out\n        /* \"#utility.yul\":11195:11464   */\n    tag_132:\n        /* \"#utility.yul\":11305:11344   */\n      tag_244\n        /* \"#utility.yul\":11336:11343   */\n      dup4\n        /* \"#utility.yul\":11305:11344   */\n      tag_130\n      jump\t// in\n    tag_244:\n        /* \"#utility.yul\":11366:11457   */\n      tag_245\n        /* \"#utility.yul\":11415:11456   */\n      tag_246\n        /* \"#utility.yul\":11439:11455   */\n      dup3\n        /* \"#utility.yul\":11415:11456   */\n      tag_131\n      jump\t// in\n    tag_246:\n        /* \"#utility.yul\":11407:11413   */\n      dup5\n        /* \"#utility.yul\":11400:11404   */\n      dup5\n        /* \"#utility.yul\":11394:11405   */\n      sload\n        /* \"#utility.yul\":11366:11457   */\n      tag_128\n      jump\t// in\n    tag_245:\n        /* \"#utility.yul\":11360:11364   */\n      dup3\n        /* \"#utility.yul\":11353:11458   */\n      sstore\n        /* \"#utility.yul\":11271:11464   */\n      pop\n        /* \"#utility.yul\":11195:11464   */\n      pop\n      pop\n      pop\n      jump\t// out\n        /* \"#utility.yul\":11470:11543   */\n    tag_133:\n        /* \"#utility.yul\":11515:11518   */\n      0x00\n        /* \"#utility.yul\":11470:11543   */\n      swap1\n      jump\t// out\n        /* \"#utility.yul\":11549:11738   */\n    tag_134:\n        /* \"#utility.yul\":11626:11658   */\n      tag_249\n      tag_133\n      jump\t// in\n    tag_249:\n        /* \"#utility.yul\":11667:11732   */\n      tag_250\n        /* \"#utility.yul\":11725:11731   */\n      dup2\n        /* \"#utility.yul\":11717:11723   */\n      dup5\n        /* \"#utility.yul\":11711:11715   */\n      dup5\n        /* \"#utility.yul\":11667:11732   */\n      tag_132\n      jump\t// in\n    tag_250:\n        /* \"#utility.yul\":11602:11738   */\n      pop\n        /* \"#utility.yul\":11549:11738   */\n      pop\n      pop\n      jump\t// out\n        /* \"#utility.yul\":11744:11930   */\n    tag_135:\n        /* \"#utility.yul\":11804:11924   */\n    tag_252:\n        /* \"#utility.yul\":11821:11824   */\n      dup2\n        /* \"#utility.yul\":11814:11819   */\n      dup2\n        /* \"#utility.yul\":11811:11825   */\n      lt\n        /* \"#utility.yul\":11804:11924   */\n      iszero\n      tag_254\n      jumpi\n        /* \"#utility.yul\":11875:11914   */\n      tag_255\n        /* \"#utility.yul\":11912:11913   */\n      0x00\n        /* \"#utility.yul\":11905:11910   */\n      dup3\n        /* \"#utility.yul\":11875:11914   */\n      tag_134\n      jump\t// in\n    tag_255:\n        /* \"#utility.yul\":11848:11849   */\n      0x01\n        /* \"#utility.yul\":11841:11846   */\n      dup2\n        /* \"#utility.yul\":11837:11850   */\n      add\n        /* \"#utility.yul\":11828:11850   */\n      swap1\n      pop\n        /* \"#utility.yul\":11804:11924   */\n      jump(tag_252)\n    tag_254:\n        /* \"#utility.yul\":11744:11930   */\n      pop\n      pop\n      jump\t// out\n        /* \"#utility.yul\":11936:12479   */\n    tag_136:\n        /* \"#utility.yul\":12037:12039   */\n      0x1f\n        /* \"#utility.yul\":12032:12035   */\n      dup3\n        /* \"#utility.yul\":12029:12040   */\n      gt\n        /* \"#utility.yul\":12026:12472   */\n      iszero\n      tag_257\n      jumpi\n        /* \"#utility.yul\":12071:12109   */\n      tag_258\n        /* \"#utility.yul\":12103:12108   */\n      dup2\n        /* \"#utility.yul\":12071:12109   */\n      tag_125\n      jump\t// in\n    tag_258:\n        /* \"#utility.yul\":12155:12184   */\n      tag_259\n        /* \"#utility.yul\":12173:12183   */\n      dup5\n        /* \"#utility.yul\":12155:12184   */\n      tag_126\n      jump\t// in\n    tag_259:\n        /* \"#utility.yul\":12145:12153   */\n      dup2\n        /* \"#utility.yul\":12141:12185   */\n      add\n        /* \"#utility.yul\":12338:12340   */\n      0x20\n        /* \"#utility.yul\":12326:12336   */\n      dup6\n        /* \"#utility.yul\":12323:12341   */\n      lt\n        /* \"#utility.yul\":12320:12369   */\n      iszero\n      tag_260\n      jumpi\n        /* \"#utility.yul\":12359:12367   */\n      dup2\n        /* \"#utility.yul\":12344:12367   */\n      swap1\n      pop\n        /* \"#utility.yul\":12320:12369   */\n    tag_260:\n        /* \"#utility.yul\":12382:12462   */\n      tag_261\n        /* \"#utility.yul\":12438:12460   */\n      tag_262\n        /* \"#utility.yul\":12456:12459   */\n      dup6\n        /* \"#utility.yul\":12438:12460   */\n      tag_126\n      jump\t// in\n    tag_262:\n        /* \"#utility.yul\":12428:12436   */\n      dup4\n        /* \"#utility.yul\":12424:12461   */\n      add\n        /* \"#utility.yul\":12411:12422   */\n      dup3\n        /* \"#utility.yul\":12382:12462   */\n      tag_135\n      jump\t// in\n    tag_261:\n        /* \"#utility.yul\":12041:12472   */\n      pop\n      pop\n        /* \"#utility.yul\":12026:12472   */\n    tag_257:\n        /* \"#utility.yul\":11936:12479   */\n      pop\n      pop\n      pop\n      jump\t// out\n        /* \"#utility.yul\":12485:12602   */\n    tag_137:\n        /* \"#utility.yul\":12539:12547   */\n      0x00\n        /* \"#utility.yul\":12589:12594   */\n      dup3\n        /* \"#utility.yul\":12583:12587   */\n      dup3\n        /* \"#utility.yul\":12579:12595   */\n      shr\n        /* \"#utility.yul\":12558:12595   */\n      swap1\n      pop\n        /* \"#utility.yul\":12485:12602   */\n      swap3\n      swap2\n      pop\n      pop\n      jump\t// out\n        /* \"#utility.yul\":12608:12777   */\n    tag_138:\n        /* \"#utility.yul\":12652:12658   */\n      0x00\n        /* \"#utility.yul\":12685:12736   */\n      tag_265\n        /* \"#utility.yul\":12733:12734   */\n      0x00\n        /* \"#utility.yul\":12729:12735   */\n      not\n        /* \"#utility.yul\":12721:12726   */\n      dup5\n        /* \"#utility.yul\":12718:12719   */\n      0x08\n        /* \"#utility.yul\":12714:12727   */\n      mul\n        /* \"#utility.yul\":12685:12736   */\n      tag_137\n      jump\t// in\n    tag_265:\n        /* \"#utility.yul\":12681:12737   */\n      not\n        /* \"#utility.yul\":12766:12770   */\n      dup1\n        /* \"#utility.yul\":12760:12764   */\n      dup4\n        /* \"#utility.yul\":12756:12771   */\n      and\n        /* \"#utility.yul\":12746:12771   */\n      swap2\n      pop\n        /* \"#utility.yul\":12659:12777   */\n      pop\n        /* \"#utility.yul\":12608:12777   */\n      swap3\n      swap2\n      pop\n      pop\n      jump\t// out\n        /* \"#utility.yul\":12782:13077   */\n    tag_139:\n        /* \"#utility.yul\":12858:12862   */\n      0x00\n        /* \"#utility.yul\":13004:13033   */\n      tag_267\n        /* \"#utility.yul\":13029:13032   */\n      dup4\n        /* \"#utility.yul\":13023:13027   */\n      dup4\n        /* \"#utility.yul\":13004:13033   */\n      tag_138\n      jump\t// in\n    tag_267:\n        /* \"#utility.yul\":12996:13033   */\n      swap2\n      pop\n        /* \"#utility.yul\":13066:13069   */\n      dup3\n        /* \"#utility.yul\":13063:13064   */\n      0x02\n        /* \"#utility.yul\":13059:13070   */\n      mul\n        /* \"#utility.yul\":13053:13057   */\n      dup3\n        /* \"#utility.yul\":13050:13071   */\n      or\n        /* \"#utility.yul\":13042:13071   */\n      swap1\n      pop\n        /* \"#utility.yul\":12782:13077   */\n      swap3\n      swap2\n      pop\n      pop\n      jump\t// out\n        /* \"#utility.yul\":13082:14477   */\n    tag_31:\n        /* \"#utility.yul\":13199:13236   */\n      tag_269\n        /* \"#utility.yul\":13232:13235   */\n      dup3\n        /* \"#utility.yul\":13199:13236   */\n      tag_111\n      jump\t// in\n    tag_269:\n        /* \"#utility.yul\":13301:13319   */\n      0xffffffffffffffff\n        /* \"#utility.yul\":13293:13299   */\n      dup2\n        /* \"#utility.yul\":13290:13320   */\n      gt\n        /* \"#utility.yul\":13287:13343   */\n      iszero\n      tag_270\n      jumpi\n        /* \"#utility.yul\":13323:13341   */\n      tag_271\n      tag_67\n      jump\t// in\n    tag_271:\n        /* \"#utility.yul\":13287:13343   */\n    tag_270:\n        /* \"#utility.yul\":13367:13405   */\n      tag_272\n        /* \"#utility.yul\":13399:13403   */\n      dup3\n        /* \"#utility.yul\":13393:13404   */\n      sload\n        /* \"#utility.yul\":13367:13405   */\n      tag_44\n      jump\t// in\n    tag_272:\n        /* \"#utility.yul\":13452:13519   */\n      tag_273\n        /* \"#utility.yul\":13512:13518   */\n      dup3\n        /* \"#utility.yul\":13504:13510   */\n      dup3\n        /* \"#utility.yul\":13498:13502   */\n      dup6\n        /* \"#utility.yul\":13452:13519   */\n      tag_136\n      jump\t// in\n    tag_273:\n        /* \"#utility.yul\":13546:13547   */\n      0x00\n        /* \"#utility.yul\":13570:13574   */\n      0x20\n        /* \"#utility.yul\":13557:13574   */\n      swap1\n      pop\n        /* \"#utility.yul\":13602:13604   */\n      0x1f\n        /* \"#utility.yul\":13594:13600   */\n      dup4\n        /* \"#utility.yul\":13591:13605   */\n      gt\n        /* \"#utility.yul\":13619:13620   */\n      0x01\n        /* \"#utility.yul\":13614:14232   */\n      dup2\n      eq\n      tag_275\n      jumpi\n        /* \"#utility.yul\":14276:14277   */\n      0x00\n        /* \"#utility.yul\":14293:14299   */\n      dup5\n        /* \"#utility.yul\":14290:14367   */\n      iszero\n      tag_276\n      jumpi\n        /* \"#utility.yul\":14342:14351   */\n      dup3\n        /* \"#utility.yul\":14337:14340   */\n      dup8\n        /* \"#utility.yul\":14333:14352   */\n      add\n        /* \"#utility.yul\":14327:14353   */\n      mload\n        /* \"#utility.yul\":14318:14353   */\n      swap1\n      pop\n        /* \"#utility.yul\":14290:14367   */\n    tag_276:\n        /* \"#utility.yul\":14393:14460   */\n      tag_277\n        /* \"#utility.yul\":14453:14459   */\n      dup6\n        /* \"#utility.yul\":14446:14451   */\n      dup3\n        /* \"#utility.yul\":14393:14460   */\n      tag_139\n      jump\t// in\n    tag_277:\n        /* \"#utility.yul\":14387:14391   */\n      dup7\n        /* \"#utility.yul\":14380:14461   */\n      sstore\n        /* \"#utility.yul\":14249:14471   */\n      pop\n        /* \"#utility.yul\":13584:14471   */\n      jump(tag_274)\n        /* \"#utility.yul\":13614:14232   */\n    tag_275:\n        /* \"#utility.yul\":13666:13670   */\n      0x1f\n        /* \"#utility.yul\":13662:13671   */\n      not\n        /* \"#utility.yul\":13654:13660   */\n      dup5\n        /* \"#utility.yul\":13650:13672   */\n      and\n        /* \"#utility.yul\":13700:13737   */\n      tag_278\n        /* \"#utility.yul\":13732:13736   */\n      dup7\n        /* \"#utility.yul\":13700:13737   */\n      tag_125\n      jump\t// in\n    tag_278:\n        /* \"#utility.yul\":13759:13760   */\n      0x00\n        /* \"#utility.yul\":13773:13981   */\n    tag_279:\n        /* \"#utility.yul\":13787:13794   */\n      dup3\n        /* \"#utility.yul\":13784:13785   */\n      dup2\n        /* \"#utility.yul\":13781:13795   */\n      lt\n        /* \"#utility.yul\":13773:13981   */\n      iszero\n      tag_281\n      jumpi\n        /* \"#utility.yul\":13866:13875   */\n      dup5\n        /* \"#utility.yul\":13861:13864   */\n      dup10\n        /* \"#utility.yul\":13857:13876   */\n      add\n        /* \"#utility.yul\":13851:13877   */\n      mload\n        /* \"#utility.yul\":13843:13849   */\n      dup3\n        /* \"#utility.yul\":13836:13878   */\n      sstore\n        /* \"#utility.yul\":13917:13918   */\n      0x01\n        /* \"#utility.yul\":13909:13915   */\n      dup3\n        /* \"#utility.yul\":13905:13919   */\n      add\n        /* \"#utility.yul\":13895:13919   */\n      swap2\n      pop\n        /* \"#utility.yul\":13964:13966   */\n      0x20\n        /* \"#utility.yul\":13953:13962   */\n      dup6\n        /* \"#utility.yul\":13949:13967   */\n      add\n        /* \"#utility.yul\":13936:13967   */\n      swap5\n      pop\n        /* \"#utility.yul\":13810:13814   */\n      0x20\n        /* \"#utility.yul\":13807:13808   */\n      dup2\n        /* \"#utility.yul\":13803:13815   */\n      add\n        /* \"#utility.yul\":13798:13815   */\n      swap1\n      pop\n        /* \"#utility.yul\":13773:13981   */\n      jump(tag_279)\n    tag_281:\n        /* \"#utility.yul\":14009:14015   */\n      dup7\n        /* \"#utility.yul\":14000:14007   */\n      dup4\n        /* \"#utility.yul\":13997:14016   */\n      lt\n        /* \"#utility.yul\":13994:14173   */\n      iszero\n      tag_282\n      jumpi\n        /* \"#utility.yul\":14067:14076   */\n      dup5\n        /* \"#utility.yul\":14062:14065   */\n      dup10\n        /* \"#utility.yul\":14058:14077   */\n      add\n        /* \"#utility.yul\":14052:14078   */\n      mload\n        /* \"#utility.yul\":14110:14158   */\n      tag_283\n        /* \"#utility.yul\":14152:14156   */\n      0x1f\n        /* \"#utility.yul\":14144:14150   */\n      dup10\n        /* \"#utility.yul\":14140:14157   */\n      and\n        /* \"#utility.yul\":14129:14138   */\n      dup3\n        /* \"#utility.yul\":14110:14158   */\n      tag_138\n      jump\t// in\n    tag_283:\n        /* \"#utility.yul\":14102:14108   */\n      dup4\n        /* \"#utility.yul\":14095:14159   */\n      sstore\n        /* \"#utility.yul\":14017:14173   */\n      pop\n        /* \"#utility.yul\":13994:14173   */\n    tag_282:\n        /* \"#utility.yul\":14219:14220   */\n      0x01\n        /* \"#utility.yul\":14215:14216   */\n      0x02\n        /* \"#utility.yul\":14207:14213   */\n      dup9\n        /* \"#utility.yul\":14203:14217   */\n      mul\n        /* \"#utility.yul\":14199:14221   */\n      add\n        /* \"#utility.yul\":14193:14197   */\n      dup9\n        /* \"#utility.yul\":14186:14222   */\n      sstore\n        /* \"#utility.yul\":13621:14232   */\n      pop\n      pop\n      pop\n        /* \"#utility.yul\":13584:14471   */\n    tag_274:\n      pop\n        /* \"#utility.yul\":13174:14477   */\n      pop\n      pop\n      pop\n        /* \"#utility.yul\":13082:14477   */\n      pop\n      pop\n      jump\t// out\n        /* \"#utility.yul\":14483:14663   */\n    tag_140:\n        /* \"#utility.yul\":14531:14608   */\n      0x4e487b7100000000000000000000000000000000000000000000000000000000\n        /* \"#utility.yul\":14528:14529   */\n      0x00\n        /* \"#utility.yul\":14521:14609   */\n      mstore\n        /* \"#utility.yul\":14628:14632   */\n      0x11\n        /* \"#utility.yul\":14625:14626   */\n      0x04\n        /* \"#utility.yul\":14618:14633   */\n      mstore\n        /* \"#utility.yul\":14652:14656   */\n      0x24\n        /* \"#utility.yul\":14649:14650   */\n      0x00\n        /* \"#utility.yul\":14642:14657   */\n      revert\n        /* \"#utility.yul\":14669:14902   */\n    tag_34:\n        /* \"#utility.yul\":14708:14711   */\n      0x00\n        /* \"#utility.yul\":14731:14755   */\n      tag_286\n        /* \"#utility.yul\":14749:14754   */\n      dup3\n        /* \"#utility.yul\":14731:14755   */\n      tag_107\n      jump\t// in\n    tag_286:\n        /* \"#utility.yul\":14722:14755   */\n      swap2\n      pop\n        /* \"#utility.yul\":14777:14843   */\n      0xffffffffffffffffffffffffffffffffffffffffffffffffffffffffffffffff\n        /* \"#utility.yul\":14770:14775   */\n      dup3\n        /* \"#utility.yul\":14767:14844   */\n      sub\n        /* \"#utility.yul\":14764:14867   */\n      tag_287\n      jumpi\n        /* \"#utility.yul\":14847:14865   */\n      tag_288\n      tag_140\n      jump\t// in\n    tag_288:\n        /* \"#utility.yul\":14764:14867   */\n    tag_287:\n        /* \"#utility.yul\":14894:14895   */\n      0x01\n        /* \"#utility.yul\":14887:14892   */\n      dup3\n        /* \"#utility.yul\":14883:14896   */\n      add\n        /* \"#utility.yul\":14876:14896   */\n      swap1\n      pop\n        /* \"#utility.yul\":14669:14902   */\n      swap2\n      swap1\n      pop\n      jump\t// out\n        /* \"#utility.yul\":14908:15077   */\n    tag_141:\n        /* \"#utility.yul\":14992:15003   */\n      0x00\n        /* \"#utility.yul\":15026:15032   */\n      dup3\n        /* \"#utility.yul\":15021:15024   */\n      dup3\n        /* \"#utility.yul\":15014:15033   */\n      mstore\n        /* \"#utility.yul\":15066:15070   */\n      0x20\n        /* \"#utility.yul\":15061:15064   */\n      dup3\n        /* \"#utility.yul\":15057:15071   */\n      add\n        /* \"#utility.yul\":15042:15071   */\n      swap1\n      pop\n        /* \"#utility.yul\":14908:15077   */\n      swap3\n      swap2\n      pop\n      pop\n      jump\t// out\n        /* \"#utility.yul\":15083:15243   */\n    tag_142:\n        /* \"#utility.yul\":15223:15235   */\n      0x696e76616c696420696400000000000000000000000000000000000000000000\n        /* \"#utility.yul\":15219:15220   */\n      0x00\n        /* \"#utility.yul\":15211:15217   */\n      dup3\n        /* \"#utility.yul\":15207:15221   */\n      add\n        /* \"#utility.yul\":15200:15236   */\n      mstore\n        /* \"#utility.yul\":15083:15243   */\n      pop\n      jump\t// out\n        /* \"#utility.yul\":15249:15615   */\n    tag_143:\n        /* \"#utility.yul\":15391:15394   */\n      0x00\n        /* \"#utility.yul\":15412:15479   */\n      tag_292\n        /* \"#utility.yul\":15476:15478   */\n      0x0a\n        /* \"#utility.yul\":15471:15474   */\n      dup4\n        /* \"#utility.yul\":15412:15479   */\n      tag_141\n      jump\t// in\n    tag_292:\n        /* \"#utility.yul\":15405:15479   */\n      swap2\n      pop\n        /* \"#utility.yul\":15488:15581   */\n      tag_293\n        /* \"#utility.yul\":15577:15580   */\n      dup3\n        /* \"#utility.yul\":15488:15581   */\n      tag_142\n      jump\t// in\n    tag_293:\n        /* \"#utility.yul\":15606:15608   */\n      0x20\n        /* \"#utility.yul\":15601:15604   */\n      dup3\n        /* \"#utility.yul\":15597:15609   */\n      add\n        /* \"#utility.yul\":15590:15609   */\n      swap1\n      pop\n        /* \"#utility.yul\":15249:15615   */\n      swap2\n      swap1\n      pop\n      jump\t// out\n        /* \"#utility.yul\":15621:16040   */\n    tag_41:\n        /* \"#utility.yul\":15787:15791   */\n      0x00\n        /* \"#utility.yul\":15825:15827   */\n      0x20\n        /* \"#utility.yul\":15814:15823   */\n      dup3\n        /* \"#utility.yul\":15810:15828   */\n      add\n        /* \"#utility.yul\":15802:15828   */\n      swap1\n      pop\n        /* \"#utility.yul\":15874:15883   */\n      dup2\n        /* \"#utility.yul\":15868:15872   */\n      dup2\n        /* \"#utility.yul\":15864:15884   */\n      sub\n        /* \"#utility.yul\":15860:15861   */\n      0x00\n        /* \"#utility.yul\":15849:15858   */\n      dup4\n        /* \"#utility.yul\":15845:15862   */\n      add\n        /* \"#utility.yul\":15838:15885   */\n      mstore\n        /* \"#utility.yul\":15902:16033   */\n      tag_295\n        /* \"#utility.yul\":16028:16032   */\n      dup2\n        /* \"#utility.yul\":15902:16033   */\n      tag_143\n      jump\t// in\n    tag_295:\n        /* \"#utility.yul\":15894:16033   */\n      swap1\n      pop\n        /* \"#utility.yul\":15621:16040   */\n      swap2\n      swap1\n      pop\n      jump\t// out\n        /* \"#utility.yul\":16046:16240   */\n    tag_64:\n        /* \"#utility.yul\":16086:16090   */\n      0x00\n        /* \"#utility.yul\":16106:16126   */\n      tag_297\n        /* \"#utility.yul\":16124:16125   */\n      dup3\n        /* \"#utility.yul\":16106:16126   */\n      tag_107\n      jump\t// in\n    tag_297:\n        /* \"#utility.yul\":16101:16126   */\n      swap2\n      pop\n        /* \"#utility.yul\":16140:16160   */\n      tag_298\n        /* \"#utility.yul\":16158:16159   */\n      dup4\n        /* \"#utility.yul\":16140:16160   */\n      tag_107\n      jump\t// in\n    tag_298:\n        /* \"#utility.yul\":16135:16160   */\n      swap3\n      pop\n        /* \"#utility.yul\":16184:16185   */\n      dup3\n        /* \"#utility.yul\":16181:16182   */\n      dup3\n        /* \"#utility.yul\":16177:16186   */\n      sub\n        /* \"#utility.yul\":16169:16186   */\n      swap1\n      pop\n        /* \"#utility.yul\":16208:16209   */\n      dup2\n        /* \"#utility.yul\":16202:16206   */\n      dup2\n        /* \"#utility.yul\":16199:16210   */\n      gt\n        /* \"#utility.yul\":16196:16233   */\n      iszero\n      tag_299\n      jumpi\n        /* \"#utility.yul\":16213:16231   */\n      tag_300\n      tag_140\n      jump\t// in\n    tag_300:\n        /* \"#utility.yul\":16196:16233   */\n    tag_299:\n        /* \"#utility.yul\":16046:16240   */\n      swap3\n      swap2\n      pop\n      pop\n      jump\t// out\n        /* \"#utility.yul\":16246:16437   */\n    tag_76:\n        /* \"#utility.yul\":16286:16289   */\n      0x00\n        /* \"#utility.yul\":16305:16325   */\n      tag_302\n        /* \"#utility.yul\":16323:16324   */\n      dup3\n        /* \"#utility.yul\":16305:16325   */\n      tag_107\n      jump\t// in\n    tag_302:\n        /* \"#utility.yul\":16300:16325   */\n      swap2\n      pop\n        /* \"#utility.yul\":16339:16359   */\n      tag_303\n        /* \"#utility.yul\":16357:16358   */\n      dup4\n        /* \"#utility.yul\":16339:16359   */\n      tag_107\n      jump\t// in\n    tag_303:\n        /* \"#utility.yul\":16334:16359   */\n      swap3\n      pop\n        /* \"#utility.yul\":16382:16383   */\n      dup3\n        /* \"#utility.yul\":16379:16380   */\n      dup3\n        /* \"#utility.yul\":16375:16384   */\n      add\n        /* \"#utility.yul\":16368:16384   */\n      swap1\n      pop\n        /* \"#utility.yul\":16403:16406   */\n      dup1\n        /* \"#utility.yul\":16400:16401   */\n      dup3\n        /* \"#utility.yul\":16397:16407   */\n      gt\n        /* \"#utility.yul\":16394:16430   */\n      iszero\n      tag_304\n      jumpi\n        /* \"#utility.yul\":16410:16428   */\n      tag_305\n      tag_140\n      jump\t// in\n    tag_305:\n        /* \"#utility.yul\":16394:16430   */\n    tag_304:\n        /* \"#utility.yul\":16246:16437   */\n      swap3\n      swap2\n      pop\n      pop\n      jump\t// out\n        /* \"#utility.yul\":16443:16623   */\n    tag_89:\n        /* \"#utility.yul\":16491:16568   */\n      0x4e487b7100000000000000000000000000000000000000000000000000000000\n        /* \"#utility.yul\":16488:16489   */\n      0x00\n        /* \"#utility.yul\":16481:16569   */\n      mstore\n        /* \"#utility.yul\":16588:16592   */\n      0x32\n        /* \"#utility.yul\":16585:16586   */\n      0x04\n        /* \"#utility.yul\":16578:16593   */\n      mstore\n        /* \"#utility.yul\":16612:16616   */\n      0x24\n        /* \"#utility.yul\":16609:16610   */\n      0x00\n        /* \"#utility.yul\":16602:16617   */\n      revert\n\n    auxdata: 0xa264697066735822122067befac30505f881e9b6b11faf476d5b5a24ab2a64e74480b4ba1d812b7f528b64736f6c634300081a0033\n}\n",
				"bytecode": {
					"linkReferences": {},
					"object": "608060405260016005553480156013575f80fd5b50335f806101000a81548173ffffffffffffffffffffffffffffffffffffffff021916908373ffffffffffffffffffffffffffffffffffffffff160217905550611046806100605f395ff3fe608060405234801561000f575f80fd5b5060043610610055575f3560e01c8063292a4585146100595780633b3d7e5614610075578063560f3192146100a5578063997c21a5146100c1578063c72ef41f146100df575b5f80fd5b610073600480360381019061006e919061080c565b6100fb565b005b61008f600480360381019061008a91906108bd565b610205565b60405161009c91906109bb565b60405180910390f35b6100bf60048036038101906100ba91906108bd565b6103ab565b005b6100c9610438565b6040516100d69190610aea565b60405180910390f35b6100f960048036038101906100f49190610b0a565b61063b565b005b6040518060600160405280600554815260200185858080601f0160208091040260200160405190810160405280939291908181526020018383808284375f81840152601f19601f82011690508083019250505050505050815260200183838080601f0160208091040260200160405190810160405280939291908181526020018383808284375f81840152601f19601f8201169050808301925050505050505081525060045f60055481526020019081526020015f205f820151815f015560208201518160010190816101ce9190610dc2565b5060408201518160020190816101e49190610dc2565b5090505060055f8154809291906101fa90610ebe565b919050555050505050565b61020d61072b565b815f811415801561021f575060055481105b61025e576040517f08c379a000000000000000000000000000000000000000000000000000000000815260040161025590610f5f565b60405180910390fd5b60045f8481526020019081526020015f206040518060600160405290815f820154815260200160018201805461029390610bf5565b80601f01602080910402602001604051908101604052809291908181526020018280546102bf90610bf5565b801561030a5780601f106102e15761010080835404028352916020019161030a565b820191905f5260205f20905b8154815290600101906020018083116102ed57829003601f168201915b5050505050815260200160028201805461032390610bf5565b80601f016020809104026020016040519081016040528092919081815260200182805461034f90610bf5565b801561039a5780601f106103715761010080835404028352916020019161039a565b820191905f5260205f20905b81548152906001019060200180831161037d57829003601f168201915b505050505081525050915050919050565b805f81141580156103bd575060055481105b6103fc576040517f08c379a00000000000000000000000000000000000000000000000000000000081526004016103f390610f5f565b60405180910390fd5b60045f8381526020019081526020015f205f8082015f9055600182015f610423919061074b565b600282015f610432919061074b565b50505050565b60605f600160055461044a9190610f7d565b67ffffffffffffffff81111561046357610462610b9b565b5b60405190808252806020026020018201604052801561049c57816020015b61048961072b565b8152602001906001900390816104815790505b5090505f5b60016005546104b09190610f7d565b8110156106335760045f6001836104c79190610fb0565b81526020019081526020015f206040518060600160405290815f82015481526020016001820180546104f890610bf5565b80601f016020809104026020016040519081016040528092919081815260200182805461052490610bf5565b801561056f5780601f106105465761010080835404028352916020019161056f565b820191905f5260205f20905b81548152906001019060200180831161055257829003601f168201915b5050505050815260200160028201805461058890610bf5565b80601f01602080910402602001604051908101604052809291908181526020018280546105b490610bf5565b80156105ff5780601f106105d6576101008083540402835291602001916105ff565b820191905f5260205f20905b8154815290600101906020018083116105e257829003601f168201915b50505050508152505082828151811061061b5761061a610fe3565b5b602002602001018190525080806001019150506104a1565b508091505090565b604051806060016040528086815260200185858080601f0160208091040260200160405190810160405280939291908181526020018383808284375f81840152601f19601f82011690508083019250505050505050815260200183838080601f0160208091040260200160405190810160405280939291908181526020018383808284375f81840152601f19601f8201169050808301925050505050505081525060045f8781526020019081526020015f205f820151815f0155602082015181600101908161070a9190610dc2565b5060408201518160020190816107209190610dc2565b509050505050505050565b60405180606001604052805f815260200160608152602001606081525090565b50805461075790610bf5565b5f825580601f106107685750610785565b601f0160209004905f5260205f20908101906107849190610788565b5b50565b5b8082111561079f575f815f905550600101610789565b5090565b5f80fd5b5f80fd5b5f80fd5b5f80fd5b5f80fd5b5f8083601f8401126107cc576107cb6107ab565b5b8235905067ffffffffffffffff8111156107e9576107e86107af565b5b602083019150836001820283011115610805576108046107b3565b5b9250929050565b5f805f8060408587031215610824576108236107a3565b5b5f85013567ffffffffffffffff811115610841576108406107a7565b5b61084d878288016107b7565b9450945050602085013567ffffffffffffffff8111156108705761086f6107a7565b5b61087c878288016107b7565b925092505092959194509250565b5f819050919050565b61089c8161088a565b81146108a6575f80fd5b50565b5f813590506108b781610893565b92915050565b5f602082840312156108d2576108d16107a3565b5b5f6108df848285016108a9565b91505092915050565b6108f18161088a565b82525050565b5f81519050919050565b5f82825260208201905092915050565b8281835e5f83830152505050565b5f601f19601f8301169050919050565b5f610939826108f7565b6109438185610901565b9350610953818560208601610911565b61095c8161091f565b840191505092915050565b5f606083015f83015161097c5f8601826108e8565b5060208301518482036020860152610994828261092f565b915050604083015184820360408601526109ae828261092f565b9150508091505092915050565b5f6020820190508181035f8301526109d38184610967565b905092915050565b5f81519050919050565b5f82825260208201905092915050565b5f819050602082019050919050565b5f606083015f830151610a195f8601826108e8565b5060208301518482036020860152610a31828261092f565b91505060408301518482036040860152610a4b828261092f565b9150508091505092915050565b5f610a638383610a04565b905092915050565b5f602082019050919050565b5f610a81826109db565b610a8b81856109e5565b935083602082028501610a9d856109f5565b805f5b85811015610ad85784840389528151610ab98582610a58565b9450610ac483610a6b565b925060208a01995050600181019050610aa0565b50829750879550505050505092915050565b5f6020820190508181035f830152610b028184610a77565b905092915050565b5f805f805f60608688031215610b2357610b226107a3565b5b5f610b30888289016108a9565b955050602086013567ffffffffffffffff811115610b5157610b506107a7565b5b610b5d888289016107b7565b9450945050604086013567ffffffffffffffff811115610b8057610b7f6107a7565b5b610b8c888289016107b7565b92509250509295509295909350565b7f4e487b71000000000000000000000000000000000000000000000000000000005f52604160045260245ffd5b7f4e487b71000000000000000000000000000000000000000000000000000000005f52602260045260245ffd5b5f6002820490506001821680610c0c57607f821691505b602082108103610c1f57610c1e610bc8565b5b50919050565b5f819050815f5260205f209050919050565b5f6020601f8301049050919050565b5f82821b905092915050565b5f60088302610c817fffffffffffffffffffffffffffffffffffffffffffffffffffffffffffffffff82610c46565b610c8b8683610c46565b95508019841693508086168417925050509392505050565b5f819050919050565b5f610cc6610cc1610cbc8461088a565b610ca3565b61088a565b9050919050565b5f819050919050565b610cdf83610cac565b610cf3610ceb82610ccd565b848454610c52565b825550505050565b5f90565b610d07610cfb565b610d12818484610cd6565b505050565b5b81811015610d3557610d2a5f82610cff565b600181019050610d18565b5050565b601f821115610d7a57610d4b81610c25565b610d5484610c37565b81016020851015610d63578190505b610d77610d6f85610c37565b830182610d17565b50505b505050565b5f82821c905092915050565b5f610d9a5f1984600802610d7f565b1980831691505092915050565b5f610db28383610d8b565b9150826002028217905092915050565b610dcb826108f7565b67ffffffffffffffff811115610de457610de3610b9b565b5b610dee8254610bf5565b610df9828285610d39565b5f60209050601f831160018114610e2a575f8415610e18578287015190505b610e228582610da7565b865550610e89565b601f198416610e3886610c25565b5f5b82811015610e5f57848901518255600182019150602085019450602081019050610e3a565b86831015610e7c5784890151610e78601f891682610d8b565b8355505b6001600288020188555050505b505050505050565b7f4e487b71000000000000000000000000000000000000000000000000000000005f52601160045260245ffd5b5f610ec88261088a565b91507fffffffffffffffffffffffffffffffffffffffffffffffffffffffffffffffff8203610efa57610ef9610e91565b5b600182019050919050565b5f82825260208201905092915050565b7f696e76616c6964206964000000000000000000000000000000000000000000005f82015250565b5f610f49600a83610f05565b9150610f5482610f15565b602082019050919050565b5f6020820190508181035f830152610f7681610f3d565b9050919050565b5f610f878261088a565b9150610f928361088a565b9250828203905081811115610faa57610fa9610e91565b5b92915050565b5f610fba8261088a565b9150610fc58361088a565b9250828201905080821115610fdd57610fdc610e91565b5b92915050565b7f4e487b71000000000000000000000000000000000000000000000000000000005f52603260045260245ffdfea264697066735822122067befac30505f881e9b6b11faf476d5b5a24ab2a64e74480b4ba1d812b7f528b64736f6c634300081a0033",
					"opcodes": "PUSH1 0x80 PUSH1 0x40 MSTORE PUSH1 0x1 PUSH1 0x5 SSTORE CALLVALUE DUP1 ISZERO PUSH1 0x13 JUMPI PUSH0 DUP1 REVERT JUMPDEST POP CALLER PUSH0 DUP1 PUSH2 0x100 EXP DUP2 SLOAD DUP2 PUSH20 0xFFFFFFFFFFFFFFFFFFFFFFFFFFFFFFFFFFFFFFFF MUL NOT AND SWAP1 DUP4 PUSH20 0xFFFFFFFFFFFFFFFFFFFFFFFFFFFFFFFFFFFFFFFF AND MUL OR SWAP1 SSTORE POP PUSH2 0x1046 DUP1 PUSH2 0x60 PUSH0 CODECOPY PUSH0 RETURN INVALID PUSH1 0x80 PUSH1 0x40 MSTORE CALLVALUE DUP1 ISZERO PUSH2 0xF JUMPI PUSH0 DUP1 REVERT JUMPDEST POP PUSH1 0x4 CALLDATASIZE LT PUSH2 0x55 JUMPI PUSH0 CALLDATALOAD PUSH1 0xE0 SHR DUP1 PUSH4 0x292A4585 EQ PUSH2 0x59 JUMPI DUP1 PUSH4 0x3B3D7E56 EQ PUSH2 0x75 JUMPI DUP1 PUSH4 0x560F3192 EQ PUSH2 0xA5 JUMPI DUP1 PUSH4 0x997C21A5 EQ PUSH2 0xC1 JUMPI DUP1 PUSH4 0xC72EF41F EQ PUSH2 0xDF JUMPI JUMPDEST PUSH0 DUP1 REVERT JUMPDEST PUSH2 0x73 PUSH1 0x4 DUP1 CALLDATASIZE SUB DUP2 ADD SWAP1 PUSH2 0x6E SWAP2 SWAP1 PUSH2 0x80C JUMP JUMPDEST PUSH2 0xFB JUMP JUMPDEST STOP JUMPDEST PUSH2 0x8F PUSH1 0x4 DUP1 CALLDATASIZE SUB DUP2 ADD SWAP1 PUSH2 0x8A SWAP2 SWAP1 PUSH2 0x8BD JUMP JUMPDEST PUSH2 0x205 JUMP JUMPDEST PUSH1 0x40 MLOAD PUSH2 0x9C SWAP2 SWAP1 PUSH2 0x9BB JUMP JUMPDEST PUSH1 0x40 MLOAD DUP1 SWAP2 SUB SWAP1 RETURN JUMPDEST PUSH2 0xBF PUSH1 0x4 DUP1 CALLDATASIZE SUB DUP2 ADD SWAP1 PUSH2 0xBA SWAP2 SWAP1 PUSH2 0x8BD JUMP JUMPDEST PUSH2 0x3AB JUMP JUMPDEST STOP JUMPDEST PUSH2 0xC9 PUSH2 0x438 JUMP JUMPDEST PUSH1 0x40 MLOAD PUSH2 0xD6 SWAP2 SWAP1 PUSH2 0xAEA JUMP JUMPDEST PUSH1 0x40 MLOAD DUP1 SWAP2 SUB SWAP1 RETURN JUMPDEST PUSH2 0xF9 PUSH1 0x4 DUP1 CALLDATASIZE SUB DUP2 ADD SWAP1 PUSH2 0xF4 SWAP2 SWAP1 PUSH2 0xB0A JUMP JUMPDEST PUSH2 0x63B JUMP JUMPDEST STOP JUMPDEST PUSH1 0x40 MLOAD DUP1 PUSH1 0x60 ADD PUSH1 0x40 MSTORE DUP1 PUSH1 0x5 SLOAD DUP2 MSTORE PUSH1 0x20 ADD DUP6 DUP6 DUP1 DUP1 PUSH1 0x1F ADD PUSH1 0x20 DUP1 SWAP2 DIV MUL PUSH1 0x20 ADD PUSH1 0x40 MLOAD SWAP1 DUP2 ADD PUSH1 0x40 MSTORE DUP1 SWAP4 SWAP3 SWAP2 SWAP1 DUP2 DUP2 MSTORE PUSH1 0x20 ADD DUP4 DUP4 DUP1 DUP3 DUP5 CALLDATACOPY PUSH0 DUP2 DUP5 ADD MSTORE PUSH1 0x1F NOT PUSH1 0x1F DUP3 ADD AND SWAP1 POP DUP1 DUP4 ADD SWAP3 POP POP POP POP POP POP POP DUP2 MSTORE PUSH1 0x20 ADD DUP4 DUP4 DUP1 DUP1 PUSH1 0x1F ADD PUSH1 0x20 DUP1 SWAP2 DIV MUL PUSH1 0x20 ADD PUSH1 0x40 MLOAD SWAP1 DUP2 ADD PUSH1 0x40 MSTORE DUP1 SWAP4 SWAP3 SWAP2 SWAP1 DUP2 DUP2 MSTORE PUSH1 0x20 ADD DUP4 DUP4 DUP1 DUP3 DUP5 CALLDATACOPY PUSH0 DUP2 DUP5 ADD MSTORE PUSH1 0x1F NOT PUSH1 0x1F DUP3 ADD AND SWAP1 POP DUP1 DUP4 ADD SWAP3 POP POP POP POP POP POP POP DUP2 MSTORE POP PUSH1 0x4 PUSH0 PUSH1 0x5 SLOAD DUP2 MSTORE PUSH1 0x20 ADD SWAP1 DUP2 MSTORE PUSH1 0x20 ADD PUSH0 KECCAK256 PUSH0 DUP3 ADD MLOAD DUP2 PUSH0 ADD SSTORE PUSH1 0x20 DUP3 ADD MLOAD DUP2 PUSH1 0x1 ADD SWAP1 DUP2 PUSH2 0x1CE SWAP2 SWAP1 PUSH2 0xDC2 JUMP JUMPDEST POP PUSH1 0x40 DUP3 ADD MLOAD DUP2 PUSH1 0x2 ADD SWAP1 DUP2 PUSH2 0x1E4 SWAP2 SWAP1 PUSH2 0xDC2 JUMP JUMPDEST POP SWAP1 POP POP PUSH1 0x5 PUSH0 DUP2 SLOAD DUP1 SWAP3 SWAP2 SWAP1 PUSH2 0x1FA SWAP1 PUSH2 0xEBE JUMP JUMPDEST SWAP2 SWAP1 POP SSTORE POP POP POP POP POP JUMP JUMPDEST PUSH2 0x20D PUSH2 0x72B JUMP JUMPDEST DUP2 PUSH0 DUP2 EQ ISZERO DUP1 ISZERO PUSH2 0x21F JUMPI POP PUSH1 0x5 SLOAD DUP2 LT JUMPDEST PUSH2 0x25E JUMPI PUSH1 0x40 MLOAD PUSH32 0x8C379A000000000000000000000000000000000000000000000000000000000 DUP2 MSTORE PUSH1 0x4 ADD PUSH2 0x255 SWAP1 PUSH2 0xF5F JUMP JUMPDEST PUSH1 0x40 MLOAD DUP1 SWAP2 SUB SWAP1 REVERT JUMPDEST PUSH1 0x4 PUSH0 DUP5 DUP2 MSTORE PUSH1 0x20 ADD SWAP1 DUP2 MSTORE PUSH1 0x20 ADD PUSH0 KECCAK256 PUSH1 0x40 MLOAD DUP1 PUSH1 0x60 ADD PUSH1 0x40 MSTORE SWAP1 DUP2 PUSH0 DUP3 ADD SLOAD DUP2 MSTORE PUSH1 0x20 ADD PUSH1 0x1 DUP3 ADD DUP1 SLOAD PUSH2 0x293 SWAP1 PUSH2 0xBF5 JUMP JUMPDEST DUP1 PUSH1 0x1F ADD PUSH1 0x20 DUP1 SWAP2 DIV MUL PUSH1 0x20 ADD PUSH1 0x40 MLOAD SWAP1 DUP2 ADD PUSH1 0x40 MSTORE DUP1 SWAP3 SWAP2 SWAP1 DUP2 DUP2 MSTORE PUSH1 0x20 ADD DUP3 DUP1 SLOAD PUSH2 0x2BF SWAP1 PUSH2 0xBF5 JUMP JUMPDEST DUP1 ISZERO PUSH2 0x30A JUMPI DUP1 PUSH1 0x1F LT PUSH2 0x2E1 JUMPI PUSH2 0x100 DUP1 DUP4 SLOAD DIV MUL DUP4 MSTORE SWAP2 PUSH1 0x20 ADD SWAP2 PUSH2 0x30A JUMP JUMPDEST DUP3 ADD SWAP2 SWAP1 PUSH0 MSTORE PUSH1 0x20 PUSH0 KECCAK256 SWAP1 JUMPDEST DUP2 SLOAD DUP2 MSTORE SWAP1 PUSH1 0x1 ADD SWAP1 PUSH1 0x20 ADD DUP1 DUP4 GT PUSH2 0x2ED JUMPI DUP3 SWAP1 SUB PUSH1 0x1F AND DUP3 ADD SWAP2 JUMPDEST POP POP POP POP POP DUP2 MSTORE PUSH1 0x20 ADD PUSH1 0x2 DUP3 ADD DUP1 SLOAD PUSH2 0x323 SWAP1 PUSH2 0xBF5 JUMP JUMPDEST DUP1 PUSH1 0x1F ADD PUSH1 0x20 DUP1 SWAP2 DIV MUL PUSH1 0x20 ADD PUSH1 0x40 MLOAD SWAP1 DUP2 ADD PUSH1 0x40 MSTORE DUP1 SWAP3 SWAP2 SWAP1 DUP2 DUP2 MSTORE PUSH1 0x20 ADD DUP3 DUP1 SLOAD PUSH2 0x34F SWAP1 PUSH2 0xBF5 JUMP JUMPDEST DUP1 ISZERO PUSH2 0x39A JUMPI DUP1 PUSH1 0x1F LT PUSH2 0x371 JUMPI PUSH2 0x100 DUP1 DUP4 SLOAD DIV MUL DUP4 MSTORE SWAP2 PUSH1 0x20 ADD SWAP2 PUSH2 0x39A JUMP JUMPDEST DUP3 ADD SWAP2 SWAP1 PUSH0 MSTORE PUSH1 0x20 PUSH0 KECCAK256 SWAP1 JUMPDEST DUP2 SLOAD DUP2 MSTORE SWAP1 PUSH1 0x1 ADD SWAP1 PUSH1 0x20 ADD DUP1 DUP4 GT PUSH2 0x37D JUMPI DUP3 SWAP1 SUB PUSH1 0x1F AND DUP3 ADD SWAP2 JUMPDEST POP POP POP POP POP DUP2 MSTORE POP POP SWAP2 POP POP SWAP2 SWAP1 POP JUMP JUMPDEST DUP1 PUSH0 DUP2 EQ ISZERO DUP1 ISZERO PUSH2 0x3BD JUMPI POP PUSH1 0x5 SLOAD DUP2 LT JUMPDEST PUSH2 0x3FC JUMPI PUSH1 0x40 MLOAD PUSH32 0x8C379A000000000000000000000000000000000000000000000000000000000 DUP2 MSTORE PUSH1 0x4 ADD PUSH2 0x3F3 SWAP1 PUSH2 0xF5F JUMP JUMPDEST PUSH1 0x40 MLOAD DUP1 SWAP2 SUB SWAP1 REVERT JUMPDEST PUSH1 0x4 PUSH0 DUP4 DUP2 MSTORE PUSH1 0x20 ADD SWAP1 DUP2 MSTORE PUSH1 0x20 ADD PUSH0 KECCAK256 PUSH0 DUP1 DUP3 ADD PUSH0 SWAP1 SSTORE PUSH1 0x1 DUP3 ADD PUSH0 PUSH2 0x423 SWAP2 SWAP1 PUSH2 0x74B JUMP JUMPDEST PUSH1 0x2 DUP3 ADD PUSH0 PUSH2 0x432 SWAP2 SWAP1 PUSH2 0x74B JUMP JUMPDEST POP POP POP POP JUMP JUMPDEST PUSH1 0x60 PUSH0 PUSH1 0x1 PUSH1 0x5 SLOAD PUSH2 0x44A SWAP2 SWAP1 PUSH2 0xF7D JUMP JUMPDEST PUSH8 0xFFFFFFFFFFFFFFFF DUP2 GT ISZERO PUSH2 0x463 JUMPI PUSH2 0x462 PUSH2 0xB9B JUMP JUMPDEST JUMPDEST PUSH1 0x40 MLOAD SWAP1 DUP1 DUP3 MSTORE DUP1 PUSH1 0x20 MUL PUSH1 0x20 ADD DUP3 ADD PUSH1 0x40 MSTORE DUP1 ISZERO PUSH2 0x49C JUMPI DUP2 PUSH1 0x20 ADD JUMPDEST PUSH2 0x489 PUSH2 0x72B JUMP JUMPDEST DUP2 MSTORE PUSH1 0x20 ADD SWAP1 PUSH1 0x1 SWAP1 SUB SWAP1 DUP2 PUSH2 0x481 JUMPI SWAP1 POP JUMPDEST POP SWAP1 POP PUSH0 JUMPDEST PUSH1 0x1 PUSH1 0x5 SLOAD PUSH2 0x4B0 SWAP2 SWAP1 PUSH2 0xF7D JUMP JUMPDEST DUP2 LT ISZERO PUSH2 0x633 JUMPI PUSH1 0x4 PUSH0 PUSH1 0x1 DUP4 PUSH2 0x4C7 SWAP2 SWAP1 PUSH2 0xFB0 JUMP JUMPDEST DUP2 MSTORE PUSH1 0x20 ADD SWAP1 DUP2 MSTORE PUSH1 0x20 ADD PUSH0 KECCAK256 PUSH1 0x40 MLOAD DUP1 PUSH1 0x60 ADD PUSH1 0x40 MSTORE SWAP1 DUP2 PUSH0 DUP3 ADD SLOAD DUP2 MSTORE PUSH1 0x20 ADD PUSH1 0x1 DUP3 ADD DUP1 SLOAD PUSH2 0x4F8 SWAP1 PUSH2 0xBF5 JUMP JUMPDEST DUP1 PUSH1 0x1F ADD PUSH1 0x20 DUP1 SWAP2 DIV MUL PUSH1 0x20 ADD PUSH1 0x40 MLOAD SWAP1 DUP2 ADD PUSH1 0x40 MSTORE DUP1 SWAP3 SWAP2 SWAP1 DUP2 DUP2 MSTORE PUSH1 0x20 ADD DUP3 DUP1 SLOAD PUSH2 0x524 SWAP1 PUSH2 0xBF5 JUMP JUMPDEST DUP1 ISZERO PUSH2 0x56F JUMPI DUP1 PUSH1 0x1F LT PUSH2 0x546 JUMPI PUSH2 0x100 DUP1 DUP4 SLOAD DIV MUL DUP4 MSTORE SWAP2 PUSH1 0x20 ADD SWAP2 PUSH2 0x56F JUMP JUMPDEST DUP3 ADD SWAP2 SWAP1 PUSH0 MSTORE PUSH1 0x20 PUSH0 KECCAK256 SWAP1 JUMPDEST DUP2 SLOAD DUP2 MSTORE SWAP1 PUSH1 0x1 ADD SWAP1 PUSH1 0x20 ADD DUP1 DUP4 GT PUSH2 0x552 JUMPI DUP3 SWAP1 SUB PUSH1 0x1F AND DUP3 ADD SWAP2 JUMPDEST POP POP POP POP POP DUP2 MSTORE PUSH1 0x20 ADD PUSH1 0x2 DUP3 ADD DUP1 SLOAD PUSH2 0x588 SWAP1 PUSH2 0xBF5 JUMP JUMPDEST DUP1 PUSH1 0x1F ADD PUSH1 0x20 DUP1 SWAP2 DIV MUL PUSH1 0x20 ADD PUSH1 0x40 MLOAD SWAP1 DUP2 ADD PUSH1 0x40 MSTORE DUP1 SWAP3 SWAP2 SWAP1 DUP2 DUP2 MSTORE PUSH1 0x20 ADD DUP3 DUP1 SLOAD PUSH2 0x5B4 SWAP1 PUSH2 0xBF5 JUMP JUMPDEST DUP1 ISZERO PUSH2 0x5FF JUMPI DUP1 PUSH1 0x1F LT PUSH2 0x5D6 JUMPI PUSH2 0x100 DUP1 DUP4 SLOAD DIV MUL DUP4 MSTORE SWAP2 PUSH1 0x20 ADD SWAP2 PUSH2 0x5FF JUMP JUMPDEST DUP3 ADD SWAP2 SWAP1 PUSH0 MSTORE PUSH1 0x20 PUSH0 KECCAK256 SWAP1 JUMPDEST DUP2 SLOAD DUP2 MSTORE SWAP1 PUSH1 0x1 ADD SWAP1 PUSH1 0x20 ADD DUP1 DUP4 GT PUSH2 0x5E2 JUMPI DUP3 SWAP1 SUB PUSH1 0x1F AND DUP3 ADD SWAP2 JUMPDEST POP POP POP POP POP DUP2 MSTORE POP POP DUP3 DUP3 DUP2 MLOAD DUP2 LT PUSH2 0x61B JUMPI PUSH2 0x61A PUSH2 0xFE3 JUMP JUMPDEST JUMPDEST PUSH1 0x20 MUL PUSH1 0x20 ADD ADD DUP2 SWAP1 MSTORE POP DUP1 DUP1 PUSH1 0x1 ADD SWAP2 POP POP PUSH2 0x4A1 JUMP JUMPDEST POP DUP1 SWAP2 POP POP SWAP1 JUMP JUMPDEST PUSH1 0x40 MLOAD DUP1 PUSH1 0x60 ADD PUSH1 0x40 MSTORE DUP1 DUP7 DUP2 MSTORE PUSH1 0x20 ADD DUP6 DUP6 DUP1 DUP1 PUSH1 0x1F ADD PUSH1 0x20 DUP1 SWAP2 DIV MUL PUSH1 0x20 ADD PUSH1 0x40 MLOAD SWAP1 DUP2 ADD PUSH1 0x40 MSTORE DUP1 SWAP4 SWAP3 SWAP2 SWAP1 DUP2 DUP2 MSTORE PUSH1 0x20 ADD DUP4 DUP4 DUP1 DUP3 DUP5 CALLDATACOPY PUSH0 DUP2 DUP5 ADD MSTORE PUSH1 0x1F NOT PUSH1 0x1F DUP3 ADD AND SWAP1 POP DUP1 DUP4 ADD SWAP3 POP POP POP POP POP POP POP DUP2 MSTORE PUSH1 0x20 ADD DUP4 DUP4 DUP1 DUP1 PUSH1 0x1F ADD PUSH1 0x20 DUP1 SWAP2 DIV MUL PUSH1 0x20 ADD PUSH1 0x40 MLOAD SWAP1 DUP2 ADD PUSH1 0x40 MSTORE DUP1 SWAP4 SWAP3 SWAP2 SWAP1 DUP2 DUP2 MSTORE PUSH1 0x20 ADD DUP4 DUP4 DUP1 DUP3 DUP5 CALLDATACOPY PUSH0 DUP2 DUP5 ADD MSTORE PUSH1 0x1F NOT PUSH1 0x1F DUP3 ADD AND SWAP1 POP DUP1 DUP4 ADD SWAP3 POP POP POP POP POP POP POP DUP2 MSTORE POP PUSH1 0x4 PUSH0 DUP8 DUP2 MSTORE PUSH1 0x20 ADD SWAP1 DUP2 MSTORE PUSH1 0x20 ADD PUSH0 KECCAK256 PUSH0 DUP3 ADD MLOAD DUP2 PUSH0 ADD SSTORE PUSH1 0x20 DUP3 ADD MLOAD DUP2 PUSH1 0x1 ADD SWAP1 DUP2 PUSH2 0x70A SWAP2 SWAP1 PUSH2 0xDC2 JUMP JUMPDEST POP PUSH1 0x40 DUP3 ADD MLOAD DUP2 PUSH1 0x2 ADD SWAP1 DUP2 PUSH2 0x720 SWAP2 SWAP1 PUSH2 0xDC2 JUMP JUMPDEST POP SWAP1 POP POP POP POP POP POP POP JUMP JUMPDEST PUSH1 0x40 MLOAD DUP1 PUSH1 0x60 ADD PUSH1 0x40 MSTORE DUP1 PUSH0 DUP2 MSTORE PUSH1 0x20 ADD PUSH1 0x60 DUP2 MSTORE PUSH1 0x20 ADD PUSH1 0x60 DUP2 MSTORE POP SWAP1 JUMP JUMPDEST POP DUP1 SLOAD PUSH2 0x757 SWAP1 PUSH2 0xBF5 JUMP JUMPDEST PUSH0 DUP3 SSTORE DUP1 PUSH1 0x1F LT PUSH2 0x768 JUMPI POP PUSH2 0x785 JUMP JUMPDEST PUSH1 0x1F ADD PUSH1 0x20 SWAP1 DIV SWAP1 PUSH0 MSTORE PUSH1 0x20 PUSH0 KECCAK256 SWAP1 DUP2 ADD SWAP1 PUSH2 0x784 SWAP2 SWAP1 PUSH2 0x788 JUMP JUMPDEST JUMPDEST POP JUMP JUMPDEST JUMPDEST DUP1 DUP3 GT ISZERO PUSH2 0x79F JUMPI PUSH0 DUP2 PUSH0 SWAP1 SSTORE POP PUSH1 0x1 ADD PUSH2 0x789 JUMP JUMPDEST POP SWAP1 JUMP JUMPDEST PUSH0 DUP1 REVERT JUMPDEST PUSH0 DUP1 REVERT JUMPDEST PUSH0 DUP1 REVERT JUMPDEST PUSH0 DUP1 REVERT JUMPDEST PUSH0 DUP1 REVERT JUMPDEST PUSH0 DUP1 DUP4 PUSH1 0x1F DUP5 ADD SLT PUSH2 0x7CC JUMPI PUSH2 0x7CB PUSH2 0x7AB JUMP JUMPDEST JUMPDEST DUP3 CALLDATALOAD SWAP1 POP PUSH8 0xFFFFFFFFFFFFFFFF DUP2 GT ISZERO PUSH2 0x7E9 JUMPI PUSH2 0x7E8 PUSH2 0x7AF JUMP JUMPDEST JUMPDEST PUSH1 0x20 DUP4 ADD SWAP2 POP DUP4 PUSH1 0x1 DUP3 MUL DUP4 ADD GT ISZERO PUSH2 0x805 JUMPI PUSH2 0x804 PUSH2 0x7B3 JUMP JUMPDEST JUMPDEST SWAP3 POP SWAP3 SWAP1 POP JUMP JUMPDEST PUSH0 DUP1 PUSH0 DUP1 PUSH1 0x40 DUP6 DUP8 SUB SLT ISZERO PUSH2 0x824 JUMPI PUSH2 0x823 PUSH2 0x7A3 JUMP JUMPDEST JUMPDEST PUSH0 DUP6 ADD CALLDATALOAD PUSH8 0xFFFFFFFFFFFFFFFF DUP2 GT ISZERO PUSH2 0x841 JUMPI PUSH2 0x840 PUSH2 0x7A7 JUMP JUMPDEST JUMPDEST PUSH2 0x84D DUP8 DUP3 DUP9 ADD PUSH2 0x7B7 JUMP JUMPDEST SWAP5 POP SWAP5 POP POP PUSH1 0x20 DUP6 ADD CALLDATALOAD PUSH8 0xFFFFFFFFFFFFFFFF DUP2 GT ISZERO PUSH2 0x870 JUMPI PUSH2 0x86F PUSH2 0x7A7 JUMP JUMPDEST JUMPDEST PUSH2 0x87C DUP8 DUP3 DUP9 ADD PUSH2 0x7B7 JUMP JUMPDEST SWAP3 POP SWAP3 POP POP SWAP3 SWAP6 SWAP2 SWAP5 POP SWAP3 POP JUMP JUMPDEST PUSH0 DUP2 SWAP1 POP SWAP2 SWAP1 POP JUMP JUMPDEST PUSH2 0x89C DUP2 PUSH2 0x88A JUMP JUMPDEST DUP2 EQ PUSH2 0x8A6 JUMPI PUSH0 DUP1 REVERT JUMPDEST POP JUMP JUMPDEST PUSH0 DUP2 CALLDATALOAD SWAP1 POP PUSH2 0x8B7 DUP2 PUSH2 0x893 JUMP JUMPDEST SWAP3 SWAP2 POP POP JUMP JUMPDEST PUSH0 PUSH1 0x20 DUP3 DUP5 SUB SLT ISZERO PUSH2 0x8D2 JUMPI PUSH2 0x8D1 PUSH2 0x7A3 JUMP JUMPDEST JUMPDEST PUSH0 PUSH2 0x8DF DUP5 DUP3 DUP6 ADD PUSH2 0x8A9 JUMP JUMPDEST SWAP2 POP POP SWAP3 SWAP2 POP POP JUMP JUMPDEST PUSH2 0x8F1 DUP2 PUSH2 0x88A JUMP JUMPDEST DUP3 MSTORE POP POP JUMP JUMPDEST PUSH0 DUP2 MLOAD SWAP1 POP SWAP2 SWAP1 POP JUMP JUMPDEST PUSH0 DUP3 DUP3 MSTORE PUSH1 0x20 DUP3 ADD SWAP1 POP SWAP3 SWAP2 POP POP JUMP JUMPDEST DUP3 DUP2 DUP4 MCOPY PUSH0 DUP4 DUP4 ADD MSTORE POP POP POP JUMP JUMPDEST PUSH0 PUSH1 0x1F NOT PUSH1 0x1F DUP4 ADD AND SWAP1 POP SWAP2 SWAP1 POP JUMP JUMPDEST PUSH0 PUSH2 0x939 DUP3 PUSH2 0x8F7 JUMP JUMPDEST PUSH2 0x943 DUP2 DUP6 PUSH2 0x901 JUMP JUMPDEST SWAP4 POP PUSH2 0x953 DUP2 DUP6 PUSH1 0x20 DUP7 ADD PUSH2 0x911 JUMP JUMPDEST PUSH2 0x95C DUP2 PUSH2 0x91F JUMP JUMPDEST DUP5 ADD SWAP2 POP POP SWAP3 SWAP2 POP POP JUMP JUMPDEST PUSH0 PUSH1 0x60 DUP4 ADD PUSH0 DUP4 ADD MLOAD PUSH2 0x97C PUSH0 DUP7 ADD DUP3 PUSH2 0x8E8 JUMP JUMPDEST POP PUSH1 0x20 DUP4 ADD MLOAD DUP5 DUP3 SUB PUSH1 0x20 DUP7 ADD MSTORE PUSH2 0x994 DUP3 DUP3 PUSH2 0x92F JUMP JUMPDEST SWAP2 POP POP PUSH1 0x40 DUP4 ADD MLOAD DUP5 DUP3 SUB PUSH1 0x40 DUP7 ADD MSTORE PUSH2 0x9AE DUP3 DUP3 PUSH2 0x92F JUMP JUMPDEST SWAP2 POP POP DUP1 SWAP2 POP POP SWAP3 SWAP2 POP POP JUMP JUMPDEST PUSH0 PUSH1 0x20 DUP3 ADD SWAP1 POP DUP2 DUP2 SUB PUSH0 DUP4 ADD MSTORE PUSH2 0x9D3 DUP2 DUP5 PUSH2 0x967 JUMP JUMPDEST SWAP1 POP SWAP3 SWAP2 POP POP JUMP JUMPDEST PUSH0 DUP2 MLOAD SWAP1 POP SWAP2 SWAP1 POP JUMP JUMPDEST PUSH0 DUP3 DUP3 MSTORE PUSH1 0x20 DUP3 ADD SWAP1 POP SWAP3 SWAP2 POP POP JUMP JUMPDEST PUSH0 DUP2 SWAP1 POP PUSH1 0x20 DUP3 ADD SWAP1 POP SWAP2 SWAP1 POP JUMP JUMPDEST PUSH0 PUSH1 0x60 DUP4 ADD PUSH0 DUP4 ADD MLOAD PUSH2 0xA19 PUSH0 DUP7 ADD DUP3 PUSH2 0x8E8 JUMP JUMPDEST POP PUSH1 0x20 DUP4 ADD MLOAD DUP5 DUP3 SUB PUSH1 0x20 DUP7 ADD MSTORE PUSH2 0xA31 DUP3 DUP3 PUSH2 0x92F JUMP JUMPDEST SWAP2 POP POP PUSH1 0x40 DUP4 ADD MLOAD DUP5 DUP3 SUB PUSH1 0x40 DUP7 ADD MSTORE PUSH2 0xA4B DUP3 DUP3 PUSH2 0x92F JUMP JUMPDEST SWAP2 POP POP DUP1 SWAP2 POP POP SWAP3 SWAP2 POP POP JUMP JUMPDEST PUSH0 PUSH2 0xA63 DUP4 DUP4 PUSH2 0xA04 JUMP JUMPDEST SWAP1 POP SWAP3 SWAP2 POP POP JUMP JUMPDEST PUSH0 PUSH1 0x20 DUP3 ADD SWAP1 POP SWAP2 SWAP1 POP JUMP JUMPDEST PUSH0 PUSH2 0xA81 DUP3 PUSH2 0x9DB JUMP JUMPDEST PUSH2 0xA8B DUP2 DUP6 PUSH2 0x9E5 JUMP JUMPDEST SWAP4 POP DUP4 PUSH1 0x20 DUP3 MUL DUP6 ADD PUSH2 0xA9D DUP6 PUSH2 0x9F5 JUMP JUMPDEST DUP1 PUSH0 JUMPDEST DUP6 DUP2 LT ISZERO PUSH2 0xAD8 JUMPI DUP5 DUP5 SUB DUP10 MSTORE DUP2 MLOAD PUSH2 0xAB9 DUP6 DUP3 PUSH2 0xA58 JUMP JUMPDEST SWAP5 POP PUSH2 0xAC4 DUP4 PUSH2 0xA6B JUMP JUMPDEST SWAP3 POP PUSH1 0x20 DUP11 ADD SWAP10 POP POP PUSH1 0x1 DUP2 ADD SWAP1 POP PUSH2 0xAA0 JUMP JUMPDEST POP DUP3 SWAP8 POP DUP8 SWAP6 POP POP POP POP POP POP SWAP3 SWAP2 POP POP JUMP JUMPDEST PUSH0 PUSH1 0x20 DUP3 ADD SWAP1 POP DUP2 DUP2 SUB PUSH0 DUP4 ADD MSTORE PUSH2 0xB02 DUP2 DUP5 PUSH2 0xA77 JUMP JUMPDEST SWAP1 POP SWAP3 SWAP2 POP POP JUMP JUMPDEST PUSH0 DUP1 PUSH0 DUP1 PUSH0 PUSH1 0x60 DUP7 DUP9 SUB SLT ISZERO PUSH2 0xB23 JUMPI PUSH2 0xB22 PUSH2 0x7A3 JUMP JUMPDEST JUMPDEST PUSH0 PUSH2 0xB30 DUP9 DUP3 DUP10 ADD PUSH2 0x8A9 JUMP JUMPDEST SWAP6 POP POP PUSH1 0x20 DUP7 ADD CALLDATALOAD PUSH8 0xFFFFFFFFFFFFFFFF DUP2 GT ISZERO PUSH2 0xB51 JUMPI PUSH2 0xB50 PUSH2 0x7A7 JUMP JUMPDEST JUMPDEST PUSH2 0xB5D DUP9 DUP3 DUP10 ADD PUSH2 0x7B7 JUMP JUMPDEST SWAP5 POP SWAP5 POP POP PUSH1 0x40 DUP7 ADD CALLDATALOAD PUSH8 0xFFFFFFFFFFFFFFFF DUP2 GT ISZERO PUSH2 0xB80 JUMPI PUSH2 0xB7F PUSH2 0x7A7 JUMP JUMPDEST JUMPDEST PUSH2 0xB8C DUP9 DUP3 DUP10 ADD PUSH2 0x7B7 JUMP JUMPDEST SWAP3 POP SWAP3 POP POP SWAP3 SWAP6 POP SWAP3 SWAP6 SWAP1 SWAP4 POP JUMP JUMPDEST PUSH32 0x4E487B7100000000000000000000000000000000000000000000000000000000 PUSH0 MSTORE PUSH1 0x41 PUSH1 0x4 MSTORE PUSH1 0x24 PUSH0 REVERT JUMPDEST PUSH32 0x4E487B7100000000000000000000000000000000000000000000000000000000 PUSH0 MSTORE PUSH1 0x22 PUSH1 0x4 MSTORE PUSH1 0x24 PUSH0 REVERT JUMPDEST PUSH0 PUSH1 0x2 DUP3 DIV SWAP1 POP PUSH1 0x1 DUP3 AND DUP1 PUSH2 0xC0C JUMPI PUSH1 0x7F DUP3 AND SWAP2 POP JUMPDEST PUSH1 0x20 DUP3 LT DUP2 SUB PUSH2 0xC1F JUMPI PUSH2 0xC1E PUSH2 0xBC8 JUMP JUMPDEST JUMPDEST POP SWAP2 SWAP1 POP JUMP JUMPDEST PUSH0 DUP2 SWAP1 POP DUP2 PUSH0 MSTORE PUSH1 0x20 PUSH0 KECCAK256 SWAP1 POP SWAP2 SWAP1 POP JUMP JUMPDEST PUSH0 PUSH1 0x20 PUSH1 0x1F DUP4 ADD DIV SWAP1 POP SWAP2 SWAP1 POP JUMP JUMPDEST PUSH0 DUP3 DUP3 SHL SWAP1 POP SWAP3 SWAP2 POP POP JUMP JUMPDEST PUSH0 PUSH1 0x8 DUP4 MUL PUSH2 0xC81 PUSH32 0xFFFFFFFFFFFFFFFFFFFFFFFFFFFFFFFFFFFFFFFFFFFFFFFFFFFFFFFFFFFFFFFF DUP3 PUSH2 0xC46 JUMP JUMPDEST PUSH2 0xC8B DUP7 DUP4 PUSH2 0xC46 JUMP JUMPDEST SWAP6 POP DUP1 NOT DUP5 AND SWAP4 POP DUP1 DUP7 AND DUP5 OR SWAP3 POP POP POP SWAP4 SWAP3 POP POP POP JUMP JUMPDEST PUSH0 DUP2 SWAP1 POP SWAP2 SWAP1 POP JUMP JUMPDEST PUSH0 PUSH2 0xCC6 PUSH2 0xCC1 PUSH2 0xCBC DUP5 PUSH2 0x88A JUMP JUMPDEST PUSH2 0xCA3 JUMP JUMPDEST PUSH2 0x88A JUMP JUMPDEST SWAP1 POP SWAP2 SWAP1 POP JUMP JUMPDEST PUSH0 DUP2 SWAP1 POP SWAP2 SWAP1 POP JUMP JUMPDEST PUSH2 0xCDF DUP4 PUSH2 0xCAC JUMP JUMPDEST PUSH2 0xCF3 PUSH2 0xCEB DUP3 PUSH2 0xCCD JUMP JUMPDEST DUP5 DUP5 SLOAD PUSH2 0xC52 JUMP JUMPDEST DUP3 SSTORE POP POP POP POP JUMP JUMPDEST PUSH0 SWAP1 JUMP JUMPDEST PUSH2 0xD07 PUSH2 0xCFB JUMP JUMPDEST PUSH2 0xD12 DUP2 DUP5 DUP5 PUSH2 0xCD6 JUMP JUMPDEST POP POP POP JUMP JUMPDEST JUMPDEST DUP2 DUP2 LT ISZERO PUSH2 0xD35 JUMPI PUSH2 0xD2A PUSH0 DUP3 PUSH2 0xCFF JUMP JUMPDEST PUSH1 0x1 DUP2 ADD SWAP1 POP PUSH2 0xD18 JUMP JUMPDEST POP POP JUMP JUMPDEST PUSH1 0x1F DUP3 GT ISZERO PUSH2 0xD7A JUMPI PUSH2 0xD4B DUP2 PUSH2 0xC25 JUMP JUMPDEST PUSH2 0xD54 DUP5 PUSH2 0xC37 JUMP JUMPDEST DUP2 ADD PUSH1 0x20 DUP6 LT ISZERO PUSH2 0xD63 JUMPI DUP2 SWAP1 POP JUMPDEST PUSH2 0xD77 PUSH2 0xD6F DUP6 PUSH2 0xC37 JUMP JUMPDEST DUP4 ADD DUP3 PUSH2 0xD17 JUMP JUMPDEST POP POP JUMPDEST POP POP POP JUMP JUMPDEST PUSH0 DUP3 DUP3 SHR SWAP1 POP SWAP3 SWAP2 POP POP JUMP JUMPDEST PUSH0 PUSH2 0xD9A PUSH0 NOT DUP5 PUSH1 0x8 MUL PUSH2 0xD7F JUMP JUMPDEST NOT DUP1 DUP4 AND SWAP2 POP POP SWAP3 SWAP2 POP POP JUMP JUMPDEST PUSH0 PUSH2 0xDB2 DUP4 DUP4 PUSH2 0xD8B JUMP JUMPDEST SWAP2 POP DUP3 PUSH1 0x2 MUL DUP3 OR SWAP1 POP SWAP3 SWAP2 POP POP JUMP JUMPDEST PUSH2 0xDCB DUP3 PUSH2 0x8F7 JUMP JUMPDEST PUSH8 0xFFFFFFFFFFFFFFFF DUP2 GT ISZERO PUSH2 0xDE4 JUMPI PUSH2 0xDE3 PUSH2 0xB9B JUMP JUMPDEST JUMPDEST PUSH2 0xDEE DUP3 SLOAD PUSH2 0xBF5 JUMP JUMPDEST PUSH2 0xDF9 DUP3 DUP3 DUP6 PUSH2 0xD39 JUMP JUMPDEST PUSH0 PUSH1 0x20 SWAP1 POP PUSH1 0x1F DUP4 GT PUSH1 0x1 DUP2 EQ PUSH2 0xE2A JUMPI PUSH0 DUP5 ISZERO PUSH2 0xE18 JUMPI DUP3 DUP8 ADD MLOAD SWAP1 POP JUMPDEST PUSH2 0xE22 DUP6 DUP3 PUSH2 0xDA7 JUMP JUMPDEST DUP7 SSTORE POP PUSH2 0xE89 JUMP JUMPDEST PUSH1 0x1F NOT DUP5 AND PUSH2 0xE38 DUP7 PUSH2 0xC25 JUMP JUMPDEST PUSH0 JUMPDEST DUP3 DUP2 LT ISZERO PUSH2 0xE5F JUMPI DUP5 DUP10 ADD MLOAD DUP3 SSTORE PUSH1 0x1 DUP3 ADD SWAP2 POP PUSH1 0x20 DUP6 ADD SWAP5 POP PUSH1 0x20 DUP2 ADD SWAP1 POP PUSH2 0xE3A JUMP JUMPDEST DUP7 DUP4 LT ISZERO PUSH2 0xE7C JUMPI DUP5 DUP10 ADD MLOAD PUSH2 0xE78 PUSH1 0x1F DUP10 AND DUP3 PUSH2 0xD8B JUMP JUMPDEST DUP4 SSTORE POP JUMPDEST PUSH1 0x1 PUSH1 0x2 DUP9 MUL ADD DUP9 SSTORE POP POP POP JUMPDEST POP POP POP POP POP POP JUMP JUMPDEST PUSH32 0x4E487B7100000000000000000000000000000000000000000000000000000000 PUSH0 MSTORE PUSH1 0x11 PUSH1 0x4 MSTORE PUSH1 0x24 PUSH0 REVERT JUMPDEST PUSH0 PUSH2 0xEC8 DUP3 PUSH2 0x88A JUMP JUMPDEST SWAP2 POP PUSH32 0xFFFFFFFFFFFFFFFFFFFFFFFFFFFFFFFFFFFFFFFFFFFFFFFFFFFFFFFFFFFFFFFF DUP3 SUB PUSH2 0xEFA JUMPI PUSH2 0xEF9 PUSH2 0xE91 JUMP JUMPDEST JUMPDEST PUSH1 0x1 DUP3 ADD SWAP1 POP SWAP2 SWAP1 POP JUMP JUMPDEST PUSH0 DUP3 DUP3 MSTORE PUSH1 0x20 DUP3 ADD SWAP1 POP SWAP3 SWAP2 POP POP JUMP JUMPDEST PUSH32 0x696E76616C696420696400000000000000000000000000000000000000000000 PUSH0 DUP3 ADD MSTORE POP JUMP JUMPDEST PUSH0 PUSH2 0xF49 PUSH1 0xA DUP4 PUSH2 0xF05 JUMP JUMPDEST SWAP2 POP PUSH2 0xF54 DUP3 PUSH2 0xF15 JUMP JUMPDEST PUSH1 0x20 DUP3 ADD SWAP1 POP SWAP2 SWAP1 POP JUMP JUMPDEST PUSH0 PUSH1 0x20 DUP3 ADD SWAP1 POP DUP2 DUP2 SUB PUSH0 DUP4 ADD MSTORE PUSH2 0xF76 DUP2 PUSH2 0xF3D JUMP JUMPDEST SWAP1 POP SWAP2 SWAP1 POP JUMP JUMPDEST PUSH0 PUSH2 0xF87 DUP3 PUSH2 0x88A JUMP JUMPDEST SWAP2 POP PUSH2 0xF92 DUP4 PUSH2 0x88A JUMP JUMPDEST SWAP3 POP DUP3 DUP3 SUB SWAP1 POP DUP2 DUP2 GT ISZERO PUSH2 0xFAA JUMPI PUSH2 0xFA9 PUSH2 0xE91 JUMP JUMPDEST JUMPDEST SWAP3 SWAP2 POP POP JUMP JUMPDEST PUSH0 PUSH2 0xFBA DUP3 PUSH2 0x88A JUMP JUMPDEST SWAP2 POP PUSH2 0xFC5 DUP4 PUSH2 0x88A JUMP JUMPDEST SWAP3 POP DUP3 DUP3 ADD SWAP1 POP DUP1 DUP3 GT ISZERO PUSH2 0xFDD JUMPI PUSH2 0xFDC PUSH2 0xE91 JUMP JUMPDEST JUMPDEST SWAP3 SWAP2 POP POP JUMP JUMPDEST PUSH32 0x4E487B7100000000000000000000000000000000000000000000000000000000 PUSH0 MSTORE PUSH1 0x32 PUSH1 0x4 MSTORE PUSH1 0x24 PUSH0 REVERT INVALID LOG2 PUSH5 0x6970667358 0x22 SLT KECCAK256 PUSH8 0xBEFAC30505F881E9 0xB6 0xB1 0x1F 0xAF SELFBALANCE PUSH14 0x5B5A24AB2A64E74480B4BA1D812B PUSH32 0x528B64736F6C634300081A003300000000000000000000000000000000000000 "
				},
				"gasEstimates": {
					"creation": {
						"codeDepositCost": "833200",
						"executionCost": "47239",
						"totalCost": "880439"
					},
					"external": {
						"allTask()": "infinite",
						"createTask(string,string)": "infinite",
						"deleteTask(uint256)": "infinite",
						"updateTask(uint256,string,string)": "infinite",
						"viewTask(uint256)": "infinite"
					}
				},
				"methodIdentifiers": {
					"allTask()": "997c21a5",
					"createTask(string,string)": "292a4585",
					"deleteTask(uint256)": "560f3192",
					"updateTask(uint256,string,string)": "c72ef41f",
					"viewTask(uint256)": "3b3d7e56"
				}
			},
			"storageLayout": {
				"storage": [
					{
						"astId": 10,
						"contract": "Toda.sol:Toda",
						"label": "owner",
						"offset": 0,
						"slot": "0",
						"type": "t_address"
					},
					{
						"astId": 13,
						"contract": "Toda.sol:Toda",
						"label": "task",
						"offset": 0,
						"slot": "1",
						"type": "t_struct(Task)8_storage"
					},
					{
						"astId": 18,
						"contract": "Toda.sol:Toda",
						"label": "tasks",
						"offset": 0,
						"slot": "4",
						"type": "t_mapping(t_uint256,t_struct(Task)8_storage)"
					},
					{
						"astId": 21,
						"contract": "Toda.sol:Toda",
						"label": "taskId",
						"offset": 0,
						"slot": "5",
						"type": "t_uint256"
					}
				],
				"types": {
					"t_address": {
						"encoding": "inplace",
						"label": "address",
						"numberOfBytes": "20"
					},
					"t_mapping(t_uint256,t_struct(Task)8_storage)": {
						"encoding": "mapping",
						"key": "t_uint256",
						"label": "mapping(uint256 => struct Toda.Task)",
						"numberOfBytes": "32",
						"value": "t_struct(Task)8_storage"
					},
					"t_string_storage": {
						"encoding": "bytes",
						"label": "string",
						"numberOfBytes": "32"
					},
					"t_struct(Task)8_storage": {
						"encoding": "inplace",
						"label": "struct Toda.Task",
						"members": [
							{
								"astId": 3,
								"contract": "Toda.sol:Toda",
								"label": "id",
								"offset": 0,
								"slot": "0",
								"type": "t_uint256"
							},
							{
								"astId": 5,
								"contract": "Toda.sol:Toda",
								"label": "name",
								"offset": 0,
								"slot": "1",
								"type": "t_string_storage"
							},
							{
								"astId": 7,
								"contract": "Toda.sol:Toda",
								"label": "date",
								"offset": 0,
								"slot": "2",
								"type": "t_string_storage"
							}
						],
						"numberOfBytes": "96"
					},
					"t_uint256": {
						"encoding": "inplace",
						"label": "uint256",
						"numberOfBytes": "32"
					}
				}
			},
			"userdoc": {
				"kind": "user",
				"methods": {},
				"version": 1
			}
		}
	}
}