{
	"statevariable.sol": {
		"State": {
			"abi": [
				{
					"inputs": [],
					"stateMutability": "nonpayable",
					"type": "constructor"
				},
				{
					"inputs": [],
					"name": "age",
					"outputs": [
						{
							"internalType": "uint256",
							"name": "",
							"type": "uint256"
						}
					],
					"stateMutability": "view",
					"type": "function"
				},
				{
					"inputs": [],
					"name": "num",
					"outputs": [
						{
							"internalType": "uint256",
							"name": "",
							"type": "uint256"
						}
					],
					"stateMutability": "view",
					"type": "function"
				},
				{
					"inputs": [],
					"name": "setAge",
					"outputs": [],
					"stateMutability": "nonpayable",
					"type": "function"
				},
				{
					"inputs": [],
					"name": "yr",
					"outputs": [
						{
							"internalType": "uint256",
							"name": "",
							"type": "uint256"
						}
					],
					"stateMutability": "view",
					"type": "function"
				}
			],
			"devdoc": {
				"kind": "dev",
				"methods": {},
				"version": 1
			},
			"evm": {
				"assembly": "    /* \"statevariable.sol\":72:280  contract State... */\n  mstore(0x40, 0x80)\n    /* \"statevariable.sol\":154:158  2024 */\n  0x07e8\n    /* \"statevariable.sol\":139:158  uint public yr=2024 */\n  0x02\n  sstore\n    /* \"statevariable.sol\":231:277  constructor()  ... */\n  callvalue\n  dup1\n  iszero\n  tag_1\n  jumpi\n  0x00\n  dup1\n  revert\ntag_1:\n  pop\n    /* \"statevariable.sol\":267:269  10 */\n  0x0a\n    /* \"statevariable.sol\":263:266  num */\n  0x01\n    /* \"statevariable.sol\":263:269  num=10 */\n  dup2\n  swap1\n  sstore\n  pop\n    /* \"statevariable.sol\":72:280  contract State... */\n  dataSize(sub_0)\n  dup1\n  dataOffset(sub_0)\n  0x00\n  codecopy\n  0x00\n  return\nstop\n\nsub_0: assembly {\n        /* \"statevariable.sol\":72:280  contract State... */\n      mstore(0x40, 0x80)\n      callvalue\n      dup1\n      iszero\n      tag_1\n      jumpi\n      0x00\n      dup1\n      revert\n    tag_1:\n      pop\n      jumpi(tag_2, lt(calldatasize, 0x04))\n      shr(0xe0, calldataload(0x00))\n      dup1\n      0x262a9dff\n      eq\n      tag_3\n      jumpi\n      dup1\n      0x444a24e8\n      eq\n      tag_4\n      jumpi\n      dup1\n      0x457676ee\n      eq\n      tag_5\n      jumpi\n      dup1\n      0x4e70b1dc\n      eq\n      tag_6\n      jumpi\n    tag_2:\n      0x00\n      dup1\n      revert\n        /* \"statevariable.sol\":95:110  uint public age */\n    tag_3:\n      tag_7\n      tag_8\n      jump\t// in\n    tag_7:\n      mload(0x40)\n      tag_9\n      swap2\n      swap1\n      tag_10\n      jump\t// in\n    tag_9:\n      mload(0x40)\n      dup1\n      swap2\n      sub\n      swap1\n      return\n        /* \"statevariable.sol\":139:158  uint public yr=2024 */\n    tag_4:\n      tag_11\n      tag_12\n      jump\t// in\n    tag_11:\n      mload(0x40)\n      tag_13\n      swap2\n      swap1\n      tag_10\n      jump\t// in\n    tag_13:\n      mload(0x40)\n      dup1\n      swap2\n      sub\n      swap1\n      return\n        /* \"statevariable.sol\":167:225  function setAge() public ... */\n    tag_5:\n      tag_14\n      tag_15\n      jump\t// in\n    tag_14:\n      stop\n        /* \"statevariable.sol\":117:132  uint public num */\n    tag_6:\n      tag_16\n      tag_17\n      jump\t// in\n    tag_16:\n      mload(0x40)\n      tag_18\n      swap2\n      swap1\n      tag_10\n      jump\t// in\n    tag_18:\n      mload(0x40)\n      dup1\n      swap2\n      sub\n      swap1\n      return\n        /* \"statevariable.sol\":95:110  uint public age */\n    tag_8:\n      sload(0x00)\n      dup2\n      jump\t// out\n        /* \"statevariable.sol\":139:158  uint public yr=2024 */\n    tag_12:\n      sload(0x02)\n      dup2\n      jump\t// out\n        /* \"statevariable.sol\":167:225  function setAge() public ... */\n    tag_15:\n        /* \"statevariable.sol\":215:217  10 */\n      0x0a\n        /* \"statevariable.sol\":209:212  age */\n      0x00\n        /* \"statevariable.sol\":209:217  age = 10 */\n      dup2\n      swap1\n      sstore\n      pop\n        /* \"statevariable.sol\":167:225  function setAge() public ... */\n      jump\t// out\n        /* \"statevariable.sol\":117:132  uint public num */\n    tag_17:\n      sload(0x01)\n      dup2\n      jump\t// out\n        /* \"#utility.yul\":7:84   */\n    tag_20:\n        /* \"#utility.yul\":44:51   */\n      0x00\n        /* \"#utility.yul\":73:78   */\n      dup2\n        /* \"#utility.yul\":62:78   */\n      swap1\n      pop\n        /* \"#utility.yul\":7:84   */\n      swap2\n      swap1\n      pop\n      jump\t// out\n        /* \"#utility.yul\":90:208   */\n    tag_21:\n        /* \"#utility.yul\":177:201   */\n      tag_25\n        /* \"#utility.yul\":195:200   */\n      dup2\n        /* \"#utility.yul\":177:201   */\n      tag_20\n      jump\t// in\n    tag_25:\n        /* \"#utility.yul\":172:175   */\n      dup3\n        /* \"#utility.yul\":165:202   */\n      mstore\n        /* \"#utility.yul\":90:208   */\n      pop\n      pop\n      jump\t// out\n        /* \"#utility.yul\":214:436   */\n    tag_10:\n        /* \"#utility.yul\":307:311   */\n      0x00\n        /* \"#utility.yul\":345:347   */\n      0x20\n        /* \"#utility.yul\":334:343   */\n      dup3\n        /* \"#utility.yul\":330:348   */\n      add\n        /* \"#utility.yul\":322:348   */\n      swap1\n      pop\n        /* \"#utility.yul\":358:429   */\n      tag_27\n        /* \"#utility.yul\":426:427   */\n      0x00\n        /* \"#utility.yul\":415:424   */\n      dup4\n        /* \"#utility.yul\":411:428   */\n      add\n        /* \"#utility.yul\":402:408   */\n      dup5\n        /* \"#utility.yul\":358:429   */\n      tag_21\n      jump\t// in\n    tag_27:\n        /* \"#utility.yul\":214:436   */\n      swap3\n      swap2\n      pop\n      pop\n      jump\t// out\n\n    auxdata: 0xa264697066735822122036650f907121231785fb3de9e3c37a92c166833a3d5af30fc8da263d049dc85c64736f6c634300081a0033\n}\n",
				"bytecode": {
					"linkReferences": {},
					"object": "60806040526107e86002553480156014575f80fd5b50600a60018190555061011b8061002a5f395ff3fe6080604052348015600e575f80fd5b50600436106044575f3560e01c8063262a9dff146048578063444a24e8146062578063457676ee14607c5780634e70b1dc146084575b5f80fd5b604e609e565b6040516059919060ce565b60405180910390f35b606860a3565b6040516073919060ce565b60405180910390f35b608260a9565b005b608a60b2565b6040516095919060ce565b60405180910390f35b5f5481565b60025481565b600a5f81905550565b60015481565b5f819050919050565b60c88160b8565b82525050565b5f60208201905060df5f83018460c1565b9291505056fea264697066735822122036650f907121231785fb3de9e3c37a92c166833a3d5af30fc8da263d049dc85c64736f6c634300081a0033",
					"opcodes": "PUSH1 0x80 PUSH1 0x40 MSTORE PUSH2 0x7E8 PUSH1 0x2 SSTORE CALLVALUE DUP1 ISZERO PUSH1 0x14 JUMPI PUSH0 DUP1 REVERT JUMPDEST POP PUSH1 0xA PUSH1 0x1 DUP2 SWAP1 SSTORE POP PUSH2 0x11B DUP1 PUSH2 0x2A PUSH0 CODECOPY PUSH0 RETURN INVALID PUSH1 0x80 PUSH1 0x40 MSTORE CALLVALUE DUP1 ISZERO PUSH1 0xE JUMPI PUSH0 DUP1 REVERT JUMPDEST POP PUSH1 0x4 CALLDATASIZE LT PUSH1 0x44 JUMPI PUSH0 CALLDATALOAD PUSH1 0xE0 SHR DUP1 PUSH4 0x262A9DFF EQ PUSH1 0x48 JUMPI DUP1 PUSH4 0x444A24E8 EQ PUSH1 0x62 JUMPI DUP1 PUSH4 0x457676EE EQ PUSH1 0x7C JUMPI DUP1 PUSH4 0x4E70B1DC EQ PUSH1 0x84 JUMPI JUMPDEST PUSH0 DUP1 REVERT JUMPDEST PUSH1 0x4E PUSH1 0x9E JUMP JUMPDEST PUSH1 0x40 MLOAD PUSH1 0x59 SWAP2 SWAP1 PUSH1 0xCE JUMP JUMPDEST PUSH1 0x40 MLOAD DUP1 SWAP2 SUB SWAP1 RETURN JUMPDEST PUSH1 0x68 PUSH1 0xA3 JUMP JUMPDEST PUSH1 0x40 MLOAD PUSH1 0x73 SWAP2 SWAP1 PUSH1 0xCE JUMP JUMPDEST PUSH1 0x40 MLOAD DUP1 SWAP2 SUB SWAP1 RETURN JUMPDEST PUSH1 0x82 PUSH1 0xA9 JUMP JUMPDEST STOP JUMPDEST PUSH1 0x8A PUSH1 0xB2 JUMP JUMPDEST PUSH1 0x40 MLOAD PUSH1 0x95 SWAP2 SWAP1 PUSH1 0xCE JUMP JUMPDEST PUSH1 0x40 MLOAD DUP1 SWAP2 SUB SWAP1 RETURN JUMPDEST PUSH0 SLOAD DUP2 JUMP JUMPDEST PUSH1 0x2 SLOAD DUP2 JUMP JUMPDEST PUSH1 0xA PUSH0 DUP2 SWAP1 SSTORE POP JUMP JUMPDEST PUSH1 0x1 SLOAD DUP2 JUMP JUMPDEST PUSH0 DUP2 SWAP1 POP SWAP2 SWAP1 POP JUMP JUMPDEST PUSH1 0xC8 DUP2 PUSH1 0xB8 JUMP JUMPDEST DUP3 MSTORE POP POP JUMP JUMPDEST PUSH0 PUSH1 0x20 DUP3 ADD SWAP1 POP PUSH1 0xDF PUSH0 DUP4 ADD DUP5 PUSH1 0xC1 JUMP JUMPDEST SWAP3 SWAP2 POP POP JUMP INVALID LOG2 PUSH5 0x6970667358 0x22 SLT KECCAK256 CALLDATASIZE PUSH6 0xF9071212317 DUP6 0xFB RETURNDATASIZE 0xE9 0xE3 0xC3 PUSH27 0x92C166833A3D5AF30FC8DA263D049DC85C64736F6C634300081A00 CALLER "
				},
				"gasEstimates": {
					"creation": {
						"codeDepositCost": "56600",
						"executionCost": "44323",
						"totalCost": "100923"
					},
					"external": {
						"age()": "2402",
						"num()": "2469",
						"setAge()": "22278",
						"yr()": "2425"
					}
				},
				"methodIdentifiers": {
					"age()": "262a9dff",
					"num()": "4e70b1dc",
					"setAge()": "457676ee",
					"yr()": "444a24e8"
				}
			},
			"storageLayout": {
				"storage": [
					{
						"astId": 3,
						"contract": "statevariable.sol:State",
						"label": "age",
						"offset": 0,
						"slot": "0",
						"type": "t_uint256"
					},
					{
						"astId": 5,
						"contract": "statevariable.sol:State",
						"label": "num",
						"offset": 0,
						"slot": "1",
						"type": "t_uint256"
					},
					{
						"astId": 8,
						"contract": "statevariable.sol:State",
						"label": "yr",
						"offset": 0,
						"slot": "2",
						"type": "t_uint256"
					}
				],
				"types": {
					"t_uint256": {
						"encoding": "inplace",
						"label": "uint256",
						"numberOfBytes": "32"
					}
				}
			},
			"userdoc": {
				"kind": "user",
				"methods": {},
				"version": 1
			}
		}
	}
}